:02000004080AE8
:1000000000000A0860320A08000006000600050128
:080010000402E50C00000000F1
:04001800482D0A085D
:10001C0009480A4908B5884205D0094A824202D0EB
:10002C00121A02F0A9FD0748074A0021121A02F021
:10003C00B1FD064808BD00BF0000002094310A083D
:10004C00A4000020A8000020C5050020C505002044
:10005C0070B502F003F90025054E064CA41BA4084C
:10006C00AC4200D170BD56F8043B98470135F7E718
:10007C0068310A0888310A0800F076B908B500F032
:10008C00B9F8BDE8084002F0A1B800F0B5BE00F028
:10009C00B3BE00F0B9BE00F0B7BE0078B0FA80F085
:1000AC0040097047012303707047000013B50446E4
:1000BC00044B1B788DF800303C2301F031F82046BE
:1000CC0002B010BDA800002038B5046805467CB10C
:1000DC006368013B63605BB9236820469B68984763
:1000EC00A368013BA3601BB923682046DB689847D3
:1000FC00284638BDB0B502F1080384B023F00703DD
:10010C0002AFADEB030D02AD2846144602F034FDF0
:10011C0000232B55084B2A461B78384607498DF887
:10012C0000304FF4616300F0FBFF381DFFF7CCFF8C
:10013C000837BD46B0BD00BFA9000020042E0A0838
:10014C0030B5044687B064200D4600F08DFE224881
:10015C0000F0B6FA08B321462A681F4800F02BFCC1
:10016C000446002836D14FF47A7000F07DFE21460B
:10017C000A2202A801F05BFB029A18496846FFF7B5
:10018C0095FF01A8FFF7A0FF02A801F0C8FA1248DA
:10019C0007B0BDE8304000F05BBA4FF47A7000F065
:1001AC0063FE0F4A0F4902A8FFF780FF03A8FFF771
:1001BC008BFF0D4B0D4A0E491B68126809680648E7
:1001CC0000F06EFB21462A68034807B0BDE83040BA
:1001DC0000F0F1BB07B030BDB00000205C2D0A0868
:1001EC00702D0A08042E0A080400002008000020C4
:1001FC00000000202DE9F047192086B000F034FEF5
:10020C00484B494C188802F0B6F8484D206000F075
:10021C0015FC02F0A9FBD5E9002302F067FA444B68
:10022C00D3E9002302F098FC48B3DFF8088198F872
:10023C00003023B34049414801F0E8FA0026DFF8CA
:10024C000091404FDFF8F4A03B68B34206DD504606
:10025C0059F8041B01F015FB0136F5E73A4B374909
:10026C001E6802A801F0C7FA304602A9FFF768FF22
:10027C0002A801F054FA002388F800303B6000F02B
:10028C00DDFB02F071FBD5E9002302F02FFA2F4BB6
:10029C00D3E9002302F060FC20B32D4F3B780BB365
:1002AC000A222C4E02A8336893FBF2F102FB1131A7
:1002BC0001F0BDFA029A28496846FFF7F7FE01A83B
:1002CC00FFF702FF02A801F02AFA1E4A30681368F1
:1002DC001B4941F823000133136000231F4A3B7074
:1002EC00336013601E4E226833689A4217D000F0B8
:1002FC00A5FB02F039FB01220E4BC5E900011A7077
:10030C00184A236811688B4208D0012B136005D161
:10031C0010490A6801320A600D4A1370336006B046
:10032C00BDE8F0872000002060010020280100209B
:10033C0030000020240100206F2D0A081401002039
:10034C00340100205C010020100000201800002067
:10035C002501002010010020832D0A08AC0000208C
:10036C0024000020280000201FB5194B02211888FA
:10037C0001F0F0FF174B0121188801F0EBFF164B31
:10038C00164A1B7816498DF8003002A84FF46163A9
:10039C0000F0C6FE03A8FFF797FE124B124A134952
:1003AC001B6812680968124800F07AFA104800F0CD
:1003BC0087F950B10F4A104902A8FFF777FE03A83E
:1003CC00FFF782FE05B05DF804FB0C4AF3E700BFB3
:1003DC002000002030010020A90000208B2D0A08ED
:1003EC009A2D0A08040000200800002000000020BC
:1003FC00B00000209F2D0A08AF2D0A08B42D0A0862
:10040C0013B5002401220A4B0A491C700A4B0B48F5
:10041C001A7001F0CEF90A4B40F25B720093094955
:10042C004FF4E1630194084800F054F802B010BD99
:10043C00A80000206F2D0A08A9000020140100203C
:10044C0001010A080C000020B000002091F85C307B
:10045C0010B50446016013B1886D00F0C7FA204650
:10046C0010BD10B50368044693F85C2012B1986D6A
:10047C0000F0C4FA204610BDF8B51F469DF8243094
:10048C0004460D46164623B101235830037100F083
:10049C00A5FA089B23630023636306B1A66425B108
:1004AC00294604F1380001F0B1F9069BE069236597
:1004BC00079BA4F84C70FF2BB8BFFF23A4F8543053
:1004CC0008B1FFF7E6FDB4F85400FFF7E0FDE0617A
:1004DC00F8BD00002DE9FF4104460025984617465B
:1004EC000E4601F023FC0D49E56104F1380001F0E2
:1004FC0060F99DF82C30204603930A9B3246CDE9D7
:10050C0001830F2329460093A5643B4684F85C5075
:10051C00FFF7B2FF204604B0BDE8F0816F2D0A084A
:10052C0010B50446204601F017FB0028FAD02046EF
:10053C0001F0EBF9C0B210BD2DE9F0474FF0010806
:10054C0005468946FFF7ECFF00274446EB69187017
:10055C00EB6993F800A00AF0F00A2846FFF7E0FFD9
:10056C002646EB690134985500F07F0303FB0877AE
:10057C000306A4B2BFB24FEAC818EED4631EBAF198
:10058C00300F89F800301ED12846FFF7C9FFEB6900
:10059C0018552846FFF7C4FFF41CEB690236B6B2B7
:1005AC0098550226A4B2B6B2BE420ED22846FFF728
:1005BC00B7FFB5F854300136A34284BFEB69185528
:1005CC000134A4B2EFE70026EDE7B5F85430A342AE
:1005DC002CBF20460020BDE8F0872DE9F3411546DD
:1005EC001E461A4607460023964602F07F0CBEF1C3
:1005FC007F0F02A888BF4CF0800C5C1CBEF17F0FF3
:10060C0003444FEAD212E4B203F804CC1ED8C4F16E
:10061C000403C4F10500E954224601A9284405EB62
:10062C00030802F0A9FA721C22444146384601F034
:10063C0058F9054600F002FA013478623444A8B245
:10064C00231A5842584102B0BDE8F0812346CBE74B
:10065C0013B50446014601A8FFF7F8FEE022E36952
:10066C0020461A700022E3695A70E169022201F0F7
:10067C0038F9204601F0AAFA00F0E0F9C4E90900C3
:10068C0001A8FFF7EEFE02B010BD0233F0B505462F
:10069C0098B20023CE5C9CB24EB1B5F854C05F1C2E
:1006AC00844504D9441C16543B46A0B2F2E799B2D7
:1006BC00411A0A44210A02F8021C02F8013CF0BD5E
:1006CC0038B5044601F0D9FA002814BF01250025DD
:1006DC0002D1204601F07AFA284638BD2DE9F047C0
:1006EC0088B00446894617461E46DDF840809DF8C2
:1006FC0050A0FFF7E5FF0546002840F0CD802146CD
:10070C0001A8FFF7A3FEA16C002940F088802B46BE
:10071C002046B4F84C20A16B01F020FB00287AD0C5
:10072C00012323849DF85430E269042B5B4B40F089
:10073C008180186899889B79ADF80C108DF80E3073
:10074C000290C2F805009DF80E30BDF80C10D37263
:10075C000C23A2F80910B8F1000F00F081809DF86D
:10076C0048009DF84420400140EAC20040F00600D9
:10077C00C0B2BAF1000F01D100F0FD001FB1002E84
:10078C0070D140F08000E269D054226DE169581CB0
:10079C0012120A54E169206D9A1C8854033349469D
:1007AC002046E269FFF771FF0346B8F1000F0BD04A
:1007BC004146E2692046FFF768FFE2690346139958
:1007CC002046FFF762FF034667B139462046E269CF
:1007DC00FFF75BFF03462EB131462046E269FFF777
:1007EC0054FF0346053B1021E2699BB22046FFF7FC
:1007FC00F4FE00F023F94FF47A76C4E909002046A0
:10080C0001F0AAF988BB00F019F9A36AC01A236D8C
:10081C0073439842F3D9204601F0D8F935E002A889
:10082C0000F090FE2B462046B4F84C2002A901F0B3
:10083C0023F973E7D3F80700D3F80B100DF1080C6C
:10084C00ACE80300DB7B8CF8003002AB03CBC2F8C6
:10085C000500C2F809109CF8003053730E237AE798
:10086C00022086E740F0C0008DE7204602A9FFF782
:10087C0063FE0428CFD1E369DE78002ECBD100F0E3
:10088C00DDF80125A06284F82C6001A8FFF7E9FDD2
:10089C00284608B0BDE8F0870025F9E7132E0A08B2
:1008AC0010B54FF0040C012486B0CDE9044C0024A3
:1008BC00CDE90244CDE90044FFF710FF06B010BDAE
:1008CC002DE9F74FDDF83C8004468B4616461F4653
:1008DC009DF834509DF83890FFF7F2FE82460028C0
:1008EC0051D0214601A8FFF7B1FD0021B4F85420E6
:1008FC00E06902F04FF9052359462046E269FFF7FB
:10090C00C4FE6B1E012B15D8218CE369013189B211
:10091C002184090A1954421CE369218C92B20230D9
:10092C0080B29954B8F1000F04D0238C5A1C228445
:10093C00A8F8003000210B188F42E2699BB20AD94B
:10094C00B4F854C09C4506D916F801C0013102F820
:10095C0003C089B2EFE79DF8301000290CBF30219D
:10096C003121B9F1000F01D041F00801022D0ED157
:10097C0041F00401053B20469BB2FFF72EFE824658
:10098C0001A8FFF76EFD504603B0BDE8F08F012DB6
:10099C0008BF41F00201EDE71FB5089C0394002449
:1009AC0002949DF81C4001949DF818400094FFF7A8
:1009BC0087FF04B010BD7FB50546104614460E46A1
:1009CC0002F04BF900220346CDE901220092314698
:1009DC0022462846FFF7E0FF04B070BD08B5024B75
:1009EC001B681B6B019308BDD001060808B5024BB0
:1009FC001B689B6B019308BDD001060808B5024B20
:100A0C001B681B6C019308BDD001060808B5024B8E
:100A1C001B685B6C019308BDD001060808B5024B3E
:100A2C001B689B6C019308BDD001060808B5024BEE
:100A3C001B685B68019308BD9C01060808B5024B56
:100A4C001B685B69019308BD9C01060808B5024B45
:100A5C001B689B68019308BDB001060808B5024BE2
:100A6C001B68DB68019308BDB001060808B5024B92
:100A7C001B685B69019308BDB001060808B5024B01
:100A8C001B681B6E019308BDAC01060808B5024B30
:100A9C001B685B6E019308BDAC01060808B5024BE0
:100AAC001B689B6E019308BDAC01060808B5024B90
:100ABC001B68DB6E019308BDAC01060808B5024B40
:100ACC001B681B6F019308BDAC01060808B5024BEF
:100ADC001B685B6F019308BDAC01060808B5034B9E
:100AEC001B68D3F88030019308BD0000AC010608E8
:100AFC0008B5024B1B681B68019308BDBC010608B6
:100B0C0008B5024B1B685B68019308BDBC01060865
:100B1C0008B5024B1B689B68019308BDBC01060815
:100B2C0008B5024B1B68DB68019308BDBC010608C5
:100B3C0008B5024B1B681B69019308BDBC01060874
:100B4C0008B5024B1B681B6A019308BDBC01060863
:100B5C0008B5024B1B681B6B019308BDBC01060852
:100B6C0008B5024B1B685B6C019308BDBC01060801
:100B7C0008B5024B1B68DB69019308BDB40106087C
:100B8C0008B5024B1B681B6A019308BDB40106082B
:100B9C0008B5024B1B685B6A019308BDC4010608CB
:100BAC0008B5024B1B689B6A019308BDC40106087B
:100BBC0008B5024B1B68DB6A019308BDC40106082B
:100BCC0008B5024B1B681B6B019308BDC4010608DA
:100BDC0008B5024B1B685B6B019308BDC40106088A
:100BEC0008B5024B1B689B6B019308BDC40106083A
:100BFC0008B5024B1B681B6C019308BDC4010608A9
:100C0C0008B5024B1B681B6E019308BDC401060896
:100C1C0008B5024B1B681B68019308BDD801060878
:100C2C0008B5024B1B681B69019308BDD801060867
:100C3C0008B5024B1B685B69019308BDD801060817
:100C4C0008B5024B1B689B69019308BDD8010608C7
:100C5C0008B5024B1B68DB69019308BDD801060877
:100C6C0008B5024B1B681B6A019308BDD801060826
:100C7C0008B5024B1B685B6C019308BDC0010608EC
:100C8C0008B5024B1B689B6C019308BDC00106089C
:100C9C0008B5024B1B681B6D019308BDA801020827
:100CAC0008B5024B1B685B68019308BDA4010608DC
:100CBC0008B5024B1B685B69019308BDA4010608CB
:100CCC0008B5024B1B68DB6C019308BDA401060838
:100CDC0008B5024B1B685B6D019308BDA4010608A7
:100CEC0008B5034B1B68D3F89030019308BD000086
:100CFC00A401060808B5034B1B68D3F89C3001937C
:100D0C0008BD0000A401060808B5024B1B685B690E
:100D1C00019308BDCC01060808B5024B1B681B6A81
:100D2C00019308BDCC01060808B5024B1B68DB6BB0
:100D3C00019308BDCC01060808B5024B1B685B6823
:100D4C00019308BDC801060808B5024B1B689B68D7
:100D5C00019308BDC801060808B5024B1B68DB6887
:100D6C00019308BDC801060808B5024B1B681B6936
:100D7C00019308BDC801060808B5024B1B685B69E6
:100D8C00019308BDC801060808B5024B1B689B6996
:100D9C00019308BDC801060808B5024B1B68DB6946
:100DAC00019308BDC801060808B5024B1B681B6AF5
:100DBC00019308BDC801060808B5024B1B681B6BE4
:100DCC00019308BDC801060808B5024B1B685B6B94
:100DDC00019308BDC801060808B5024B1B681B6CC3
:100DEC00019308BDC801060808B5024B1B685B6C73
:100DFC00019308BDC801060808B5024B1B681B68A7
:100E0C00019308BDA001060808B5024B1B685B687E
:100E1C00019308BDA001060808B5024B1B689B682E
:100E2C00019308BDA001060808B5024B1B68DB6ADC
:100E3C00019308BDA001060808B5024B1B681B6B8B
:100E4C00019308BDA001060808B5024B1B681B6C7A
:100E5C00019308BDA001060808B5024B1B685B6C2A
:100E6C00019308BDA00106080021FFF721BF10B5B2
:100E7C00836804460BB901F01DFBC3689847A3684F
:100E8C001BB103222146204698472046BDE810405E
:100E9C001021FFF700B970470020704710B50446C9
:100EAC001021FFF7F8F8204610BD08B5FFF7F6FF44
:100EBC0008BD10B58368044613B103220146984758
:100ECC00204610BD002230B54FF69C740260848021
:100EDC008D888C800C68858004600A6030BD10B5EC
:100EEC0004460068FFF790FF204610BD38B5C46873
:100EFC00F4B12378022B03D104F10C00FFF7EFFFC0
:100F0C00656835B12846FFF7D4FF10212846FFF756
:100F1C00C2F8A56835B12846FFF7CBFF102128464B
:100F2C00FFF7B9F82046BDE838401421FFF7B3B8F5
:100F3C0038BD0B6803604B68436013B15A680132CB
:100F4C005A60704737B5044668460D46FFF7F1FF07
:100F5C00009B019A23600023626001A80193009317
:100F6C00FFF7B2F835B1281DFFF7AEF80821284677
:100F7C00FFF791F8204603B030BD13B56C460B4615
:100F8C00024603C884E8030093E8030082E80300E8
:100F9C0094E8030083E8030002B010BD826810B52A
:100FAC000AB901F087FAC368BDE81040184708B5C4
:100FBC00006800F11001FFF7F1FF08BD826810B561
:100FCC000AB901F077FAC368BDE81040184708B5B4
:100FDC00006800F11001FFF7F1FF08BD38B50023E0
:100FEC000446036010200D46FFF74FF828B101238B
:100FFC00C0E90133024BC56003602060204638BD58
:10100C002C2E0A0838B5002383608B6804460D46E5
:10101C002BB102229847EB68E360AB68A3602046D3
:10102C0038BD0000F0B589B004686846FFF74AFF88
:10103C004FF00203D4E84F2F002A03D1C4E8413FFC
:10104C000029F7D125D104F10C0569462846FFF794
:10105C0039FF0123BFF35B8F63700020BFF35B8FFD
:10106C0004F1080353E8006F43E80002002AF9D1A9
:10107C00BFF35B8F6EB1FFF723FE78B12946304684
:10108C00FFF78CFF3046FFF714FF10213046FFF7B7
:10109C0002F86846FFF723FF09B0F0BD314602A8FD
:1010AC00FFF7B0FFE068B4F9105008B101F0BAFDD9
:1010BC0006901020ADF81C50FEF7E7FF0546E8B18E
:1010CC00002787601820FEF7E0FF044688B1014630
:1010DC00876002A8FFF751FF049BA268A360059BE1
:1010EC000492E26806A9E36004F110000592FFF790
:1010FC00E9FE084B2C60EB60074BAB6006A8FFF7D2
:10110C00EEFE02A8FFF7D5FE002229460348FFF7A2
:10111C00DFFDB7E7BB0F0A0845120A087B0E0A0869
:10112C002DE9F0478AB005460C46174698469DF8BF
:10113C004890FFF7E9FD07AE824638BB4FF62E7399
:10114C00059005A93046ADF81830FFF7BBFE14200A
:10115C00FEF79BFF044648B1022303700123C0E94C
:10116C0001AA437031460C30FFF7ACFE28462146ED
:10117C0040F8044BFFF732FF3046FFF7B0FE05A8EE
:10118C00FFF7ADFE28460AB0BDE8F0870C234FF000
:10119C00000A1420CDE908AA0793FEF776FF014652
:1011AC0028B1C0E901AA80F800A080F801A004A829
:1011BC000391FFF713FF1F4B08200893FEF765FF01
:1011CC00824610B103A9FFF7B4FE424639462046C9
:1011DC0000965FFA89F3CDF824A0FFF79DFDB8B90E
:1011EC00039B5B7803F0FF0293B94FF69C7305A940
:1011FC0003A80592ADF81830FFF714FF05A8FFF708
:10120C006EFE05A80999FFF79DFE06A8FEF75CFF88
:10121C0003A905A8FFF78DFE059B069A2B600023FA
:10122C006A6006A806930593FEF74EFF04A8FEF726
:10123C004BFFA7E7C1120A08012AF8B5054603D1EE
:10124C000B6803600020F8BD022A10D0032AF9D1E4
:10125C000468002CF6D004F11000FFF740FE204685
:10126C00FFF727FE18212046FEF715FFEAE71820A6
:10127C000E68FEF70AFF044650B13146FFF7C2FE76
:10128C003069B6F9147008B101F0CCFC2061A7826A
:10129C002C60D7E738B5002383608B6804460D4675
:1012AC002BB102229847EB68E360AB68A360204641
:1012BC0038BD0000F0B5044689B00D4601A81146B2
:1012CC00FFF740FEA4B124B21DB1284601F0AAFCE0
:1012DC00054601A803A90395ADF81040FFF7A2FE3F
:1012EC0003A8FFF7FCFD02A8FEF7EEFE09B0F0BD67
:1012FC000123019DD5E84F2F002A03D1C5E8413FBA
:10130C000029F7D1EFD12B73BFF35B8F6B70BFF359
:10131C005B8F2B1D53E8006F43E80042002AF9D184
:10132C00BFF35B8F002EDED02046FFF7C9FC0746CB
:10133C0060B1304605F10C01FFF740FE3046FFF777
:10134C00B8FD10213046FEF7A6FECCE7314603A8C7
:10135C00FFF7A0FF2B7B10208DF81C30FEF795FEBD
:10136C000546D0B187601420FEF78FFE044678B195
:10137C000146876003A8FFF700FE059BA268A360E7
:10138C00069B0592E268E3609DF81C30069223747C
:10139C00064B2C60EB60064BAB6003A8FFF789FD96
:1013AC00002229460348FFF793FCC7E7DB0F0A0826
:1013BC00C5130A087B0E0A08012A70B5044603D12E
:1013CC000B680360002070BD022A0CD0032AF9D1EF
:1013DC000468002CF6D02046FFF76BFD1421204644
:1013EC00FEF759FEEEE714200E68FEF74EFE05469A
:1013FC0020B13146FFF74EFF337C2B742560E1E7BB
:10140C007047F8B5064615460C468F18BC4206D0F8
:10141C00336830469B6814F8011B9847F6E728465A
:10142C00F8BD0022007CFFF729BB0021007CFFF7F0
:10143C002DBB0021007CFFF731BB0021007CFFF7A6
:10144C0035BB0021007CFFF739BB10B504461421D5
:10145C00FEF721FE204610BD10B54FF47A730446FA
:10146C0008460021C4E90113034B11462360207484
:10147C00FFF734FB204610BD482E0A087047F8B51C
:10148C000E46002400F10807051D17F8011D0A225D
:10149C00304600F012F9AF42044401D12046F8BDA9
:1014AC00002CF2D02E21304600F004F90444ECE775
:1014BC0010B504461821FEF7EEFD204610BD0000C5
:1014CC0010B50446044B1122002140F8043B01F0F6
:1014DC0061FB204610BD00BF702E0A080346074A68
:1014EC0010B543F8042B01F1100251F8044B914252
:1014FC0043F8044BF9D10A781A7010BD702E0A0803
:10150C00024AC0E90021042202757047702E0A08B5
:10151C0010B59DF8084044EA0324042344EA02442D
:10152C0044EA01644460037510BD000013B5044C1B
:10153C0004609DF810400094FFF7EAFF02B010BD64
:10154C00702E0A0807B5064B0360CB7800938B7896
:10155C004A780978FFF7DCFF03B05DF804FB00BFA5
:10156C00702E0A08014B024A1A6070476401002071
:10157C007C2E0A08002340681A46FFF7DDBB0022C8
:10158C0002214068FFF7E8BB002240681146FFF7D4
:10159C00DBBB002240681146FFF7E6BB0023406826
:1015AC001A461946FFF7E8BB002340681A4619464D
:1015BC00FFF7EABB00214068FFF70EBC0021406832
:1015CC00FFF712BC0022406881F00101FFF7E4BB79
:1015DC0000224068FFF7F0BB002240681146FFF77D
:1015EC00F3BB002240681146FFF7DEBB70B5154611
:1015FC008EB0044608A8FFF763FF1122002103A850
:10160C0001F0C8FA0026284601F027FB0A4B009689
:10161C0081B25B68284603AAFFF732FB30B1314632
:10162C002046FFF76DFF20460EB070BD204603A983
:10163C00FFF754FFF7E700BFC8040020034A044B30
:10164C00042814BF10461846704700BF68010020DC
:10165C00C8040020024B034A1A6000225A607047EB
:10166C0068010020882E0A08F8B506460D460024AD
:10167C008F18BD420CD0336830469B6815F8011B9F
:10168C009847031E01DB1C44F3E7002C08BF1C46E3
:10169C002046F8BD70B505460C46084649B101F028
:1016AC00DCFA2B68024621462846BDE87040DB6810
:1016BC00184770BD03689B6818470023012A98BF20
:1016CC000A2230B58BB00C468DF8243009A925467A
:1016DC00B4FBF2F404FB1253DBB2092B94BF30338E
:1016EC003733DBB2AA4201F8013DF0D9FFF7D2FF44
:1016FC000BB030BD0022014B9A6070477001002086
:10170C0070B5002604460D4640F8086FFFF77EF9C9
:10171C0028462570FFF72CFA2046666070BD10B580
:10172C0004460068FFF770FB204610BD10B5044658
:10173C00006808B1FFF768FB0023C4E9013323609C
:10174C0010BD38B504460D4600680131FFF764FB47
:10175C0010B1C4E90005012038BD10B5036804467A
:10176C0023B143688B4201D3012010BD2046FFF703
:10177C00E8FF0028F9D0A368002BF5D1226813707C
:10178C00F2E770B50E46114604461546FFF7E5FF25
:10179C0020B92046FFF7CAFF204670BD2A463146C5
:1017AC002068A56001F0E8F900212268A368D154F3
:1017BC00F2E738B5002304460D46C0E900338360D8
:1017CC00037339B1084601F048FA2946024620460F
:1017DC00FFF7D7FF204638BD884210B50B460446AC
:1017EC0004D0096821B19A68FFF7CBFF204610BDE1
:1017FC00FFF79CFFFAE7002310B50446C0E900335D
:10180C0083600373FFF7E8FF204610BD38B505462B
:10181C000C4649B1084601F020FA214602462846FA
:10182C00FFF7AFFF284638BDFFF780FFFAE710B58A
:10183C00002304468AB0C4E90033A360237308462E
:10184C0001A900F077FC204601A9FFF7DFFF204635
:10185C000AB010BD70B505460E4609B9002070BD22
:10186C006AB1846814442146FFF777FF0028F5D04D
:10187C002868AB683146184401F0CCF9AC60012003
:10188C00EDE713B50A2204460846694600F052FCFF
:10189C00684601F0E2F9694602462046FFF7DAFF96
:1018AC0002B010BD02220020044B1A60044B054A02
:1018BC00C3E900009A60FFF7F3B900BF8C01002068
:1018CC00800100200000FFFF13B503688DF807109E
:1018DC00DC6B012247F230530DF10701A04702B037
:1018EC0010BD10B40368DC6B47F23053A44610BC37
:1018FC00604713B5134602688DF80710D46B0DF1D1
:10190C0007010122A04702B010BD10B5436904467F
:10191C00B3F88620B3F884309A4208D06369B3F8E0
:10192C008420511CA3F884101344187910BD03684B
:10193C001B6998470028F1D14FF0FF30F6E770474C
:10194C007047000010B50446064B0846994204F156
:10195C000C0404D000F0B2FD002808BF002420467F
:10196C0010BD00BFF42E0A0810B50446AC21FEF7DA
:10197C0092FB204610BDAC21FEF78DBB38B50B4B4E
:10198C008469054603607CB16368013B63605BB9A5
:10199C00236820469B689847A368013BA3601BB94A
:1019AC0023682046DB689847284638BD042F0A0870
:1019BC0010B50446FFF7E2FF20461C21FEF76BFB37
:1019CC00204610BD70B5044606464D69044B8C3557
:1019DC0044F8043B0FCD0FC42B683046237070BD08
:1019EC00702E0A0810B543690446B3F88620B3F884
:1019FC0084309A4205D06369B3F884201344187973
:101A0C0010BD03681B6998470028F4D14FF0FF30D4
:101A1C00F6E7F8B543691746B3F88620B3F8843077
:101A2C0005469A420E4616D069693046B1F88430A4
:101A3C00B1F88640E41ABC4228BF3C460433224627
:101A4C00194401F099F86A69B2F884302344A2F879
:101A5C0084302046F8BD03681B6998470028E3D101
:101A6C004FF0FF34F5E700234269A2F88430426955
:101A7C00A2F88630704700002DE9F0431F4603683A
:101A8C008BB0DB6A05460C46164698473846FFF77E
:101A9C00D5FD0368DB689847002854D033460622EE
:101AAC00012102200097D5F81480FFF731F820238C
:101ABC00C8F800004FF00008CDE902386B6901202E
:101ACC001B6823490193234B02AA00934346FFF75B
:101ADC00DFF86B691868FFF713F8002833D0284635
:101AEC00FFF7C1FF0223ADF80830E37976BA8DF821
:101AFC000C30A3794FF4FA508DF80D306379ADF8B2
:101B0C000A608DF80E3014F8043F8DF80F30FFF793
:101B1C00AFF86B6906461022186802A9FFF700F8A7
:101B2C0081463046FFF7A4F80FCC6E698C360FC691
:101B3C00236833702F61B9F1000F07D02B6828464A
:101B4C00DB6A984740460BB0BDE8F0830120FAE70A
:101B5C00BC2E0A08C32E0A0838B542690446B2F8EE
:101B6C0086302BB1B2F884209A4201D1FFF77BFF6B
:101B7C002069FFF763FD0368DB689847F8B1636978
:101B8C001868FEF7BDFFD0B16069B0F886107F29E8
:101B9C0015D8051DC1F18002002300682944FEF709
:101BAC00C7FF00280BDD6369B3F886200AB9A3F8D8
:101BBC0084206369B3F886201044A3F88600636917
:101BCC00B3F88600B3F88430C01A38BD38B5436911
:101BDC0004461868FEF794FF18B163691868FEF79D
:101BEC00AFFF6569FEF7B4FF286060691122002120
:101BFC008C3000F0CFFF2046BDE83840FFF733BFF4
:101C0C0010B5436904461868FEF77AFF08B900203E
:101C1C0010BD2069FFF712FD0368DB6898470028A8
:101C2C00F5D063691868FEF763FFB0FA80F04009DD
:101C3C00EEE708B5FFF7E4FF003818BF012008BD38
:101C4C002DE9F3410027476004460D461646984699
:101C5C00FFF7D6FF70B1CDE9008760693B4632468D
:101C6C0029460068FEF77CFF002800DA606002B0AD
:101C7C00BDE8F0814FF0FF30F8E770B50546FFF78F
:101C8C00BFFFE8B96B69B3F88610B3F884209142B2
:101C9C0016D11868FEF734FF08B9002070BD6B69C7
:101CAC001868FEF725FF01280446F6D12B68284654
:101CBC001B69984730B92B682846DB6A9847ECE7D4
:101CCC000120EBE72046E9E7002310B5044601604C
:101CDC00C0F884308830FFF7F3FB204610BD0000BD
:101CEC00F8B54FF47A720023C0E901320D4A036152
:101CFC00026043610446AC200E46FEF7C6F9051E91
:101D0C0005F10C0708D00123C5E90133064B314618
:101D1C0038462B60FFF7D8FF2046C4E90575FFF75E
:101D2C00A2FEF8BD042F0A08E02E0A0810B50446DE
:101D3C00FEF70EFF01462046FFF7D2FF204610BDEE
:101D4C0010B504460068FEF7DBFE10B12068FEF704
:101D5C00F7FE204610BD0C30FFF7F2BF2DE9F04323
:101D6C001F4603688FB0DB6A06460D4690469847BF
:101D7C001348FFF70EFCF0B102A8FFF7A1FB2846B1
:101D8C0000F06BFF002481B23B462846009403AA66
:101D9C00FEF776FF90B9336809ADD3F82090094B64
:101DAC0003AC08930FCC0FC5236842462B7030460A
:101DBC003B4608A9C8470FB0BDE8F0832046FAE7B8
:101DCC0068010020702E0A08024B1A68024B1A6038
:101DDC00704700BF3800002090010020704741740C
:101DEC00704708B5007CFEF703FF20EAE07008BDE1
:101DFC0008B5007CFEF7D4FE20EAE07008BD08B5FB
:101E0C00007CFEF7DDFE40EAE07008BD08B5007C02
:101E1C00FEF7CEFE40EAE07008BD007CFEF7D8BEAF
:101E2C0070B5467C04460D462EB12946207CBDE893
:101E3C007040FEF7ADBE007CFEF7DAFE0028F4DC45
:101E4C00304670BD10B504461421FEF724F9204627
:101E5C0010BD000010B54FF47A73044608461146C5
:101E6C000022C4E90123044B207423600123637412
:101E7C00FEF7C6FE204610BD6C2F0A084174704751
:101E8C007047704708B50021007CFEF7D9FE40EA88
:101E9C00E07008BD08B50121007CFEF7D1FE40EAD8
:101EAC00E07008BD08B5007CFEF7C2FE20EAE070C9
:101EBC0008BD08B5007CFEF7B3FE20EAE07008BD53
:101ECC0038B50446007C0D46FEF7B2FE002801DC56
:101EDC00607C28B12946207CFEF7BAFE20EAE0702F
:101EEC0038BD007CFEF7BCBE10B504461421FEF7CD
:101EFC00D2F8204610BD704710B54FF47A730446E3
:101F0C0008460021C4E90113044B2074236001230B
:101F1C0011466374FEF77CFE204610BD9C2F0A0808
:101F2C0010B504461422002100F034FE054B204667
:101F3C006360054BE36040F201132381812323820C
:101F4C0010BD00BFC4010020C502002030B50E4DED
:101F5C0087B001A8FFF7E4FF2978BFF35B8F11F07E
:101F6C0001040ED12846FEF798F850B1214601AA7B
:101F7C000648FFF7C1FF2846FEF794F8044800F026
:101F8C00F5FD024807B030BD940100209C010020F3
:101F9C008D1E0A0810B504461422002100F0FAFD2B
:101FAC00054B20466360054BE36040F2011323812F
:101FBC008123238210BD00BF46030020470400206C
:101FCC0010B50E4C86B001A8FFF7E4FF2378BFF3E1
:101FDC005B8FDB070ED42046FEF75FF850B1012172
:101FEC0001AA0748FFF788FF2046FEF75BF8054873
:101FFC0000F0BCFD024806B010BD00BF98010020E7
:10200C00B0010020031F0A08002240681146FEF7A9
:10201C00ABBEF0B5154689B011220E460446002120
:10202C0003A800F0B7FD284600F017FE002781B288
:10203C0073682846009703AAFEF722FE30B1394692
:10204C002046FFF75DFA204609B0F0BD204603A9F3
:10205C00FFF744FAF7E7002240681146FEF7A4BEEA
:10206C00002240681146FEF7AFBE00224068FEF722
:10207C00A3BE0022406881F00101FEF78DBE002353
:10208C0040681A461946FEF77FBE002340681A4680
:10209C001946FEF771BE002240681146FEF754BE89
:1020AC00002202214068FEF757BE002340681A4602
:1020BC00FEF742BE0422024B5A60024A1A60704775
:1020CC00C8040020CC2F0A0810B5044600F0C5FD4A
:1020DC00431E20462344834206D90278197800F81F
:1020EC00011B03F80129F6E710BD70B50C46911ED3
:1020FC0022291DD8254630B9302223449D4210D2C6
:10210C0005F8012BFAE7B0FBF2F602FB1600C1B2A0
:10211C00092894BF30315731C9B2304605F8011B3C
:10212C00E9E7002320462B70FFF7CEFF204670BD59
:10213C000020FCE738B5031E0C4615460DDA2D229F
:10214C00B3F1004F0CBF1846584201230A702A46BF
:10215C001944FFF7CAFF204638BD0123F9E70000F8
:10216C00014B1860704700BF3C00002008B5134BB2
:10217C0043B1FFF7EBFE03681B699847002801DDAC
:10218C00AFF300800E4B43B100F06EF903681B698E
:10219C009847002801DDAFF300800A4B0BB1AFF379
:1021AC000080094B43B1FFF70BFF03681B6998478D
:1021BC00002801DDAFF3008008BD00BF0000000067
:1021CC0000000000000000000000000008B5FFF750
:1021DC00CDFFFEF733FC014B186008BDE80400206E
:1021EC000548064A08B5121A054900F0C5FC054B0E
:1021FC00054A1A6008BD00BF00400240044002407E
:10220C0090310A08004002401E1C279A002307B593
:10221C001A466FF077010093FEF76CFD03B05DF882
:10222C0004FB000007B543880A2B08D0502B0BD1B8
:10223C00094B1B684BB103B05DF804EB1847FFF773
:10224C00E5FF03B05DF804FB00231A466FF077013D
:10225C000093FEF74FFDF4E7D4040020002110B5E5
:10226C001148FEF7F9FD114B1A68114B9A420CBF3D
:10227C00012200220F4B1A7001D0FFF7B1FFFEF7BD
:10228C00D5FB044600F08EFC0B4B13B12046AFF38C
:10229C00008000210848FEF747FDBDE810400021F2
:1022AC000648FEF71DBD00BF6D210A080040024024
:1022BC001E1C279AD00400200000000031220A08BE
:1022CC00024B986808B1FEF7A9BB7047DC040020EC
:1022DC00172870B5044601D9002070BDA0F10D037C
:1022EC00022B0BD9012824D800F070F80021007CB7
:1022FC00FEF7ECFB80F00100C0B2EEE7124E317835
:10230C00BFF35B8F11F001050DD13046FDF7C5FE13
:10231C0048B129460D48FFF7F3F93046FDF7C2FEE8
:10232C000B4800F023FC094B1878FEF729FC002819
:10233C00D2D1123C012C05D800F096F8007CFEF7A7
:10234C004FFCD7E70120C8E7D8040020DC040020AC
:10235C00CD220A08172838B504460D460AD8FF299D
:10236C0008D0FFF7B5FF28B129462046BDE8384014
:10237C00FEF76CBB38BD10B50446FEF76FFB031FB0
:10238C00DBB2012B08D92046FFF7A2FF20B1204673
:10239C00BDE81040FEF76ABB002010BD704700007E
:1023AC0070B514232025084E044603603146856021
:1023BC000561284600F07CF831466060284600F044
:1023CC0077F8E060204670BD00300A0830B50E4D3D
:1023DC0087B02978BFF35B8F11F0010411D1284627
:1023EC00FDF75BFE68B101A8FFF7DAFF214601AAF1
:1023FC000648FFF731F82846FDF754FE044800F074
:10240C00B5FB024807B030BDEC040020F0040020FE
:10241C00A9230A08002307B51A4619460093034856
:10242C00FFF784F803B05DF804FB00BF040500203F
:10243C007047000070B5142504462A46002100F0B0
:10244C00A9FB25808025074E28463146258125820B
:10245C0000F02EF831466060284600F029F8E06064
:10246C00204670BD00300A0830B50E4D87B0297873
:10247C00BFF35B8F11F0010411D12846FDF70DFE5F
:10248C0068B101A8FFF7D6FF214601AA0648FFF75D
:10249C00E1FC2846FDF706FE044800F067FB024805
:1024AC0007B030BD1C050020200500203D240A0883
:1024BC00FDF7EDBD08B5FEF7B7FC0000014900F0D3
:1024CC00FBB800BF1C300A087FB500241023CDE9EF
:1024DC000234036815469E69CDE900446B461268C8
:1024EC00B0479DF8043003F00603062B09BF01200A
:1024FC002046009B2B6004B070BD0098904214BF26
:10250C00012006207047000010B50446024B036002
:10251C0000F0CFF8204610BD5C300A0810B5044618
:10252C00FFF7F2FF20460821FDF7B5FD204610BD50
:10253C002DE9F041DDF818801F46DDE90834984597
:10254C000646154607D1079900F0B6F818B1657123
:10255C000020BDE8F0813946304600F0ADF8002887
:10256C00F6D00123C4F800802571A371F0E738B5CB
:10257C0015461C4600F0A0F820B10823E3600623A2
:10258C002560237138BD2DE9F04105460C461646F1
:10259C001F4600F091F848B9032F07D8236832463C
:1025AC0029462046BDE8F0415B691847BDE8F0813B
:1025BC0010B50446024B0360FFF7A6FF204610BD82
:1025CC00BC300A0810B50446FFF7F2FF20460C2178
:1025DC00FDF761FD204610BD2DE9F041DDF81880B6
:1025EC00064690450F4615461C460BD0B0682A4649
:1025FC000368CDF818801E6A39462346B446BDE8F8
:10260C00F0416047194600F057F80028EED006203C
:10261C00BDE8F0812DE9F14F0D46DDE90A4BDDE90E
:10262C000CA6194681461746984600F045F890B11D
:10263C00002D3460377109DB2C44A2450CBF0624F5
:10264C000124B471002001B0BDE8F08F0235F9D13E
:10265C000123B371F6E7544506D15946484600F0BC
:10266C002BF808B17771EDE7D9F808003A46036802
:10267C00CDE90CA6CDE90A4BDC6929464346A446B4
:10268C0001B0BDE8F04F60472DE9F04107460C461C
:10269C0015461E46FFF76BFF48B9B8682A46036813
:1026AC0021469F693346BC46BDE8F0416047BDE812
:1026BC00F081704700207047814208B50ED0406809
:1026CC0003782A2B0CD049680B782A2B08BF0131D0
:1026DC0000F096FAB0FA80F0400908BD0120FCE742
:1026EC000020FAE781F0004102E000BF83F00043D4
:1026FC0030B54FEA41044FEA430594EA050F08BF91
:10270C0090EA020F1FBF54EA000C55EA020C7FEA54
:10271C00645C7FEA655C00F0E2804FEA5454D4EBD1
:10272C005555B8BF6D420CDD2C4480EA020281EA9B
:10273C00030382EA000083EA010180EA020281EAD3
:10274C000303362D88BF30BD11F0004F4FEA013125
:10275C004FF4801C4CEA113102D0404261EB410134
:10276C0013F0004F4FEA03334CEA133302D05242BA
:10277C0063EB430394EA050F00F0A780A4F1010476
:10278C00D5F1200E0DDB02FA0EFC22FA05F28018B0
:10279C0041F1000103FA0EF2801843FA05F3594196
:1027AC000EE0A5F120050EF1200E012A03FA0EFC15
:1027BC0028BF4CF0020C43FA05F3C01851EBE3713F
:1027CC0001F0004507D54FF0000EDCF1000C7EEB5C
:1027DC0000006EEB0101B1F5801F1BD3B1F5001F9A
:1027EC000CD349085FEA30004FEA3C0C04F10104B9
:1027FC004FEA445212F5800F80F09A80BCF1004FE2
:10280C0008BF5FEA500C50F1000041EB045141EA63
:10281C00050130BD5FEA4C0C404141EB0101013C2C
:10282C0028BFB1F5801FE9D291F0000F04BF01461B
:10283C000020B1FA81F308BF2033A3F10B03B3F1ED
:10284C0020020CDA0C3208DD02F1140CC2F10C027D
:10285C0001FA0CF021FA02F10CE002F11402D8BFDB
:10286C00C2F1200C01FA02F120FA0CFCDCBF41EAA7
:10287C000C019040E41AA2BF01EB0451294330BD76
:10288C006FEA04041F3C1CDA0C340EDC04F1140453
:10289C00C4F1200220FA04F001FA02F340EA03002A
:1028AC0021FA04F345EA030130BDC4F10C04C4F170
:1028BC00200220FA02F001FA04F340EA0300294650
:1028CC0030BD21FA04F0294630BD94F0000F83F49A
:1028DC00801306BF81F480110134013D4EE77FEA7D
:1028EC00645C18BF7FEA655C29D094EA050F08BFC9
:1028FC0090EA020F05D054EA000C04BF19461046AA
:10290C0030BD91EA030F1EBF0021002030BD5FEAED
:10291C00545C05D14000494128BF41F0004130BD15
:10292C0014F580043CBF01F5801130BD01F0004569
:10293C0045F0FE4141F470014FF0000030BD7FEADC
:10294C00645C1ABF194610467FEA655C1CBF0B46D7
:10295C00024650EA013406BF52EA033591EA030FEE
:10296C0041F4002130BD00BF90F0000F04BF0021E6
:10297C00704730B54FF4806404F132044FF0000519
:10298C004FF0000150E700BF90F0000F04BF002192
:10299C00704730B54FF4806404F1320410F00045F8
:1029AC0048BF40424FF000013EE700BF42004FEAF3
:1029BC00E2014FEA31014FEA02701FBF12F07F4370
:1029CC0093F07F4F81F06051704732F07F4208BF27
:1029DC00704793F07F4F04BF41F40021704730B52E
:1029EC004FF4607401F0004521F000411CE700BF7A
:1029FC0050EA010208BF704730B54FF000050AE0FD
:102A0C0050EA010208BF704730B511F0004502D5FD
:102A1C00404261EB41014FF4806404F132045FEAFF
:102A2C00915C3FF4D8AE4FF003025FEADC0C18BFA8
:102A3C0003325FEADC0C18BF033202EBDC02C2F19A
:102A4C00200300FA03FC20FA02F001FA03FE40EA2C
:102A5C000E0021FA02F11444BDE600BF4FF0FF3C1A
:102A6C0006E000BF4FF0010C02E000BF4FF0010C7C
:102A7C004DF804CD4FEA410C7FEA6C5C4FEA430CF5
:102A8C0018BF7FEA6C5C1BD001B050EA410C0CBF44
:102A9C0052EA430C91EA030F02BF90EA020F0020A6
:102AAC00704710F1000F91EA030F58BF994208BF0D
:102ABC0090422CBFD8176FEAE37040F001007047CA
:102ACC004FEA410C7FEA6C5C02D150EA013C07D121
:102ADC004FEA430C7FEA6C5CD6D152EA033CD3D06C
:102AEC005DF8040B704700BF8446104662468C4666
:102AFC001946634600E000BF01B5FFF7B7FF002899
:102B0C0048BF10F1000F01BD4DF808EDFFF7F4FFC1
:102B1C000CBF012000205DF808FB00BF4DF808ED4C
:102B2C00FFF7EAFF34BF012000205DF808FB00BF6F
:102B3C004DF808EDFFF7E0FF94BF012000205DF891
:102B4C0008FB00BF4DF808EDFFF7CEFF94BF012046
:102B5C0000205DF808FB00BF4DF808EDFFF7C4FF3F
:102B6C0034BF012000205DF808FB00BF00230146A4
:102B7C001A46184600F07AB80A44914200F1FF3325
:102B8C0000D1704710B511F8014B914203F8014F79
:102B9C00F9D110BD03460244934200D1704703F8AB
:102BAC00011BF9E738B5104B04461D68AB6BB3B984
:102BBC001820FEF721F90246A86320B942210B4BDD
:102BCC000B48FEF741F90B490B4BC0E900130B4BBB
:102BDC00002183600B2383810120C2E904010022C0
:102BEC00AB6B1C615A6138BD3C000020F5300A0803
:102BFC000C310A080E33CDAB34126DE6ECDE050059
:102C0C0010F8012B11F8013B012A28BF9A42F7D08A
:102C1C00D01A7047034611F8012B03F8012B002A38
:102C2C00F9D17047024B0146186800F003B800BF99
:102C3C003C00002070B5044608460D4600F00DF827
:102C4C00461C31462046FEF7F7F8044618B13246CA
:102C5C002946FFF791FF204670BD034613F8012B60
:102C6C00002AFBD1181A0138704700002DE9F843EF
:102C7C00DFF8AC800646D8F800001F460D4691469A
:102C8C0000F058F8274B1C6834B9274C1C60274BB4
:102C9C0013B11B68C4F8883063681F2B07DDD8F8A4
:102CAC00000000F049F84FF0FF30BDE8F8835EB348
:102CBC00D4F8880088B91E4B23B9D8F8000000F06E
:102CCC003AF8F0E74FF48470FEF796F80028F4D049
:102CDC000023C0E94033C4F8880001226368022E47
:102CEC0040F8239002FA03F200EB8301D0F8003194
:102CFC0043EA0203C0F80031C1F8807002BFD0F87B
:102D0C0004311343C0F804316368D8F800005A1C2E
:102D1C000233626044F8235000F00EF80020C4E740
:102D2C00A0000020C0050020340500200000000099
:102D3C00050E0A0870477047704700001D000A080E
:102D4C005D000A0885000A0889000A0800000000D6
:102D5C006D7174742072657475726E20636F646526
:102D6C00203D2000436F6E6E656374696F6E206446
:102D7C00726F70706564004469616C656420005307
:102D8C0074617274206D652075702E2E2E00646235
:102D9C00756700436F6E6E656374656420746F2095
:102DAC004841004D515454004661696C6564206380
:102DBC006F6E6E656374204841202D2063686563D7
:102DCC006B20736563726574732E680068612F7273
:102DDC006F746172792F6E756D6265720068612F08
:102DEC00726F746172792F64696769740044494128
:102DFC004C455200555732316D71747400757469BD
:102E0C006C736D7174740000044D515454040006BD
:102E1C004D51497364700300000000000000000075
:102E2C00A30E0A08A90E0A08F90E0A08B70E0A081A
:102E3C00A50E0A0800000000000000000D140A088E
:102E4C0057140A082F140A080F140A0837140A0812
:102E5C003F140A0847140A084F140A08000000001F
:102E6C00000000008B140A0889140A08BD140A0813
:102E7C0061707000000000000000000081150A085D
:102E8C008B150A0895150A089F150A08A9150A0832
:102E9C00B5150A08C1150A08C9150A08D1150A087A
:102EAC00DD150A08E5150A08EF150A08F9150A08D0
:102EBC00776972696E6700544350436C69656E7430
:102ECC0020736F636B65743D257800000000000073
:102EDC00000000004D190A0875190A08631D0A083C
:102EEC0083190A0851190A080000000000000000AC
:102EFC00000000000000000089190A08BD190A082A
:102F0C00D5180A08EF180A08651B0A0817190A08C9
:102F1C00F1190A084B190A08851A0A08691D0A08CA
:102F2C001F1A0A08D91B0A08871C0A083F1C0A0822
:102F3C00FF180A084D1C0A08D1190A0825592D2515
:102F4C006D2D25645425483A254D3A2553257A0094
:102F5C0061736374696D650000000000000000007F
:102F6C00E91D0A08511E0A082D1E0A0875160A08C2
:102F7C00FD1D0A08191E0A080B1E0A08271E0A083E
:102F8C00EB1D0A08EF1D0A080000000000000000FD
:102F9C008F1E0A08F51E0A08CD1E0A0875160A08A7
:102FAC00BF1E0A08911E0A08A11E0A08EF1E0A0875
:102FBC00B11E0A08891E0A0800000000000000006B
:102FCC00B7200A08AD200A08A3200A0815200A0811
:102FDC0097200A088B200A08C1150A08C9150A0887
:102FEC007F200A0877200A086D200A0863200A0847
:102FFC001F200A0800537431395F53705F6D616B89
:10300C00655F7368617265645F74616700000000DE
:10301C005C300A0801300A08BC300A0830300A0853
:10302C00E0300A084E31305F5F6378786162697610
:10303C003131375F5F636C6173735F747970655F97
:10304C00696E666F450000000000000024300A081D
:10305C0015250A0829250A08C1260A08C1260A08C6
:10306C0093250A08D5240A087B250A083D250A0859
:10307C0007250A08BC300A088C300A0824300A08D4
:10308C004E31305F5F637878616269763132305FE0
:10309C005F73695F636C6173735F747970655F698B
:1030AC006E666F45000000000000000080300A08CA
:1030BC00BD250A08D1250A08C1260A08C1260A0816
:1030CC0093250A08D5240A0895260A0821260A08F9
:1030DC00E5250A085C300A08E8300A08537439748C
:1030EC007970655F696E666F005245454E54206D70
:1030FC00616C6C6F632073756363656564656400F4
:10310C002F746D702F6A656E6B696E732D47434318
:10311C002D31302D706970656C696E652D34385F9A
:10312C0032303230313132345F3136303631383042
:10313C003633392F7372632F6E65776C69622F6E1D
:10314C0065776C69622F6C6962632F7374646C6948
:10315C00622F72616E642E63000000000D040A0879
:10316C0071150A0861160A0801170A08B1180A082D
:10317C00D51D0A08C1200A0821240A0800000000F5
:04318C00000000003F
:04319000000000003B
:10319400F92D0A08002E0A08092E0A08C0A807B942
:1031A400D82D0A080000000000000000000059406B
:1031B4000200000001000000010000000000000007
:1031C400000000000070A7405C2F0A0840000020A7
:1031D40000000000000000000000000000000000EB
:1031E40000000000000000000000000000000000DB
:1031F40000000000000000000000000000000000CB
:1032040000000000000000000000000000000000BA
:1032140000000000000000000000000000000000AA
:10322400000000000000000000000000000000009A
:04323400C4050020AD
:10323800FFFFFFFF00000102030405060708090A53
:103248000B0C0D0E0F101112131415161718191A4E
:083258001B1C1D1E1F20280095
:043260007856341256
:04000005080A001CC9
:00000001FF
