:02000004080AE8
:1000000000000A0850330A08000006000600050137
:080010000402E50C00000000F1
:040018001C2E0A0888
:10001C0009480A4908B5884205D0094A824202D0EB
:10002C00121A02F013FE0748074A0021121A02F0B6
:10003C001BFE064808BD00BF0000002064320A0801
:10004C00C4000020C8000020E5050020E5050020C4
:10005C0070B502F055F90025054E064CA41BA408FA
:10006C00AC4200D170BD56F8043B98470135F7E718
:10007C003C320A085C320A0800F0C0B908B500F03E
:10008C00D9F8BDE8084002F0F3B800F007BF00F063
:10009C0005BF00F00BBF00F009BF0078B0FA80F08C
:1000AC0040097047012303707047000013B50446E4
:1000BC00044B1B788DF800303C2301F083F820466C
:1000CC0002B010BDC80000202DE9F04107460C46D7
:1000DC0016460025DFF82C80BD4211DA0121B8F854
:1000EC00000002F09AF9204600F010FF0021B8F849
:1000FC00000002F092F9301B00F008FF0135EBE72D
:10010C00BDE8F0815001002038B5046805467CB18B
:10011C006368013B63605BB9236820469B68984722
:10012C00A368013BA3601BB923682046DB68984792
:10013C00284638BDB0B502F1080384B023F007039C
:10014C0002AFADEB030D02AD2846144602F07EFD66
:10015C0000232B55084B2A461B78384607498DF847
:10016C0000304FF4616301F02DF8381DFFF7CCFF20
:10017C000837BD46B0BD00BFC9000020D82E0A0804
:10018C0030B5044687B064200D4600F0BFFE22480F
:10019C0000F0E0FA08B321462A681F4800F055FC2D
:1001AC000446002836D14FF47A7000F0AFFE214699
:1001BC000A2202A801F08DFB029A18496846FFF743
:1001CC0075FF01A8FFF7A0FF02A801F0FAFA124888
:1001DC0007B0BDE8304000F085BA4FF47A7000F0FB
:1001EC0095FE0F4A0F4902A8FFF760FF03A8FFF71F
:1001FC008BFF0D4B0D4A0E491B68126809680648A7
:10020C0000F098FB21462A68034807B0BDE830404F
:10021C0000F01BBC07B030BDD0000020302E0A0807
:10022C00442E0A08D82E0A080400002008000020DA
:10023C00000000202DE9F04F5D4F192087B000F031
:10024C0065FE3C7854B15B4B188802F0FFF800381F
:10025C0018BF0120387007B0BDE8F08F564B574DD2
:10026C00188802F0F3F8564E286000F031FC02F0CA
:10027C00E5FBD6E9002302F0A3FA524BD3E90023A5
:10028C0002F0D4FC002840D0DFF83CA19AF80030F2
:10029C00002B3AD0DFF834914D494E4801F008FB61
:1002AC00CB46DFF83481D8F800204A4BA24206DD59
:1002BC0018465BF8041B01F036FB0134F3E7474B9F
:1002CC0044491C6802A801F0E8FA204602A9FFF78D
:1002DC0057FF02A801F075FA0024D8F80030A342A9
:1002EC000CDD4FF4FA72FA2159F8040BFFF7ECFE0F
:1002FC004FF42F7000F00AFE0134EEE700238AF869
:10030C000030C8F8003001233B7000F0E1FB02F034
:10031C0095FBD6E9002302F053FA314BD3E90023C5
:10032C0002F084FC20B32F4F3B780BB30A222E4CE7
:10033C0002A8236893FBF2F102FB113101F0C9FA18
:10034C00029A2A496846FFF7B1FE01A8FFF7DCFEC6
:10035C0002A801F036FA204A206813681B4941F8BC
:10036C002300013313600023214A3B702360136088
:10037C00204C2A6823689A423FF46DAF00F0A8FB2A
:10038C0002F05CFB0122104BC6E900011A701A4AFC
:10039C002B6811688B4208D0012B136005D11249D0
:1003AC000A6801320A600F4A1370236053E700BFDA
:1003BC004000002044000020380000208001002074
:1003CC00480100205000002044010020540100206E
:1003DC00432E0A08340100207C0100202800002054
:1003EC00300000204501002030010020572E0A0863
:1003FC00CC0000203C000020480000201FB5194B09
:10040C000221188801F0F8FF174B0121188801F020
:10041C00F3FF164B164A1B7816498DF8003002A8CC
:10042C004FF4616300F0CEFE03A8FFF76DFE124B94
:10043C00124A13491B6812680968124800F07AFACC
:10044C00104800F087F950B10F4A104902A8FFF785
:10045C002DFE03A8FFF758FE05B05DF804FB0C4A0F
:10046C00F3E700BF3800002050010020C900002035
:10047C005F2E0A086E2E0A080400002008000020D7
:10048C0000000020D0000020732E0A08832E0A08DA
:10049C00882E0A0813B5002401220A4B0A491C7045
:1004AC000A4B0B481A7001F0D6F90A4B40F25B72FA
:1004BC00009309494FF4E1630194084800F054F8A3
:1004CC0002B010BDC8000020432E0A08C90000204D
:1004DC003401002041010A080C000020D00000204B
:1004EC0091F85C3010B50446016013B1886D00F0D2
:1004FC00C7FA204610BD10B50368044693F85C207B
:10050C0012B1986D00F0C4FA204610BDF8B51F4624
:10051C009DF8243004460D46164623B1012358306D
:10052C00037100F0A5FA089B23630023636306B1F3
:10053C00A66425B1294604F1380001F0B9F9069BEF
:10054C00E0692365079BA4F84C70FF2BB8BFFF2311
:10055C00A4F8543008B1FFF79CFDB4F85400FFF731
:10056C0096FDE061F8BD00002DE9FF410446002531
:10057C00984617460E4601F02BFC0D49E56104F137
:10058C00380001F068F99DF82C30204603930A9B43
:10059C002A46CDE901830F2331460093A5643B46DF
:1005AC0084F85C50FFF7B2FF204604B0BDE8F08140
:1005BC00432E0A0810B50446204601F01FFB002804
:1005CC00FAD0204601F0F3F9C0B210BD2DE9F04786
:1005DC004FF0010805468946FFF7ECFF002744461B
:1005EC00EB691870EB6993F800A00AF0F00A284642
:1005FC00FFF7E0FF2646EB690134985500F07F03C6
:10060C0003FB08770306A4B2BFB24FEAC818EED4B6
:10061C00631EBAF1300F89F800301ED12846FFF75F
:10062C00C9FFEB6918552846FFF7C4FFF41CEB69AA
:10063C000236B6B298550226A4B2B6B2BE420ED25B
:10064C002846FFF7B7FFB5F854300136A34284BFF4
:10065C00EB6918550134A4B2EFE70026EDE7B5F8C5
:10066C005430A3422CBF20460020BDE8F0872DE972
:10067C00F34115461E461A4607460023964602F0DD
:10068C007F0CBEF17F0F02A888BF4CF0800C5C1C65
:10069C00BEF17F0F03444FEAD212E4B203F804CC4C
:1006AC001ED8C4F10403C4F10500E954224601A983
:1006BC00284405EB030802F0C9FA721C2244414697
:1006CC00384601F060F9054600F002FA0134786210
:1006DC003444A8B2231A5842584102B0BDE8F08104
:1006EC002346CBE713B50446014601A8FFF7F8FEF5
:1006FC00E022E36920461A700022E3695A70E1692E
:10070C00022201F040F9204601F0B2FA00F0E0F9C3
:10071C00C4E9090001A8FFF7EEFE02B010BD0233D8
:10072C00F0B5054698B20023CE5C9CB24EB1B5F83C
:10073C0054C05F1C844504D9441C16543B46A0B2DB
:10074C00F2E799B2411A0A44210A02F8021C02F893
:10075C00013CF0BD38B5044601F0E1FA002814BFA5
:10076C000125002502D1204601F082FA284638BD29
:10077C002DE9F04788B00446894617461E46DDF839
:10078C0040809DF850A0FFF7E5FF0546002840F09B
:10079C00CD80214601A8FFF7A3FEA16C002940F0F3
:1007AC0088802B462046B4F84C20A16B01F028FB26
:1007BC0000287AD0012323849DF85430E269042B5D
:1007CC005B4B40F08180186899889B79ADF80C10D0
:1007DC008DF80E300290C2F805009DF80E30BDF871
:1007EC000C10D3720C23A2F80910B8F1000F00F012
:1007FC0081809DF848009DF84420400140EAC200E9
:10080C0040F00600C0B2BAF1000F01D100F0FD00BB
:10081C001FB1002E70D140F08000E269D054226DDF
:10082C00E169581C12120A54E169206D9A1C885413
:10083C00033349462046E269FFF771FF0346B8F1DE
:10084C00000F0BD04146E2692046FFF768FFE269D2
:10085C00034613992046FFF762FF034667B13946FA
:10086C002046E269FFF75BFF03462EB13146204676
:10087C00E269FFF754FF0346053B1021E2699BB286
:10088C002046FFF7F4FE00F023F94FF47A76C4E922
:10089C000900204601F0B2F988BB00F019F9A36AEF
:1008AC00C01A236D73439842F3D9204601F0E0F946
:1008BC0035E002A800F098FE2B462046B4F84C20F8
:1008CC0002A901F02BF973E7D3F80700D3F80B104A
:1008DC000DF1080CACE80300DB7B8CF8003002ABAC
:1008EC0003CBC2F80500C2F809109CF80030537312
:1008FC000E237AE7022086E740F0C0008DE7204601
:10090C0002A9FFF763FE0428CFD1E369DE78002E3D
:10091C00CBD100F0DDF80125A06284F82C6001A891
:10092C00FFF7E9FD284608B0BDE8F0870025F9E798
:10093C00E72E0A0810B54FF0040C012486B0CDE95F
:10094C00044C0024CDE90244CDE90044FFF710FF2C
:10095C0006B010BD2DE9F74FDDF83C8004468B4600
:10096C0016461F469DF834509DF83890FFF7F2FE5E
:10097C008246002851D0214601A8FFF7B1FD002185
:10098C00B4F85420E06902F06FF90523594620466B
:10099C00E269FFF7C4FE6B1E012B15D8218CE369AD
:1009AC00013189B22184090A1954421CE369218C52
:1009BC0092B2023080B29954B8F1000F04D0238C5B
:1009CC005A1C2284A8F8003000210B188F42E269CF
:1009DC009BB20AD9B4F854C09C4506D916F801C08C
:1009EC00013102F803C089B2EFE79DF830100029FD
:1009FC000CBF30213121B9F1000F01D041F00801B9
:100A0C00022D0ED141F00401053B20469BB2FFF7AD
:100A1C002EFE824601A8FFF76EFD504603B0BDE8DE
:100A2C00F08F012D08BF41F00201EDE71FB5089CC6
:100A3C000394002402949DF81C4001949DF81840E6
:100A4C000094FFF787FF04B010BD7FB50546104634
:100A5C0014460E4602F06BF900220346CDE9012242
:100A6C000092314622462846FFF7E0FF04B070BDE5
:100A7C0008B5024B1B681B6B019308BDD00106081F
:100A8C0008B5024B1B689B6B019308BDD00106088F
:100A9C0008B5024B1B681B6C019308BDD0010608FE
:100AAC0008B5024B1B685B6C019308BDD0010608AE
:100ABC0008B5024B1B689B6C019308BDD00106085E
:100ACC0008B5024B1B685B68019308BD9C010608C6
:100ADC0008B5024B1B685B69019308BD9C010608B5
:100AEC0008B5024B1B689B68019308BDB001060852
:100AFC0008B5024B1B68DB68019308BDB001060802
:100B0C0008B5024B1B681B69019308BDB0010608B0
:100B1C0008B5024B1B685B69019308BDB001060860
:100B2C0008B5024B1B681B6E019308BDAC0106088F
:100B3C0008B5024B1B685B6E019308BDAC0106083F
:100B4C0008B5024B1B689B6E019308BDAC010608EF
:100B5C0008B5024B1B68DB6E019308BDAC0106089F
:100B6C0008B5024B1B681B6F019308BDAC0106084E
:100B7C0008B5024B1B685B6F019308BDAC010608FE
:100B8C0008B5034B1B68D3F88030019308BD0000F7
:100B9C00AC01060808B5024B1B681B68019308BD25
:100BAC00BC01060808B5024B1B685B68019308BDC5
:100BBC00BC01060808B5024B1B689B68019308BD75
:100BCC00BC01060808B5024B1B68DB68019308BD25
:100BDC00BC01060808B5024B1B681B69019308BDD4
:100BEC00BC01060808B5024B1B681B6A019308BDC3
:100BFC00BC01060808B5024B1B681B6B019308BDB2
:100C0C00BC01060808B5024B1B685B6C019308BD60
:100C1C00BC01060808B5024B1B68DB69019308BDD3
:100C2C00B401060808B5024B1B681B6A019308BD8A
:100C3C00B401060808B5024B1B685B6A019308BD3A
:100C4C00C401060808B5024B1B689B6A019308BDDA
:100C5C00C401060808B5024B1B68DB6A019308BD8A
:100C6C00C401060808B5024B1B681B6B019308BD39
:100C7C00C401060808B5024B1B685B6B019308BDE9
:100C8C00C401060808B5024B1B689B6B019308BD99
:100C9C00C401060808B5024B1B681B6C019308BD08
:100CAC00C401060808B5024B1B681B6E019308BDF6
:100CBC00C401060808B5024B1B681B68019308BDEC
:100CCC00D801060808B5024B1B681B69019308BDC7
:100CDC00D801060808B5024B1B685B69019308BD77
:100CEC00D801060808B5024B1B689B69019308BD27
:100CFC00D801060808B5024B1B68DB69019308BDD7
:100D0C00D801060808B5024B1B681B6A019308BD85
:100D1C00D801060808B5024B1B685B6C019308BD33
:100D2C00C001060808B5024B1B689B6C019308BDFB
:100D3C00C001060808B5024B1B681B6D019308BD6A
:100D4C00A801020808B5024B1B685B68019308BD3B
:100D5C00A401060808B5024B1B685B69019308BD2A
:100D6C00A401060808B5024B1B68DB6C019308BD97
:100D7C00A401060808B5024B1B685B6D019308BD06
:100D8C00A401060808B5034B1B68D3F890300193F7
:100D9C0008BD0000A401060808B5034B1B68D3F876
:100DAC009C30019308BD0000A401060808B5024B55
:100DBC001B685B69019308BDCC01060808B5024BA2
:100DCC001B681B6A019308BDCC01060808B5024BD1
:100DDC001B68DB6B019308BDCC01060808B5024B00
:100DEC001B685B68019308BDC801060808B5024B77
:100DFC001B689B68019308BDC801060808B5024B27
:100E0C001B68DB68019308BDC801060808B5024BD6
:100E1C001B681B69019308BDC801060808B5024B85
:100E2C001B685B69019308BDC801060808B5024B35
:100E3C001B689B69019308BDC801060808B5024BE5
:100E4C001B68DB69019308BDC801060808B5024B95
:100E5C001B681B6A019308BDC801060808B5024B44
:100E6C001B681B6B019308BDC801060808B5024B33
:100E7C001B685B6B019308BDC801060808B5024BE3
:100E8C001B681B6C019308BDC801060808B5024B12
:100E9C001B685B6C019308BDC801060808B5024BC2
:100EAC001B681B68019308BDA001060808B5024B1E
:100EBC001B685B68019308BDA001060808B5024BCE
:100ECC001B689B68019308BDA001060808B5024B7E
:100EDC001B68DB6A019308BDA001060808B5024B2C
:100EEC001B681B6B019308BDA001060808B5024BDB
:100EFC001B681B6C019308BDA001060808B5024BCA
:100F0C001B685B6C019308BDA00106080021FFF76C
:100F1C0021BF10B5836804460BB901F035FBC368DB
:100F2C009847A3681BB103222146204698472046C8
:100F3C00BDE810401021FFF7AEB870470020704795
:100F4C0010B504461021FFF7A6F8204610BD08B5D1
:100F5C00FFF7F6FF08BD10B58368044613B10322F2
:100F6C0001469847204610BD002230B54FF69C74C0
:100F7C00026084808D888C800C68858004600A6097
:100F8C0030BD10B504460068FFF790FF204610BD39
:100F9C0038B5C468F4B12378022B03D104F10C00EA
:100FAC00FFF7EFFF656835B12846FFF7D4FF102136
:100FBC002846FFF770F8A56835B12846FFF7CBFF38
:100FCC0010212846FFF767F82046BDE83840142169
:100FDC00FFF761B838BD0B6803604B68436013B111
:100FEC005A6801325A60704737B5044668460D4658
:100FFC00FFF7F1FF009B019A23600023626001A8B8
:10100C0001930093FFF780F835B1281DFFF77CF8AA
:10101C0008212846FFF73FF8204603B030BD13B532
:10102C006C460B46024603C884E8030093E80300B1
:10103C0082E8030094E8030083E8030002B010BDCB
:10104C00826810B50AB901F09FFAC368BDE8104078
:10105C00184708B5006800F11001FFF7F1FF08BD53
:10106C00826810B50AB901F08FFAC368BDE8104068
:10107C00184708B5006800F11001FFF7F1FF08BD33
:10108C0038B500230446036010200D46FEF7FDFF23
:10109C0028B10123C0E90133024BC5600360206015
:1010AC00204638BD002F0A0838B5002383608B68B2
:1010BC0004460D462BB102229847EB68E360AB68FF
:1010CC00A360204638BD0000F0B589B004686846BE
:1010DC00FFF74AFF4FF00203D4E84F2F002A03D149
:1010EC00C4E8413F0029F7D125D104F10C0569462C
:1010FC002846FFF739FF0123BFF35B8F6370002095
:10110C00BFF35B8F04F1080353E8006F43E8000260
:10111C00002AF9D1BFF35B8F6EB1FFF723FE78B1D4
:10112C0029463046FFF78CFF3046FFF714FF10219D
:10113C003046FEF7B0FF6846FFF723FF09B0F0BD5D
:10114C00314602A8FFF7B0FFE068B4F9105008B1BF
:10115C0001F0D2FD06901020ADF81C50FEF795FF63
:10116C000546E8B1002787601820FEF78EFF04467D
:10117C0088B10146876002A8FFF751FF049BA26863
:10118C00A360059B0492E26806A9E36004F11000D9
:10119C000592FFF7E9FE084B2C60EB60074BAB6048
:1011AC0006A8FFF7EEFE02A8FFF7D5FE002229469F
:1011BC000348FFF7DFFDB7E75F100A08E9120A08DA
:1011CC001F0F0A082DE9F0478AB005460C46174652
:1011DC0098469DF84890FFF7E9FD07AE824638BB6C
:1011EC004FF62E73059005A93046ADF81830FFF771
:1011FC00BBFE1420FEF749FF044648B102230370DE
:10120C000123C0E901AA437031460C30FFF7ACFE54
:10121C002846214640F8044BFFF732FF3046FFF7D3
:10122C00B0FE05A8FFF7ADFE28460AB0BDE8F08772
:10123C000C234FF0000A1420CDE908AA0793FEF7FF
:10124C0024FF014628B1C0E901AA80F800A080F86B
:10125C0001A004A80391FFF713FF1F4B082008936C
:10126C00FEF713FF824610B103A9FFF7B4FE424606
:10127C003946204600965FFA89F3CDF824A0FFF793
:10128C009DFDB8B9039B5B7803F0FF0293B94FF651
:10129C009C7305A903A80592ADF81830FFF714FF4D
:1012AC0005A8FFF76EFE05A80999FFF79DFE06A895
:1012BC00FEF72AFF03A905A8FFF78DFE059B069AEA
:1012CC002B6000236A6006A806930593FEF71CFFAB
:1012DC0004A8FEF719FFA7E765130A08012AF8B559
:1012EC00054603D10B6803600020F8BD022A10D01C
:1012FC00032AF9D10468002CF6D004F11000FFF792
:10130C0040FE2046FFF727FE18212046FEF7C3FEBD
:10131C00EAE718200E68FEF7B8FE044650B13146D5
:10132C00FFF7C2FE3069B6F9147008B101F0E4FCA5
:10133C002061A7822C60D7E738B5002383608B68C7
:10134C0004460D462BB102229847EB68E360AB686C
:10135C00A360204638BD0000F0B5044689B00D46A8
:10136C0001A81146FFF740FEA4B124B21DB12846D6
:10137C0001F0C2FC054601A803A90395ADF8104085
:10138C00FFF7A2FE03A8FFF7FCFD02A8FEF7BCFEC8
:10139C0009B0F0BD0123019DD5E84F2F002A03D1E0
:1013AC00C5E8413F0029F7D1EFD12B73BFF35B8F19
:1013BC006B70BFF35B8F2B1D53E8006F43E800424B
:1013CC00002AF9D1BFF35B8F002EDED02046FFF749
:1013DC00C9FC074660B1304605F10C01FFF740FE31
:1013EC003046FFF7B8FD10213046FEF754FECCE72F
:1013FC00314603A8FFF7A0FF2B7B10208DF81C3083
:10140C00FEF743FE0546D0B187601420FEF73DFE83
:10141C00044678B10146876003A8FFF700FE059BE0
:10142C00A268A360069B0592E268E3609DF81C30FD
:10143C0006922374064B2C60EB60064BAB6003A842
:10144C00FFF789FD002229460348FFF793FCC7E705
:10145C007F100A0869140A081F0F0A08012A70B5C0
:10146C00044603D10B680360002070BD022A0CD027
:10147C00032AF9D10468002CF6D02046FFF76BFD47
:10148C0014212046FEF707FEEEE714200E68FEF747
:10149C00FCFD054620B13146FFF74EFF337C2B7423
:1014AC002560E1E77047F8B5064615460C468F18DF
:1014BC00BC4206D0336830469B6814F8011B984731
:1014CC00F6E72846F8BD0022007CFFF729BB002177
:1014DC00007CFFF72DBB0021007CFFF731BB002106
:1014EC00007CFFF735BB0021007CFFF739BB10B542
:1014FC0004461421FEF7CFFD204610BD10B54FF465
:10150C007A73044608460021C4E90113034B1146C3
:10151C0023602074FFF734FB204610BD1C2F0A08F3
:10152C007047F8B50E46002400F10807051D17F8A2
:10153C00011D0A22304600F012F9AF42044401D1D9
:10154C002046F8BD002CF2D02E21304600F004F9D4
:10155C000444ECE710B504461821FEF79CFD204628
:10156C0010BD000010B50446044B1122002140F8B8
:10157C00043B01F079FB204610BD00BF442F0A0844
:10158C000346074A10B543F8042B01F1100251F839
:10159C00044B914243F8044BF9D10A781A7010BDF0
:1015AC00442F0A08024AC0E9002104220275704740
:1015BC00442F0A0810B59DF8084044EA032404237C
:1015CC0044EA024444EA01644460037510BD00001F
:1015DC0013B5044C04609DF810400094FFF7EAFF2B
:1015EC0002B010BD442F0A0807B5064B0360CB7838
:1015FC0000938B784A780978FFF7DCFF03B05DF82D
:10160C0004FB00BF442F0A08014B024A1A607047C2
:10161C0084010020502F0A08002340681A46FFF767
:10162C00DDBB002202214068FFF7E8BB00224068C6
:10163C001146FFF7DBBB002240681146FFF7E6BB03
:10164C00002340681A461946FFF7E8BB00234068A0
:10165C001A461946FFF7EABB00214068FFF70EBC9B
:10166C0000214068FFF712BC0022406881F00101A4
:10167C00FFF7E4BB00224068FFF7F0BB0022406894
:10168C001146FFF7F3BB002240681146FFF7DEBBA3
:10169C0070B515468EB0044608A8FFF763FF1122FB
:1016AC00002103A801F0E0FA0026284601F03FFBD8
:1016BC000A4B009681B25B68284603AAFFF732FBFF
:1016CC0030B131462046FFF76DFF20460EB070BD9D
:1016DC00204603A9FFF754FFF7E700BFE8040020FA
:1016EC00034A044B042814BF10461846704700BF29
:1016FC0088010020E8040020024B034A1A600022F3
:10170C005A607047880100205C2F0A08F8B506461D
:10171C000D4600248F18BD420CD0336830469B68B0
:10172C0015F8011B9847031E01DB1C44F3E7002C42
:10173C0008BF1C462046F8BD70B505460C46084649
:10174C0049B101F0F4FA2B68024621462846BDE85F
:10175C007040DB68184770BD03689B68184700230E
:10176C00012A98BF0A2230B58BB00C468DF8243074
:10177C0009A92546B4FBF2F404FB1253DBB2092B86
:10178C0094BF30333733DBB2AA4201F8013DF0D9B4
:10179C00FFF7D2FF0BB030BD0022014B9A607047AF
:1017AC009001002070B5002604460D4640F8086FE5
:1017BC00FFF776F928462570FFF72CFA204666606D
:1017CC0070BD10B504460068FFF770FB204610BDD5
:1017DC0010B50446006808B1FFF768FB0023C4E9A4
:1017EC000133236010BD38B504460D460068013145
:1017FC00FFF764FB10B1C4E90005012038BD10B53A
:10180C000368044623B143688B4201D3012010BD09
:10181C002046FFF7E8FF0028F9D0A368002BF5D18C
:10182C0022681370F2E770B50E4611460446154651
:10183C00FFF7E5FF20B92046FFF7CAFF204670BD31
:10184C002A4631462068A56001F000FA0021226882
:10185C00A368D154F2E738B5002304460D46C0E91D
:10186C0000338360037339B1084601F060FA2946EE
:10187C0002462046FFF7D7FF204638BD884210B5F8
:10188C000B46044604D0096821B19A68FFF7CBFFD8
:10189C00204610BDFFF79CFFFAE7002310B5044665
:1018AC00C0E9003383600373FFF7E8FF204610BDE7
:1018BC0038B505460C4649B1084601F038FA2146C0
:1018CC0002462846FFF7AFFF284638BDFFF780FFDA
:1018DC00FAE710B5002304468AB0C4E90033A360CC
:1018EC002373084601A900F077FC204601A9FFF7F5
:1018FC00DFFF20460AB010BD70B505460E4609B98B
:10190C00002070BD6AB1846814442146FFF777FF4C
:10191C000028F5D02868AB683146184401F0E4F98A
:10192C00AC600120EDE713B50A220446084669466F
:10193C0000F052FC684601F0FAF96946024620466E
:10194C00FFF7DAFF02B010BD02220020044B1A6030
:10195C00044B054AC3E900009A60FFF7F3B900BFD6
:10196C00AC010020A00100200000FFFF13B50368AC
:10197C008DF80710DC6B012247F230530DF1070193
:10198C00A04702B010BD10B40368DC6B47F23053B3
:10199C00A44610BC604713B5134602688DF80710B7
:1019AC00D46B0DF107010122A04702B010BD10B598
:1019BC0043690446B3F88620B3F884309A4208D0C1
:1019CC006369B3F88420511CA3F88410134418796C
:1019DC0010BD03681B6998470028F1D14FF0FF3008
:1019EC00F6E770477047000010B50446064B0846F2
:1019FC00994204F10C0404D000F0CAFD002808BF81
:101A0C000024204610BD00BFC82F0A0810B504469C
:101A1C00AC21FEF740FB204610BDAC21FEF73BBBD2
:101A2C0038B50B4B8469054603607CB16368013B98
:101A3C0063605BB9236820469B689847A368013BA9
:101A4C00A3601BB923682046DB689847284638BD3D
:101A5C00D82F0A0810B50446FFF7E2FF20461C21D8
:101A6C00FEF719FB204610BD70B5044606464D69BD
:101A7C00044B8C3544F8043B0FCD0FC42B68304617
:101A8C00237070BD442F0A0810B543690446B3F89F
:101A9C008620B3F884309A4205D06369B3F8842069
:101AAC001344187910BD03681B6998470028F4D1BA
:101ABC004FF0FF30F6E7F8B543691746B3F88620C8
:101ACC00B3F8843005469A420E4616D06969304602
:101ADC00B1F88430B1F88640E41ABC4228BF3C46C9
:101AEC0004332246194401F0B1F86A69B2F8843023
:101AFC002344A2F884302046F8BD03681B6998473C
:101B0C000028E3D14FF0FF34F5E700234269A2F837
:101B1C0084304269A2F88630704700002DE9F0430A
:101B2C001F4603688BB0DB6A05460C461646984781
:101B3C003846FFF7D5FD0368DB689847002854D07A
:101B4C0033460622012102200097D5F81480FFF7B6
:101B5C0031F82023C8F800004FF00008CDE9023816
:101B6C006B6901201B6823490193234B02AA009344
:101B7C004346FFF7DFF86B691868FFF713F8002886
:101B8C0033D02846FFF7C1FF0223ADF80830E379C4
:101B9C0076BA8DF80C30A3794FF4FA508DF80D30DD
:101BAC006379ADF80A608DF80E3014F8043F8DF8A7
:101BBC000F30FFF7AFF86B6906461022186802A9C0
:101BCC00FFF700F881463046FFF7A4F80FCC6E699A
:101BDC008C360FC6236833702F61B9F1000F07D014
:101BEC002B682846DB6A984740460BB0BDE8F0836B
:101BFC000120FAE7902F0A08972F0A0838B5426996
:101C0C000446B2F886302BB1B2F884209A4201D146
:101C1C00FFF77BFF2069FFF763FD0368DB689847DC
:101C2C00F8B163691868FEF7BDFFD0B16069B0F810
:101C3C0086107F2915D8051DC1F18002002300688C
:101C4C002944FEF7C7FF00280BDD6369B3F8862033
:101C5C000AB9A3F884206369B3F886201044A3F86A
:101C6C0086006369B3F88600B3F88430C01A38BDB7
:101C7C0038B5436904461868FEF794FF18B16369D8
:101C8C001868FEF7AFFF6569FEF7B4FF286060695E
:101C9C00112200218C3000F0E7FF2046BDE83840CF
:101CAC00FFF733BF10B5436904461868FEF77AFF97
:101CBC0008B9002010BD2069FFF712FD0368DB682E
:101CCC0098470028F5D063691868FEF763FFB0FAEF
:101CDC0080F04009EEE708B5FFF7E4FF003818BFC5
:101CEC00012008BD2DE9F3410027476004460D464D
:101CFC0016469846FFF7D6FF70B1CDE900876069AC
:101D0C003B46324629460068FEF77CFF002800DA85
:101D1C00606002B0BDE8F0814FF0FF30F8E770B5BD
:101D2C000546FFF7BFFFE8B96B69B3F88610B3F847
:101D3C008420914216D11868FEF734FF08B90020B0
:101D4C0070BD6B691868FEF725FF01280446F6D1B3
:101D5C002B6828461B69984730B92B682846DB6AE4
:101D6C009847ECE70120EBE72046E9E7002310B5A4
:101D7C0004460160C0F884308830FFF7F3FB20463E
:101D8C0010BD0000F8B54FF47A720023C0E901329F
:101D9C000D4A0361026043610446AC200E46FEF717
:101DAC0074F9051E05F10C0708D00123C5E90133B0
:101DBC00064B314638462B60FFF7D8FF2046C4E966
:101DCC000575FFF7A2FEF8BDD82F0A08B42F0A0834
:101DDC0010B50446FEF70EFF01462046FFF7D2FF72
:101DEC00204610BD10B504460068FEF7DBFE10B1AE
:101DFC002068FEF7F7FE204610BD0C30FFF7F2BF4F
:101E0C002DE9F0431F4603688FB0DB6A06460D468A
:101E1C00904698471348FFF70EFCF0B102A8FFF765
:101E2C00A1FB284600F083FF002481B23B462846E4
:101E3C00009403AAFEF776FF90B9336809ADD3F886
:101E4C002090094B03AC08930FCC0FC52368424676
:101E5C002B7030463B4608A9C8470FB0BDE8F0834D
:101E6C002046FAE788010020442F0A08024B1A6822
:101E7C00024B1A60704700BF58000020B0010020D0
:101E8C0070474174704708B5007CFEF703FF20EAE9
:101E9C00E07008BD08B5007CFEF7D4FE20EAE070C7
:101EAC0008BD08B5007CFEF7DDFE40EAE07008BD19
:101EBC0008B5007CFEF7CEFE40EAE07008BD007C61
:101ECC00FEF7D8BE70B5467C04460D462EB12946A9
:101EDC00207CBDE87040FEF7ADBE007CFEF7DAFE5C
:101EEC000028F4DC304670BD10B504461421FEF712
:101EFC00D2F8204610BD000010B54FF47A7304469A
:101F0C00084611460022C4E90123044B20742360C7
:101F1C0001236374FEF7C6FE204610BD40300A084C
:101F2C00417470477047704708B50021007CFEF77C
:101F3C00D9FE40EAE07008BD08B50121007CFEF72F
:101F4C00D1FE40EAE07008BD08B5007CFEF7C2FE89
:101F5C0020EAE07008BD08B5007CFEF7B3FE20EA6D
:101F6C00E07008BD38B50446007C0D46FEF7B2FEA5
:101F7C00002801DC607C28B12946207CFEF7BAFEE3
:101F8C0020EAE07038BD007CFEF7BCBE10B50446FC
:101F9C001421FEF780F8204610BD704710B54FF4A1
:101FAC007A73044608460021C4E90113044B2074DB
:101FBC002360012311466374FEF77CFE204610BD9E
:101FCC0070300A0810B504461422002100F04CFEB3
:101FDC00054B20466360054BE36040F201132381FF
:101FEC008123238210BD00BFE4010020E502002004
:101FFC0030B50E4D87B001A8FFF7E4FF2978BFF389
:10200C005B8F11F001040ED12846FEF746F850B153
:10201C00214601AA0648FFF7C1FF2846FEF742F801
:10202C00044800F00DFE024807B030BDB40100209A
:10203C00BC010020311F0A0810B5044614220021EF
:10204C0000F012FE054B20466360054BE36040F246
:10205C00011323818123238210BD00BF660300205E
:10206C006704002010B50E4C86B001A8FFF7E4FF02
:10207C002378BFF35B8FDB070ED42046FEF70DF8F9
:10208C0050B1012101AA0748FFF788FF2046FEF74F
:10209C0009F8054800F0D4FD024806B010BD00BF99
:1020AC00B8010020D0010020A71F0A0800224068B8
:1020BC001146FEF7ABBEF0B5154689B011220E469F
:1020CC000446002103A800F0CFFD284600F02FFEA7
:1020DC00002781B273682846009703AAFEF722FEF8
:1020EC0030B139462046FFF75DFA204609B0F0BD05
:1020FC00204603A9FFF744FAF7E70022406811468F
:10210C00FEF7A4BE002240681146FEF7AFBE0022C7
:10211C004068FEF7A3BE0022406881F00101FEF783
:10212C008DBE002340681A461946FEF77FBE002379
:10213C0040681A461946FEF771BE002240681146E7
:10214C00FEF754BE002202214068FEF757BE002362
:10215C0040681A46FEF742BE0422024B5A60024AFD
:10216C001A607047E8040020A0300A0810B5044635
:10217C0000F0DDFD431E20462344834206D902783D
:10218C00197800F8011B03F80129F6E710BD70B5AA
:10219C000C46911E22291DD8254630B930222344E5
:1021AC009D4210D205F8012BFAE7B0FBF2F602FBC8
:1021BC001600C1B2092894BF30315731C9B230462C
:1021CC0005F8011BE9E7002320462B70FFF7CEFF33
:1021DC00204670BD0020FCE738B5031E0C461546A2
:1021EC000DDA2D22B3F1004F0CBF184658420123D3
:1021FC000A702A461944FFF7CAFF204638BD01234E
:10220C00F9E70000014B1860704700BF5C0000202C
:10221C0008B5134B43B1FFF7EBFE03681B699847F6
:10222C00002801DDAFF300800E4B43B100F086F9BE
:10223C0003681B699847002801DDAFF300800A4B47
:10224C000BB1AFF30080094B43B1FFF70BFF0368F1
:10225C001B699847002801DDAFF3008008BD00BF63
:10226C000000000000000000000000000000000062
:10227C0008B5FFF7CDFFFEF72BFC014B186008BD2E
:10228C00080500200548064A08B5121A054900F051
:10229C00DDFC054B054A1A6008BD00BF004002403A
:1022AC000440024060320A08004002401E1C279A7B
:1022BC00002307B51A466FF077010093FEF76CFD0B
:1022CC0003B05DF804FB000007B543880A2B08D067
:1022DC00502B0BD1094B1B684BB103B05DF804EBD1
:1022EC001847FFF7E5FF03B05DF804FB00231A461F
:1022FC006FF077010093FEF74FFDF4E7F404002034
:10230C00002110B51148FEF7F9FD114B1A68114B5D
:10231C009A420CBF012200220F4B1A7001D0FFF71A
:10232C00B1FFFEF7CDFB044600F0A6FC0B4B13B13E
:10233C002046AFF3008000210848FEF747FDBDE8BA
:10234C00104000210648FEF71DBD00BF11220A08EF
:10235C00004002401E1C279AF004002000000000E0
:10236C00D5220A08024B986808B1FEF7A1BB70474A
:10237C00FC040020172870B5044601D9002070BD5C
:10238C00A0F10D03022B0BD9012824D800F088F8FA
:10239C000021007CFEF7ECFB80F00100C0B2EEE700
:1023AC00124E3178BFF35B8F11F001050DD1304621
:1023BC00FDF773FE48B129460D48FFF7F3F9304697
:1023CC00FDF770FE0B4800F03BFC094B1878FEF74C
:1023DC0029FC0028D2D1123C012C05D800F0AEF813
:1023EC00007CFEF74FFCD7E70120C8E7F80400207B
:1023FC00FC04002071230A08172838B504460D4642
:10240C000AD8FF2908D0FFF7B5FF28B12946204686
:10241C00BDE83840FEF764BB38BD38B504460D4600
:10242C00FEF766FBFF2810D0062804D84D2323FAAC
:10243C0000F0C30709D42046FFF79CFF28B12946BA
:10244C002046BDE83840FEF75BBB38BD10B50446EE
:10245C00FEF74EFB031FDBB2012B08D92046FFF71A
:10246C0089FF20B12046BDE81040FEF751BB00208B
:10247C0010BD704770B514232025084E0446036028
:10248C00314685600561284600F07CF83146606075
:10249C00284600F077F8E060204670BDD4300A087A
:1024AC0030B50E4D87B02978BFF35B8F11F0010466
:1024BC0011D12846FDF7F1FD68B101A8FFF7DAFF4D
:1024CC00214601AA0648FFF719F82846FDF7EAFD50
:1024DC00044800F0B5FB024807B030BD0C050020E5
:1024EC00100500207F240A08002307B51A46194658
:1024FC0000930348FFF76CF803B05DF804FB00BFD2
:10250C00240500207047000070B5142504462A46A7
:10251C00002100F0A9FB25808025074E2846314676
:10252C002581258200F02EF831466060284600F0A7
:10253C0029F8E060204670BDD4300A0830B50E4D45
:10254C0087B02978BFF35B8F11F0010411D12846B5
:10255C00FDF7A3FD68B101A8FFF7D6FF214601AA3C
:10256C000648FFF7C9FC2846FDF79CFD044800F01F
:10257C0067FB024807B030BD3C0500204005002039
:10258C0011250A08FDF783BD08B5FEF79FFC000076
:10259C00014900F0FBB800BFF0300A087FB50024F9
:1025AC001023CDE90234036815469E69CDE9004439
:1025BC006B461268B0479DF8043003F00603062BF7
:1025CC0009BF01202046009B2B6004B070BD009811
:1025DC00904214BF012006207047000010B504463D
:1025EC00024B036000F0CFF8204610BD30310A08D2
:1025FC0010B50446FFF7F2FF20460821FDF74BFD0E
:10260C00204610BD2DE9F041DDF818801F46DDE9AC
:10261C00083498450646154607D1079900F0B6F8D8
:10262C0018B165710020BDE8F0813946304600F0E4
:10263C00ADF80028F6D00123C4F800802571A371F1
:10264C00F0E738B515461C4600F0A0F820B1082379
:10265C00E36006232560237138BD2DE9F041054662
:10266C000C4616461F4600F091F848B9032F07D8C0
:10267C002368324629462046BDE8F0415B6918477D
:10268C00BDE8F08110B50446024B0360FFF7A6FFCE
:10269C00204610BD90310A0810B50446FFF7F2FF32
:1026AC0020460C21FDF7F7FC204610BD2DE9F0412A
:1026BC00DDF81880064690450F4615461C460BD093
:1026CC00B0682A460368CDF818801E6A394623463E
:1026DC00B446BDE8F0416047194600F057F80028B1
:1026EC00EED00620BDE8F0812DE9F14F0D46DDE975
:1026FC000A4BDDE90CA6194681461746984600F0B0
:10270C0045F890B1002D3460377109DB2C44A2459B
:10271C000CBF06240124B471002001B0BDE8F08F79
:10272C000235F9D10123B371F6E7544506D1594668
:10273C00484600F02BF808B17771EDE7D9F808009E
:10274C003A460368CDE90CA6CDE90A4BDC6929466B
:10275C004346A44601B0BDE8F04F60472DE9F04177
:10276C0007460C4615461E46FFF76BFF48B9B8687E
:10277C002A46036821469F693346BC46BDE8F041B2
:10278C006047BDE8F081704700207047814208B572
:10279C000ED0406803782A2B0CD049680B782A2B72
:1027AC0008BF013100F096FAB0FA80F0400908BD7C
:1027BC000120FCE70020FAE781F0004102E000BFB5
:1027CC0083F0004330B54FEA41044FEA430594EAE5
:1027DC00050F08BF90EA020F1FBF54EA000C55EA20
:1027EC00020C7FEA645C7FEA655C00F0E2804FEAF1
:1027FC005454D4EB5555B8BF6D420CDD2C4480EAD3
:10280C00020281EA030382EA000083EA010180EA02
:10281C00020281EA0303362D88BF30BD11F0004F50
:10282C004FEA01314FF4801C4CEA113102D0404286
:10283C0061EB410113F0004F4FEA03334CEA1333C1
:10284C0002D0524263EB430394EA050F00F0A780D9
:10285C00A4F10104D5F1200E0DDB02FA0EFC22FAD4
:10286C0005F2801841F1000103FA0EF2801843FAC8
:10287C0005F359410EE0A5F120050EF1200E012AB9
:10288C0003FA0EFC28BF4CF0020C43FA05F3C018F7
:10289C0051EBE37101F0004507D54FF0000EDCF170
:1028AC00000C7EEB00006EEB0101B1F5801F1BD319
:1028BC00B1F5001F0CD349085FEA30004FEA3C0C1D
:1028CC0004F101044FEA445212F5800F80F09A8013
:1028DC00BCF1004F08BF5FEA500C50F1000041EB17
:1028EC00045141EA050130BD5FEA4C0C404141EB1B
:1028FC000101013C28BFB1F5801FE9D291F0000F16
:10290C0004BF01460020B1FA81F308BF2033A3F1C4
:10291C000B03B3F120020CDA0C3208DD02F1140CBB
:10292C00C2F10C0201FA0CF021FA02F10CE002F1F6
:10293C001402D8BFC2F1200C01FA02F120FA0CFCEF
:10294C00DCBF41EA0C019040E41AA2BF01EB045138
:10295C00294330BD6FEA04041F3C1CDA0C340EDC36
:10296C0004F11404C4F1200220FA04F001FA02F379
:10297C0040EA030021FA04F345EA030130BDC4F137
:10298C000C04C4F1200220FA02F001FA04F340EA2C
:10299C000300294630BD21FA04F0294630BD94F0DD
:1029AC00000F83F4801306BF81F480110134013DC4
:1029BC004EE77FEA645C18BF7FEA655C29D094EA35
:1029CC00050F08BF90EA020F05D054EA000C04BFB3
:1029DC001946104630BD91EA030F1EBF002100209E
:1029EC0030BD5FEA545C05D14000494128BF41F03D
:1029FC00004130BD14F580043CBF01F5801130BDA1
:102A0C0001F0004545F0FE4141F470014FF000002B
:102A1C0030BD7FEA645C1ABF194610467FEA655CDC
:102A2C001CBF0B46024650EA013406BF52EA03357E
:102A3C0091EA030F41F4002130BD00BF90F0000F6C
:102A4C0004BF0021704730B54FF4806404F13204A8
:102A5C004FF000054FF0000150E700BF90F0000F61
:102A6C0004BF0021704730B54FF4806404F1320488
:102A7C0010F0004548BF40424FF000013EE700BF58
:102A8C0042004FEAE2014FEA31014FEA02701FBFE8
:102A9C0012F07F4393F07F4F81F06051704732F01A
:102AAC007F4208BF704793F07F4F04BF41F4002171
:102ABC00704730B54FF4607401F0004521F00041CF
:102ACC001CE700BF50EA010208BF704730B54FF059
:102ADC0000050AE050EA010208BF704730B511F05A
:102AEC00004502D5404261EB41014FF4806404F192
:102AFC0032045FEA915C3FF4D8AE4FF003025FEA18
:102B0C00DC0C18BF03325FEADC0C18BF033202EB9B
:102B1C00DC02C2F1200300FA03FC20FA02F001FAF5
:102B2C0003FE40EA0E0021FA02F11444BDE600BF98
:102B3C004FF0FF3C06E000BF4FF0010C02E000BF7D
:102B4C004FF0010C4DF804CD4FEA410C7FEA6C5C60
:102B5C004FEA430C18BF7FEA6C5C1BD001B050EA03
:102B6C00410C0CBF52EA430C91EA030F02BF90EAEE
:102B7C00020F0020704710F1000F91EA030F58BFAD
:102B8C00994208BF90422CBFD8176FEAE37040F00F
:102B9C00010070474FEA410C7FEA6C5C02D150EAAD
:102BAC00013C07D14FEA430C7FEA6C5CD6D152EA68
:102BBC00033CD3D05DF8040B704700BF844610462D
:102BCC0062468C461946634600E000BF01B5FFF72C
:102BDC00B7FF002848BF10F1000F01BD4DF808EDFC
:102BEC00FFF7F4FF0CBF012000205DF808FB00BFCD
:102BFC004DF808EDFFF7EAFF34BF012000205DF827
:102C0C0008FB00BF4DF808EDFFF7E0FF94BF012073
:102C1C0000205DF808FB00BF4DF808EDFFF7CEFF74
:102C2C0094BF012000205DF808FB00BF4DF808EDB3
:102C3C00FFF7C4FF34BF012000205DF808FB00BF84
:102C4C00002301461A46184600F07AB80A4491420D
:102C5C0000F1FF3300D1704710B511F8014B9142D0
:102C6C0003F8014FF9D110BD03460244934200D141
:102C7C00704703F8011BF9E738B5104B04461D6883
:102C8C00AB6BB3B91820FEF709F90246A86320B95B
:102C9C0042210B4B0B48FEF729F90B490B4BC0E9B2
:102CAC0000130B4B002183600B2383810120C2E9AD
:102CBC0004010022AB6B1C615A6138BD5C00002022
:102CCC00C9310A08E0310A080E33CDAB34126DE677
:102CDC00ECDE050010F8012B11F8013B012A28BF8E
:102CEC009A42F7D0D01A7047034611F8012B03F81B
:102CFC00012B002AF9D17047024B0146186800F0ED
:102D0C0003B800BF5C00002070B5044608460D46B1
:102D1C0000F00DF8461C31462046FEF7DFF804465D
:102D2C0018B132462946FFF791FF204670BD034685
:102D3C0013F8012B002AFBD1181A01387047000038
:102D4C002DE9F843DFF8AC800646D8F800001F46A2
:102D5C000D46914600F058F8274B1C6834B9274CA7
:102D6C001C60274B13B11B68C4F8883063681F2B99
:102D7C0007DDD8F8000000F049F84FF0FF30BDE84F
:102D8C00F8835EB3D4F8880088B91E4B23B9D8F801
:102D9C00000000F03AF8F0E74FF48470FEF77EF88C
:102DAC000028F4D00023C0E94033C4F88800012285
:102DBC006368022E40F8239002FA03F200EB8301C1
:102DCC00D0F8003143EA0203C0F80031C1F880703A
:102DDC0002BFD0F804311343C0F804316368D8F84B
:102DEC0000005A1C0233626044F8235000F00EF8C5
:102DFC000020C4E7C0000020E0050020540500209E
:102E0C0000000000A90E0A087047704770470000C8
:102E1C001D000A085D000A0885000A0889000A08D6
:102E2C00000000006D7174742072657475726E20F0
:102E3C00636F6465203D2000436F6E6E656374693B
:102E4C006F6E2064726F70706564004469616C65AC
:102E5C006420005374617274206D652075702E2E81
:102E6C002E006462756700436F6E6E6563746564F3
:102E7C0020746F204841004D515454004661696CD8
:102E8C00656420636F6E6E656374204841202D204D
:102E9C00636865636B20736563726574732E680079
:102EAC0068612F726F746172792F6E756D626572C5
:102EBC000068612F726F746172792F64696769742D
:102ECC00004449414C455200555732316D71747470
:102EDC00007574696C736D7174740000044D5154F9
:102EEC00540400064D514973647003000000000047
:102EFC0000000000470F0A084D0F0A089D0F0A0832
:102F0C005B0F0A08490F0A080000000000000000CF
:102F1C00B1140A08FB140A08D3140A08B3140A08DB
:102F2C00DB140A08E3140A08EB140A08F3140A0861
:102F3C0000000000000000002F150A082D150A08DB
:102F4C0061150A08617070000000000000000000AC
:102F5C0025160A082F160A0839160A0843160A08F5
:102F6C004D160A0859160A0865160A086D160A083D
:102F7C0075160A0881160A0889160A0893160A0893
:102F8C009D160A08776972696E6700544350436C4A
:102F9C0069656E7420736F636B65743D25780000F2
:102FAC000000000000000000F1190A08191A0A08B4
:102FBC00071E0A08271A0A08F5190A08000000005B
:102FCC000000000000000000000000002D1A0A089C
:102FDC00611A0A0879190A0893190A08091C0A08BF
:102FEC00BB190A08951A0A08EF190A08291B0A08BE
:102FFC000D1E0A08C31A0A087D1C0A082B1D0A0894
:10300C00E31C0A08A3190A08F11C0A08751A0A0815
:10301C0025592D256D2D25645425483A254D3A25E5
:10302C0053257A0061736374696D650000000000BC
:10303C00000000008D1E0A08F51E0A08D11E0A08A1
:10304C0019170A08A11E0A08BD1E0A08AF1E0A0895
:10305C00CB1E0A088F1E0A08931E0A0800000000E7
:10306C0000000000331F0A08991F0A08711F0A0884
:10307C0019170A08631F0A08351F0A08451F0A0892
:10308C00931F0A08551F0A082D1F0A08000000008C
:10309C00000000005B210A0851210A0847210A0898
:1030AC00B9200A083B210A082F210A0865160A08CC
:1030BC006D160A0823210A081B210A0811210A0887
:1030CC0007210A08C3200A0800537431395F537072
:1030DC005F6D616B655F7368617265645F74616776
:1030EC000000000030310A08D5300A0890310A0877
:1030FC0004310A08B4310A084E31305F5F637878C6
:10310C00616269763131375F5F636C6173735F74D1
:10311C007970655F696E666F450000000000000005
:10312C00F8300A08E9250A08FD250A0895270A0837
:10313C0095270A0867260A08A9250A084F260A08AF
:10314C0011260A08DB250A0890310A0860310A08A2
:10315C00F8300A084E31305F5F63787861626976C7
:10316C003132305F5F73695F636C6173735F747965
:10317C0070655F696E666F4500000000000000001E
:10318C0054310A0891260A08A5260A0895270A0828
:10319C0095270A0867260A08A9250A0869270A0834
:1031AC00F5260A08B9260A0830310A08BC310A0883
:1031BC00537439747970655F696E666F005245455A
:1031CC004E54206D616C6C6F632073756363656521
:1031DC00646564002F746D702F6A656E6B696E7315
:1031EC002D4743432D31302D706970656C696E65C8
:1031FC002D34385F32303230313132345F31363049
:10320C00363138303633392F7372632F6E65776CE5
:10321C0069622F6E65776C69622F6C6962632F73BC
:10322C0074646C69622F72616E642E63000000001E
:10323C00A1040A0815160A0805170A08A5170A0892
:10324C0055190A08791E0A0865210A08F5240A0886
:04325C00000000006E
:04326000000000006A
:10326400CD2E0A08D42E0A08DD2E0A08686173736D
:10327400696F2E64656570626C75656265727279DA
:103284002E636F6D00000000AC2E0A0800000000E1
:10329400000000000000594002000000010000008E
:1032A4000100000004000000010000000000000014
:1032B400000000000070A74030300A0860000020C1
:1032C40000000000000000000000000000000000FA
:1032D40000000000000000000000000000000000EA
:1032E40000000000000000000000000000000000DA
:1032F40000000000000000000000000000000000CA
:1033040000000000000000000000000000000000B9
:1033140000000000000000000000000000000000A9
:04332400E40500209C
:10332800FFFFFFFF00000102030405060708090A62
:103338000B0C0D0E0F101112131415161718191A5D
:083348001B1C1D1E1F202800A4
:043350007856341265
:04000005080A001CC9
:00000001FF
