:02000004080AE8
:1000000000000A0818330A0800000600060005016F
:080010000402E50C00000000F1
:04001800F02D0A08B5
:10001C0009480A4908B5884205D0094A824202D0EB
:10002C00121A02F0FDFD0748074A0021121A02F0CD
:10003C0005FE064808BD00BF0000002034320A0847
:10004C00BC000020C0000020DD050020DD050020E4
:10005C0070B502F03FF90025054E064CA41BA40810
:10006C00AC4200D170BD56F8043B98470135F7E718
:10007C0010320A0830320A0800F0AAB908B500F0AC
:10008C00D9F8BDE8084002F0DDB800F0F1BE00F090
:10009C00EFBE00F0F5BE00F0F3BE0078B0FA80F0D1
:1000AC0040097047012303707047000013B50446E4
:1000BC00044B1B788DF800303C2301F06DF8204682
:1000CC0002B010BDC00000202DE9F04107460C46DF
:1000DC0016460025DFF82C80BD4211DA0121B8F854
:1000EC00000002F084F9204600F0FAFE0021B8F876
:1000FC00000002F07CF9301B00F0F2FE0135EBE75A
:10010C00BDE8F0814801002038B5046805467CB193
:10011C006368013B63605BB9236820469B68984722
:10012C00A368013BA3601BB923682046DB68984792
:10013C00284638BDB0B502F1080384B023F007039C
:10014C0002AFADEB030D02AD2846144602F068FD7C
:10015C0000232B55084B2A461B78384607498DF847
:10016C0000304FF4616301F017F8381DFFF7CCFF36
:10017C000837BD46B0BD00BFC1000020AC2E0A0838
:10018C0030B5044687B064200D4600F0A9FE224825
:10019C0000F0CAFA08B321462A681F4800F03FFC59
:1001AC000446002836D14FF47A7000F099FE2146AF
:1001BC000A2202A801F077FB029A18496846FFF759
:1001CC0075FF01A8FFF7A0FF02A801F0E4FA12489E
:1001DC0007B0BDE8304000F06FBA4FF47A7000F011
:1001EC007FFE0F4A0F4902A8FFF760FF03A8FFF735
:1001FC008BFF0D4B0D4A0E491B68126809680648A7
:10020C0000F082FB21462A68034807B0BDE8304065
:10021C0000F005BC07B030BDC8000020042E0A0851
:10022C00182E0A08AC2E0A08040000200800002032
:10023C00000000202DE9F04F192087B000F050FE8F
:10024C00524B534C188802F0EBF8524D206000F0E2
:10025C0029FC02F0DDFBD5E9002302F09BFA4E4BA2
:10026C00D3E9002302F0CCFC00283CD0DFF82C9121
:10027C0099F80030002B36D0DFF8248149494A48E0
:10028C0001F000FBC2460027484EDFF81CB1336872
:10029C00BB4206DD58465AF8041B01F02EFB013711
:1002AC00F5E7434B40491F6802A801F0E0FA3846D5
:1002BC0002A9FFF765FF02A801F06DFA0027336869
:1002CC00BB420CDD4FF4FA72FA2158F8040BFFF71D
:1002DC00FBFE4FF42F7000F003FE0137EFE7002315
:1002EC0089F80030336000F0DDFB02F091FBD5E9BA
:1002FC00002302F04FFA2F4BD3E9002302F080FCCD
:10030C0020B32D4F3B780BB30A222C4E02A8336836
:10031C0093FBF2F102FB113101F0C5FA029A284964
:10032C006846FFF7C3FE01A8FFF7EEFE02A801F036
:10033C0032FA1E4A30681368194941F82300013318
:10034C00136000231F4A3B70336013601E4E2268FB
:10035C0033689A4217D000F0A5FB02F059FB01223A
:10036C000E4BC5E900011A70184A236811688B42BC
:10037C0008D0012B136005D110490A6801320A60BC
:10038C000D4A1370336007B0BDE8F08F38000020C1
:10039C007801002040010020480000203C01002092
:1003AC004C010020172E0A082C010020740100209B
:1003BC0028000020300000203D01002028010020F2
:1003CC002B2E0A08C40000203C0000204000002016
:1003DC001FB5194B0221188801F0F8FF174B0121AA
:1003EC00188801F0F3FF164B164A1B7816498DF846
:1003FC00003002A84FF4616300F0CEFE03A8FFF7B3
:10040C0083FE124B124A13491B6812680968124882
:10041C0000F07AFA104800F087F950B10F4A1049F1
:10042C0002A8FFF743FE03A8FFF76EFE05B05DF8C8
:10043C0004FB0C4AF3E700BF380000204801002001
:10044C00C1000020332E0A08422E0A0804000020A6
:10045C000800002000000020C8000020472E0A08D9
:10046C00572E0A085C2E0A0813B5002401220A4BE9
:10047C000A491C700A4B0B481A7001F0D6F90A4B4A
:10048C0040F25B72009309494FF4E1630194084810
:10049C0000F054F802B010BDC0000020172E0A085E
:1004AC00C10000202C01002041010A080C00002092
:1004BC00C800002091F85C3010B50446016013B1FF
:1004CC00886D00F0C7FA204610BD10B503680446CD
:1004DC0093F85C2012B1986D00F0C4FA204610BD60
:1004EC00F8B51F469DF8243004460D46164623B138
:1004FC0001235830037100F0A5FA089B23630023F5
:10050C00636306B1A66425B1294604F1380001F0F5
:10051C00B9F9069BE0692365079BA4F84C70FF2B87
:10052C00B8BFFF23A4F8543008B1FFF7B2FDB4F8FC
:10053C005400FFF7ACFDE061F8BD00002DE9FF4170
:10054C0004460025984617460E4601F02BFC0D4933
:10055C00E56104F1380001F068F99DF82C30204673
:10056C0003930A9B2A46CDE901830F23314600935E
:10057C00A5643B4684F85C50FFF7B2FF204604B0FC
:10058C00BDE8F081172E0A0810B50446204601F08C
:10059C001FFB0028FAD0204601F0F3F9C0B210BDC1
:1005AC002DE9F0474FF0010805468946FFF7ECFFAF
:1005BC0000274446EB691870EB6993F800A00AF029
:1005CC00F00A2846FFF7E0FF2646EB690134985500
:1005DC0000F07F0303FB08770306A4B2BFB24FEA17
:1005EC00C818EED4631EBAF1300F89F800301ED152
:1005FC002846FFF7C9FFEB6918552846FFF7C4FFDB
:10060C00F41CEB690236B6B298550226A4B2B6B207
:10061C00BE420ED22846FFF7B7FFB5F8543001366C
:10062C00A34284BFEB6918550134A4B2EFE700264E
:10063C00EDE7B5F85430A3422CBF20460020BDE8AE
:10064C00F0872DE9F34115461E461A46074600234E
:10065C00964602F07F0CBEF17F0F02A888BF4CF0CB
:10066C00800C5C1CBEF17F0F03444FEAD212E4B243
:10067C0003F804CC1ED8C4F10403C4F10500E954FA
:10068C00224601A9284405EB030802F0C9FA721CA2
:10069C0022444146384601F060F9054600F002FA62
:1006AC00013478623444A8B2231A5842584102B03B
:1006BC00BDE8F0812346CBE713B50446014601A8FB
:1006CC00FFF7F8FEE022E36920461A700022E36986
:1006DC005A70E169022201F040F9204601F0B2FAA9
:1006EC0000F0E0F9C4E9090001A8FFF7EEFE02B042
:1006FC0010BD0233F0B5054698B20023CE5C9CB217
:10070C004EB1B5F854C05F1C844504D9441C165432
:10071C003B46A0B2F2E799B2411A0A44210A02F808
:10072C00021C02F8013CF0BD38B5044601F0E1FAB8
:10073C00002814BF0125002502D1204601F082FAC1
:10074C00284638BD2DE9F04788B00446894617463F
:10075C001E46DDF840809DF850A0FFF7E5FF0546EA
:10076C00002840F0CD80214601A8FFF7A3FEA16C24
:10077C00002940F088802B462046B4F84C20A16B11
:10078C0001F028FB00287AD0012323849DF85430F3
:10079C00E269042B5B4B40F08180186899889B7947
:1007AC00ADF80C108DF80E300290C2F805009DF8D3
:1007BC000E30BDF80C10D3720C23A2F80910B8F14E
:1007CC00000F00F081809DF848009DF84420400106
:1007DC0040EAC20040F00600C0B2BAF1000F01D1ED
:1007EC0000F0FD001FB1002E70D140F08000E269D6
:1007FC00D054226DE169581C12120A54E169206D23
:10080C009A1C8854033349462046E269FFF771FF6E
:10081C000346B8F1000F0BD04146E2692046FFF7C2
:10082C0068FFE269034613992046FFF762FF03460F
:10083C0067B139462046E269FFF75BFF03462EB1EC
:10084C0031462046E269FFF754FF0346053B102171
:10085C00E2699BB22046FFF7F4FE00F023F94FF457
:10086C007A76C4E90900204601F0B2F988BB00F0A1
:10087C0019F9A36AC01A236D73439842F3D9204621
:10088C0001F0E0F935E002A800F098FE2B46204676
:10089C00B4F84C2002A901F02BF973E7D3F8070048
:1008AC00D3F80B100DF1080CACE80300DB7B8CF8D3
:1008BC00003002AB03CBC2F80500C2F809109CF85B
:1008CC00003053730E237AE7022086E740F0C00015
:1008DC008DE7204602A9FFF763FE0428CFD1E36918
:1008EC00DE78002ECBD100F0DDF80125A06284F873
:1008FC002C6001A8FFF7E9FD284608B0BDE8F08799
:10090C000025F9E7BB2E0A0810B54FF0040C0124A2
:10091C0086B0CDE9044C0024CDE90244CDE9004475
:10092C00FFF710FF06B010BD2DE9F74FDDF83C8046
:10093C0004468B4616461F469DF834509DF8389059
:10094C00FFF7F2FE8246002851D0214601A8FFF79E
:10095C00B1FD0021B4F85420E06902F06FF90523D1
:10096C0059462046E269FFF7C4FE6B1E012B15D8D1
:10097C00218CE369013189B22184090A1954421C82
:10098C00E369218C92B2023080B29954B8F1000F15
:10099C0004D0238C5A1C2284A8F8003000210B1898
:1009AC008F42E2699BB20AD9B4F854C09C4506D96F
:1009BC0016F801C0013102F803C089B2EFE79DF8C7
:1009CC00301000290CBF30213121B9F1000F01D0BA
:1009DC0041F00801022D0ED141F00401053B2046E7
:1009EC009BB2FFF72EFE824601A8FFF76EFD504624
:1009FC0003B0BDE8F08F012D08BF41F00201EDE717
:100A0C001FB5089C0394002402949DF81C4001948B
:100A1C009DF818400094FFF787FF04B010BD7FB518
:100A2C000546104614460E4602F06BF900220346AA
:100A3C00CDE901220092314622462846FFF7E0FF1D
:100A4C0004B070BD08B5024B1B681B6B019308BD4D
:100A5C00D001060808B5024B1B689B6B019308BDBF
:100A6C00D001060808B5024B1B681B6C019308BD2E
:100A7C00D001060808B5024B1B685B6C019308BDDE
:100A8C00D001060808B5024B1B689B6C019308BD8E
:100A9C00D001060808B5024B1B685B68019308BDC2
:100AAC009C01060808B5024B1B685B69019308BDE5
:100ABC009C01060808B5024B1B689B68019308BD96
:100ACC00B001060808B5024B1B68DB68019308BD32
:100ADC00B001060808B5024B1B681B69019308BDE1
:100AEC00B001060808B5024B1B685B69019308BD91
:100AFC00B001060808B5024B1B681B6E019308BDBC
:100B0C00AC01060808B5024B1B685B6E019308BD6F
:100B1C00AC01060808B5024B1B689B6E019308BD1F
:100B2C00AC01060808B5024B1B68DB6E019308BDCF
:100B3C00AC01060808B5024B1B681B6F019308BD7E
:100B4C00AC01060808B5024B1B685B6F019308BD2E
:100B5C00AC01060808B5034B1B68D3F88030019331
:100B6C0008BD0000AC01060808B5024B1B681B68E9
:100B7C00019308BDBC01060808B5024B1B685B68F5
:100B8C00019308BDBC01060808B5024B1B689B68A5
:100B9C00019308BDBC01060808B5024B1B68DB6855
:100BAC00019308BDBC01060808B5024B1B681B6904
:100BBC00019308BDBC01060808B5024B1B681B6AF3
:100BCC00019308BDBC01060808B5024B1B681B6BE2
:100BDC00019308BDBC01060808B5024B1B685B6C91
:100BEC00019308BDBC01060808B5024B1B68DB6904
:100BFC00019308BDB401060808B5024B1B681B6ABB
:100C0C00019308BDB401060808B5024B1B685B6A6A
:100C1C00019308BDC401060808B5024B1B689B6A0A
:100C2C00019308BDC401060808B5024B1B68DB6ABA
:100C3C00019308BDC401060808B5024B1B681B6B69
:100C4C00019308BDC401060808B5024B1B685B6B19
:100C5C00019308BDC401060808B5024B1B689B6BC9
:100C6C00019308BDC401060808B5024B1B681B6C38
:100C7C00019308BDC401060808B5024B1B681B6E26
:100C8C00019308BDC401060808B5024B1B681B681C
:100C9C00019308BDD801060808B5024B1B681B69F7
:100CAC00019308BDD801060808B5024B1B685B69A7
:100CBC00019308BDD801060808B5024B1B689B6957
:100CCC00019308BDD801060808B5024B1B68DB6907
:100CDC00019308BDD801060808B5024B1B681B6AB6
:100CEC00019308BDD801060808B5024B1B685B6C64
:100CFC00019308BDC001060808B5024B1B689B6C2C
:100D0C00019308BDC001060808B5024B1B681B6D9A
:100D1C00019308BDA801020808B5024B1B685B686B
:100D2C00019308BDA401060808B5024B1B685B695A
:100D3C00019308BDA401060808B5024B1B68DB6CC7
:100D4C00019308BDA401060808B5024B1B685B6D36
:100D5C00019308BDA401060808B5034B1B68D3F822
:100D6C009030019308BD0000A401060808B5034BA0
:100D7C001B68D3F89C30019308BD0000A401060841
:100D8C0008B5024B1B685B69019308BDCC010608D2
:100D9C0008B5024B1B681B6A019308BDCC01060801
:100DAC0008B5024B1B68DB6B019308BDCC01060830
:100DBC0008B5024B1B685B68019308BDC8010608A7
:100DCC0008B5024B1B689B68019308BDC801060857
:100DDC0008B5024B1B68DB68019308BDC801060807
:100DEC0008B5024B1B681B69019308BDC8010608B6
:100DFC0008B5024B1B685B69019308BDC801060866
:100E0C0008B5024B1B689B69019308BDC801060815
:100E1C0008B5024B1B68DB69019308BDC8010608C5
:100E2C0008B5024B1B681B6A019308BDC801060874
:100E3C0008B5024B1B681B6B019308BDC801060863
:100E4C0008B5024B1B685B6B019308BDC801060813
:100E5C0008B5024B1B681B6C019308BDC801060842
:100E6C0008B5024B1B685B6C019308BDC8010608F2
:100E7C0008B5024B1B681B68019308BDA00106084E
:100E8C0008B5024B1B685B68019308BDA0010608FE
:100E9C0008B5024B1B689B68019308BDA0010608AE
:100EAC0008B5024B1B68DB6A019308BDA00106085C
:100EBC0008B5024B1B681B6B019308BDA00106080B
:100ECC0008B5024B1B681B6C019308BDA0010608FA
:100EDC0008B5024B1B685B6C019308BDA0010608AA
:100EEC000021FFF721BF10B5836804460BB901F050
:100EFC0035FBC3689847A3681BB1032221462046E3
:100F0C0098472046BDE810401021FFF7C4B8704741
:100F1C000020704710B504461021FFF7BCF820469E
:100F2C0010BD08B5FFF7F6FF08BD10B58368044681
:100F3C0013B1032201469847204610BD002230B55C
:100F4C004FF69C74026084808D888C800C68858040
:100F5C0004600A6030BD10B504460068FFF790FFCE
:100F6C00204610BD38B5C468F4B12378022B03D1E8
:100F7C0004F10C00FFF7EFFF656835B12846FFF769
:100F8C00D4FF10212846FFF786F8A56835B128460E
:100F9C00FFF7CBFF10212846FFF77DF82046BDE870
:100FAC0038401421FFF777B838BD0B6803604B68E5
:100FBC00436013B15A6801325A60704737B5044622
:100FCC0068460D46FFF7F1FF009B019A2360002352
:100FDC00626001A801930093FFF796F835B1281DC4
:100FEC00FFF792F808212846FFF755F8204603B082
:100FFC0030BD13B56C460B46024603C884E80300AB
:10100C0093E8030082E8030094E8030083E80300FC
:10101C0002B010BD826810B50AB901F09FFAC3681E
:10102C00BDE81040184708B5006800F11001FFF743
:10103C00F1FF08BD826810B50AB901F08FFAC368D8
:10104C00BDE81040184708B5006800F11001FFF723
:10105C00F1FF08BD38B500230446036010200D468F
:10106C00FFF713F828B10123C0E90133024BC56027
:10107C0003602060204638BDD42E0A0838B5002302
:10108C0083608B6804460D462BB102229847EB68AF
:10109C00E360AB68A360204638BD0000F0B589B0B2
:1010AC0004686846FFF74AFF4FF00203D4E84F2F5D
:1010BC00002A03D1C4E8413F0029F7D125D104F11E
:1010CC000C0569462846FFF739FF0123BFF35B8FF8
:1010DC0063700020BFF35B8F04F1080353E8006FCB
:1010EC0043E80002002AF9D1BFF35B8F6EB1FFF722
:1010FC0023FE78B129463046FFF78CFF3046FFF7C8
:10110C0014FF10213046FEF7C6FF6846FFF723FF99
:10111C0009B0F0BD314602A8FFF7B0FFE068B4F9A2
:10112C00105008B101F0D2FD06901020ADF81C5003
:10113C00FEF7ABFF0546E8B1002787601820FEF7E5
:10114C00A4FF044688B10146876002A8FFF751FF4F
:10115C00049BA268A360059B0492E26806A9E36065
:10116C0004F110000592FFF7E9FE084B2C60EB60D0
:10117C00074BAB6006A8FFF7EEFE02A8FFF7D5FE03
:10118C00002229460348FFF7DFFDB7E733100A08B2
:10119C00BD120A08F30E0A082DE9F0478AB005467D
:1011AC000C46174698469DF84890FFF7E9FD07AEA8
:1011BC00824638BB4FF62E73059005A93046ADF824
:1011CC001830FFF7BBFE1420FEF75FFF044648B152
:1011DC00022303700123C0E901AA437031460C308D
:1011EC00FFF7ACFE2846214640F8044BFFF732FFD0
:1011FC003046FFF7B0FE05A8FFF7ADFE28460AB053
:10120C00BDE8F0870C234FF0000A1420CDE908AAA2
:10121C000793FEF73AFF014628B1C0E901AA80F80E
:10122C0000A080F801A004A80391FFF713FF1F4B47
:10123C0008200893FEF729FF824610B103A9FFF797
:10124C00B4FE42463946204600965FFA89F3CDF843
:10125C0024A0FFF79DFDB8B9039B5B7803F0FF0258
:10126C0093B94FF69C7305A903A80592ADF81830F5
:10127C00FFF714FF05A8FFF76EFE05A80999FFF705
:10128C009DFE06A8FEF740FF03A905A8FFF78DFEFB
:10129C00059B069A2B6000236A6006A806930593AB
:1012AC00FEF732FF04A8FEF72FFFA7E739130A0851
:1012BC00012AF8B5054603D10B6803600020F8BD80
:1012CC00022A10D0032AF9D10468002CF6D004F1BC
:1012DC001000FFF740FE2046FFF727FE182120469E
:1012EC00FEF7D9FEEAE718200E68FEF7CEFE04469C
:1012FC0050B13146FFF7C2FE3069B6F9147008B12F
:10130C0001F0E4FC2061A7822C60D7E738B50023FC
:10131C0083608B6804460D462BB102229847EB681C
:10132C00E360AB68A360204638BD0000F0B504460E
:10133C0089B00D4601A81146FFF740FEA4B124B2B6
:10134C001DB1284601F0C2FC054601A803A903956E
:10135C00ADF81040FFF7A2FE03A8FFF7FCFD02A8B2
:10136C00FEF7D2FE09B0F0BD0123019DD5E84F2F49
:10137C00002A03D1C5E8413F0029F7D1EFD12B73E7
:10138C00BFF35B8F6B70BFF35B8F2B1D53E8006F4C
:10139C0043E80042002AF9D1BFF35B8F002EDED068
:1013AC002046FFF7C9FC074660B1304605F10C0139
:1013BC00FFF740FE3046FFF7B8FD10213046FEF730
:1013CC006AFECCE7314603A8FFF7A0FF2B7B102069
:1013DC008DF81C30FEF759FE0546D0B187601420FD
:1013EC00FEF753FE044678B10146876003A8FFF769
:1013FC0000FE059BA268A360069B0592E268E36071
:10140C009DF81C3006922374064B2C60EB60064B47
:10141C00AB6003A8FFF789FD002229460348FFF7BC
:10142C0093FCC7E753100A083D140A08F30E0A0888
:10143C00012A70B5044603D10B680360002070BD0F
:10144C00022A0CD0032AF9D10468002CF6D02046CD
:10145C00FFF76BFD14212046FEF71DFEEEE714206E
:10146C000E68FEF712FE054620B13146FFF74EFF1F
:10147C00337C2B742560E1E77047F8B506461546BA
:10148C000C468F18BC4206D0336830469B6814F863
:10149C00011B9847F6E72846F8BD0022007CFFF7B1
:1014AC0029BB0021007CFFF72DBB0021007CFFF73E
:1014BC0031BB0021007CFFF735BB0021007CFFF71E
:1014CC0039BB10B504461421FEF7E5FD204610BDCE
:1014DC0010B54FF47A73044608460021C4E9011391
:1014EC00034B114623602074FFF734FB204610BDDC
:1014FC00F02E0A087047F8B50E46002400F10807D4
:10150C00051D17F8011D0A22304600F012F9AF42F2
:10151C00044401D12046F8BD002CF2D02E213046D7
:10152C0000F004F90444ECE710B504461821FEF76A
:10153C00B2FD204610BD000010B50446044B11222C
:10154C00002140F8043B01F079FB204610BD00BFA0
:10155C00182F0A080346074A10B543F8042B01F16B
:10156C00100251F8044B914243F8044BF9D10A781C
:10157C001A7010BD182F0A08024AC0E90021042273
:10158C0002757047182F0A0810B59DF8084044EAF8
:10159C000324042344EA024444EA016444600375CE
:1015AC0010BD000013B5044C04609DF8104000946D
:1015BC00FFF7EAFF02B010BD182F0A0807B5064B5B
:1015CC000360CB7800938B784A780978FFF7DCFFBF
:1015DC0003B05DF804FB00BF182F0A08014B024A48
:1015EC001A6070477C010020242F0A0800234068F1
:1015FC001A46FFF7DDBB002202214068FFF7E8BB6B
:10160C00002240681146FFF7DBBB00224068114600
:10161C00FFF7E6BB002340681A461946FFF7E8BB04
:10162C00002340681A461946FFF7EABB00214068C0
:10163C00FFF70EBC00214068FFF712BC0022406887
:10164C0081F00101FFF7E4BB00224068FFF7F0BB1B
:10165C00002240681146FFF7F3BB00224068114698
:10166C00FFF7DEBB70B515468EB0044608A8FFF731
:10167C0063FF1122002103A801F0E0FA002628469E
:10168C0001F03FFB0A4B009681B25B68284603AA27
:10169C00FFF732FB30B131462046FFF76DFF204695
:1016AC000EB070BD204603A9FFF754FFF7E700BF4B
:1016BC00E0040020034A044B042814BF10461846CB
:1016CC00704700BF80010020E0040020024B034A59
:1016DC001A6000225A60704780010020302F0A08DF
:1016EC00F8B506460D4600248F18BD420CD0336861
:1016FC0030469B6815F8011B9847031E01DB1C4400
:10170C00F3E7002C08BF1C462046F8BD70B5054613
:10171C000C46084649B101F0F4FA2B680246214602
:10172C002846BDE87040DB68184770BD03689B68AD
:10173C0018470023012A98BF0A2230B58BB00C46FB
:10174C008DF8243009A92546B4FBF2F404FB12539E
:10175C00DBB2092B94BF30333733DBB2AA4201F82A
:10176C00013DF0D9FFF7D2FF0BB030BD0022014B89
:10177C009A6070478801002070B5002604460D461B
:10178C0040F8086FFFF776F928462570FFF72CFA1A
:10179C002046666070BD10B504460068FFF770FB0C
:1017AC00204610BD10B50446006808B1FFF768FB71
:1017BC000023C4E90133236010BD38B504460D463F
:1017CC0000680131FFF764FB10B1C4E9000501208A
:1017DC0038BD10B50368044623B143688B4201D36E
:1017EC00012010BD2046FFF7E8FF0028F9D0A368C0
:1017FC00002BF5D122681370F2E770B50E46114636
:10180C0004461546FFF7E5FF20B92046FFF7CAFF4F
:10181C00204670BD2A4631462068A56001F000FACA
:10182C0000212268A368D154F2E738B5002304469E
:10183C000D46C0E900338360037339B1084601F0EB
:10184C0060FA294602462046FFF7D7FF204638BDEE
:10185C00884210B50B46044604D0096821B19A6839
:10186C00FFF7CBFF204610BDFFF79CFFFAE70023E4
:10187C0010B50446C0E9003383600373FFF7E8FF3B
:10188C00204610BD38B505460C4649B1084601F056
:10189C0038FA214602462846FFF7AFFF284638BDE6
:1018AC00FFF780FFFAE710B5002304468AB0C4E9BD
:1018BC000033A3602373084601A900F077FC20468F
:1018CC0001A9FFF7DFFF20460AB010BD70B5054631
:1018DC000E4609B9002070BD6AB1846814442146D3
:1018EC00FFF777FF0028F5D02868AB68314618441D
:1018FC0001F0E4F9AC600120EDE713B50A220446CF
:10190C000846694600F052FC684601F0FAF969464F
:10191C0002462046FFF7DAFF02B010BD022200207B
:10192C00044B1A60044B054AC3E900009A60FFF7A8
:10193C00F3B900BFA4010020980100200000FFFFB4
:10194C0013B503688DF80710DC6B012247F2305396
:10195C000DF10701A04702B010BD10B40368DC6B99
:10196C0047F23053A44610BC604713B513460268C7
:10197C008DF80710D46B0DF107010122A04702B0BE
:10198C0010BD10B543690446B3F88620B3F8843013
:10199C009A4208D06369B3F88420511CA3F88410D0
:1019AC001344187910BD03681B6998470028F1D1BE
:1019BC004FF0FF30F6E770477047000010B5044653
:1019CC00064B0846994204F10C0404D000F0CAFD01
:1019DC00002808BF0024204610BD00BF9C2F0A0819
:1019EC0010B50446AC21FEF756FB204610BDAC21C9
:1019FC00FEF751BB38B50B4B8469054603607CB1CF
:101A0C006368013B63605BB9236820469B68984719
:101A1C00A368013BA3601BB923682046DB68984789
:101A2C00284638BDAC2F0A0810B50446FFF7E2FF74
:101A3C0020461C21FEF72FFB204610BD70B5044636
:101A4C0006464D69044B8C3544F8043B0FCD0FC44E
:101A5C002B683046237070BD182F0A0810B54369E7
:101A6C000446B3F88620B3F884309A4205D06369F3
:101A7C00B3F884201344187910BD03681B69984788
:101A8C000028F4D14FF0FF30F6E7F8B5436917465C
:101A9C00B3F88620B3F8843005469A420E4616D029
:101AAC0069693046B1F88430B1F88640E41ABC421A
:101ABC0028BF3C4604332246194401F0B1F86A6948
:101ACC00B2F884302344A2F884302046F8BD036871
:101ADC001B6998470028E3D14FF0FF34F5E700234A
:101AEC004269A2F884304269A2F88630704700003F
:101AFC002DE9F0431F4603688BB0DB6A05460C46A4
:101B0C00164698473846FFF7D5FD0368DB689847BB
:101B1C00002854D033460622012102200097D5F824
:101B2C001480FFF731F82023C8F800004FF00008AC
:101B3C00CDE902386B6901201B6823490193234BC3
:101B4C0002AA00934346FFF7DFF86B691868FFF7AA
:101B5C0013F8002833D02846FFF7C1FF0223ADF855
:101B6C000830E37976BA8DF80C30A3794FF4FA503B
:101B7C008DF80D306379ADF80A608DF80E3014F8DD
:101B8C00043F8DF80F30FFF7AFF86B690646102253
:101B9C00186802A9FFF700F881463046FFF7A4F851
:101BAC000FCC6E698C360FC6236833702F61B9F178
:101BBC00000F07D02B682846DB6A984740460BB0CD
:101BCC00BDE8F0830120FAE7642F0A086B2F0A089E
:101BDC0038B542690446B2F886302BB1B2F884208D
:101BEC009A4201D1FFF77BFF2069FFF763FD036881
:101BFC00DB689847F8B163691868FEF7BDFFD0B190
:101C0C006069B0F886107F2915D8051DC1F18002D6
:101C1C00002300682944FEF7C7FF00280BDD636929
:101C2C00B3F886200AB9A3F884206369B3F8862038
:101C3C001044A3F886006369B3F88600B3F88430C7
:101C4C00C01A38BD38B5436904461868FEF794FFCE
:101C5C0018B163691868FEF7AFFF6569FEF7B4FF4A
:101C6C0028606069112200218C3000F0E7FF2046CB
:101C7C00BDE83840FFF733BF10B543690446186818
:101C8C00FEF77AFF08B9002010BD2069FFF712FD9E
:101C9C000368DB6898470028F5D063691868FEF77D
:101CAC0063FFB0FA80F04009EEE708B5FFF7E4FFF8
:101CBC00003818BF012008BD2DE9F341002747600B
:101CCC0004460D4616469846FFF7D6FF70B1CDE98F
:101CDC00008760693B46324629460068FEF77CFF68
:101CEC00002800DA606002B0BDE8F0814FF0FF30F0
:101CFC00F8E770B50546FFF7BFFFE8B96B69B3F8B5
:101D0C008610B3F88420914216D11868FEF734FF80
:101D1C0008B9002070BD6B691868FEF725FF012813
:101D2C000446F6D12B6828461B69984730B92B68B6
:101D3C002846DB6A9847ECE70120EBE72046E9E709
:101D4C00002310B504460160C0F884308830FFF7DA
:101D5C00F3FB204610BD0000F8B54FF47A72002357
:101D6C00C0E901320D4A0361026043610446AC20B4
:101D7C000E46FEF78AF9051E05F10C0708D0012363
:101D8C00C5E90133064B314638462B60FFF7D8FFC7
:101D9C002046C4E90575FFF7A2FEF8BDAC2F0A0872
:101DAC00882F0A0810B50446FEF70EFF01462046A0
:101DBC00FFF7D2FF204610BD10B504460068FEF7B1
:101DCC00DBFE10B12068FEF7F7FE204610BD0C308C
:101DDC00FFF7F2BF2DE9F0431F4603688FB0DB6AB3
:101DEC0006460D46904698471348FFF70EFCF0B197
:101DFC0002A8FFF7A1FB284600F083FF002481B264
:101E0C003B462846009403AAFEF776FF90B9336848
:101E1C0009ADD3F82090094B03AC08930FCC0FC538
:101E2C00236842462B7030463B4608A9C8470FB082
:101E3C00BDE8F0832046FAE780010020182F0A083D
:101E4C00024B1A68024B1A60704700BF500000200A
:101E5C00A801002070474174704708B5007CFEF75C
:101E6C0003FF20EAE07008BD08B5007CFEF7D4FE45
:101E7C0020EAE07008BD08B5007CFEF7DDFE40EA04
:101E8C00E07008BD08B5007CFEF7CEFE40EAE070BD
:101E9C0008BD007CFEF7D8BE70B5467C04460D46E6
:101EAC002EB12946207CBDE87040FEF7ADBE007C0B
:101EBC00FEF7DAFE0028F4DC304670BD10B504469F
:101ECC001421FEF7E8F8204610BD000010B54FF4C1
:101EDC007A730446084611460022C4E90123044BD8
:101EEC002074236001236374FEF7C6FE204610BDE8
:101EFC0014300A08417470477047704708B50021C8
:101F0C00007CFEF7D9FE40EAE07008BD08B501215F
:101F1C00007CFEF7D1FE40EAE07008BD08B5007CFD
:101F2C00FEF7C2FE20EAE07008BD08B5007CFEF7A3
:101F3C00B3FE20EAE07008BD38B50446007C0D46BF
:101F4C00FEF7B2FE002801DC607C28B12946207C1B
:101F5C00FEF7BAFE20EAE07038BD007CFEF7BCBE8E
:101F6C0010B504461421FEF796F8204610BD7047B4
:101F7C0010B54FF47A73044608460021C4E90113E6
:101F8C00044B20742360012311466374FEF77CFE1E
:101F9C00204610BD44300A0810B504461422002116
:101FAC0000F04CFE054B20466360054BE36040F2AD
:101FBC00011323818123238210BD00BFDC0100208B
:101FCC00DD02002030B50E4D87B001A8FFF7E4FF0D
:101FDC002978BFF35B8F11F001040ED12846FEF770
:101FEC005CF850B1214601AA0648FFF7C1FF28460C
:101FFC00FEF758F8044800F00DFE024807B030BD5B
:10200C00AC010020B4010020051F0A0810B50446DD
:10201C001422002100F012FE054B20466360054B94
:10202C00E36040F2011323818123238210BD00BFA2
:10203C005E0300205F04002010B50E4C86B001A892
:10204C00FFF7E4FF2378BFF35B8FDB070ED420464A
:10205C00FEF723F850B1012101AA0748FFF788FFCA
:10206C002046FEF71FF8054800F0D4FD024806B0E4
:10207C0010BD00BFB0010020C80100207B1F0A0862
:10208C00002240681146FEF7ABBEF0B5154689B08C
:10209C0011220E460446002103A800F0CFFD28466D
:1020AC0000F02FFE002781B273682846009703AA20
:1020BC00FEF722FE30B139462046FFF75DFA204686
:1020CC0009B0F0BD204603A9FFF744FAF7E7002258
:1020DC0040681146FEF7A4BE002240681146FEF788
:1020EC00AFBE00224068FEF7A3BE0022406881F01C
:1020FC000101FEF78DBE002340681A461946FEF713
:10210C007FBE002340681A461946FEF771BE0022B6
:10211C0040681146FEF754BE002202214068FEF7CB
:10212C0057BE002340681A46FEF742BE0422024BFB
:10213C005A60024A1A607047E004002074300A08A2
:10214C0010B5044600F0DDFD431E204623448342B7
:10215C0006D90278197800F8011B03F80129F6E773
:10216C0010BD70B50C46911E22291DD8254630B9DC
:10217C00302223449D4210D205F8012BFAE7B0FB24
:10218C00F2F602FB1600C1B2092894BF3031573168
:10219C00C9B2304605F8011BE9E7002320462B7035
:1021AC00FFF7CEFF204670BD0020FCE738B5031EBC
:1021BC000C4615460DDA2D22B3F1004F0CBF184614
:1021CC00584201230A702A461944FFF7CAFF2046D9
:1021DC0038BD0123F9E70000014B1860704700BFC0
:1021EC005400002008B5134B43B1FFF7EBFE036816
:1021FC001B699847002801DDAFF300800E4B43B1FB
:10220C0000F086F903681B699847002801DDAFF3DD
:10221C0000800A4B0BB1AFF30080094B43B1FFF7C1
:10222C000BFF03681B699847002801DDAFF30080A2
:10223C0008BD00BF0000000000000000000000000E
:10224C000000000008B5FFF7CDFFFEF72BFC014B9B
:10225C00186008BD000500200548064A08B5121A8A
:10226C00054900F0DDFC054B054A1A6008BD00BFAE
:10227C00004002400440024030320A080040024054
:10228C001E1C279A002307B51A466FF0770100939E
:10229C00FEF76CFD03B05DF804FB000007B5438846
:1022AC000A2B08D0502B0BD1094B1B684BB103B038
:1022BC005DF804EB1847FFF7E5FF03B05DF804FB8E
:1022CC0000231A466FF077010093FEF74FFDF4E7F9
:1022DC00EC040020002110B51148FEF7F9FD114B5C
:1022EC001A68114B9A420CBF012200220F4B1A7034
:1022FC0001D0FFF7B1FFFEF7CDFB044600F0A6FCC2
:10230C000B4B13B12046AFF3008000210848FEF7B9
:10231C0047FDBDE8104000210648FEF71DBD00BF7B
:10232C00E5210A08004002401E1C279AE804002000
:10233C0000000000A9220A08024B986808B1FEF7B9
:10234C00A1BB7047F4040020172870B5044601D9CE
:10235C00002070BDA0F10D03022B0BD9012824D84D
:10236C0000F088F80021007CFEF7ECFB80F0010007
:10237C00C0B2EEE7124E3178BFF35B8F11F001055E
:10238C000DD13046FDF789FE48B129460D48FFF7BF
:10239C00F3F93046FDF786FE0B4800F03BFC094B89
:1023AC001878FEF729FC0028D2D1123C012C05D854
:1023BC0000F0AEF8007CFEF74FFCD7E70120C8E731
:1023CC00F0040020F404002045230A08172838B52F
:1023DC0004460D460AD8FF2908D0FFF7B5FF28B1EF
:1023EC0029462046BDE83840FEF764BB38BD38B5F9
:1023FC0004460D46FEF766FBFF2810D0062804D8CD
:10240C004D2323FA00F0C30709D42046FFF79CFFA5
:10241C0028B129462046BDE83840FEF75BBB38BDE5
:10242C0010B50446FEF74EFB031FDBB2012B08D997
:10243C002046FFF789FF20B12046BDE81040FEF78B
:10244C0051BB002010BD704770B514232025084ED9
:10245C0004460360314685600561284600F07CF82F
:10246C0031466060284600F077F8E060204670BD89
:10247C00A8300A0830B50E4D87B02978BFF35B8FB2
:10248C0011F0010411D12846FDF707FE68B101A82F
:10249C00FFF7DAFF214601AA0648FFF719F828468C
:1024AC00FDF700FE044800F0B5FB024807B030BD54
:1024BC00040500200805002053240A08002307B552
:1024CC001A46194600930348FFF76CF803B05DF801
:1024DC0004FB00BF1C0500207047000070B51425DC
:1024EC0004462A46002100F0A9FB25808025074ED2
:1024FC00284631462581258200F02EF83146606051
:10250C00284600F029F8E060204670BDA8300A0883
:10251C0030B50E4D87B02978BFF35B8F11F00104F5
:10252C0011D12846FDF7B9FD68B101A8FFF7D6FF18
:10253C00214601AA0648FFF7C9FC2846FDF7B2FD63
:10254C00044800F067FB024807B030BD340500209A
:10255C0038050020E5240A08FDF799BD08B5FEF7FB
:10256C009FFC0000014900F0FBB800BFC4300A0812
:10257C007FB500241023CDE90234036815469E690B
:10258C00CDE900446B461268B0479DF8043003F067
:10259C000603062B09BF01202046009B2B6004B0CC
:1025AC0070BD0098904214BF0120062070470000B7
:1025BC0010B50446024B036000F0CFF8204610BD66
:1025CC0004310A0810B50446FFF7F2FF2046082133
:1025DC00FDF761FD204610BD2DE9F041DDF81880B6
:1025EC001F46DDE9083498450646154607D107997C
:1025FC0000F0B6F818B165710020BDE8F0813946DD
:10260C00304600F0ADF80028F6D00123C4F8008065
:10261C002571A371F0E738B515461C4600F0A0F8FB
:10262C0020B10823E36006232560237138BD2DE912
:10263C00F04105460C4616461F4600F091F848B985
:10264C00032F07D82368324629462046BDE8F041BF
:10265C005B691847BDE8F08110B50446024B036076
:10266C00FFF7A6FF204610BD64310A0810B50446DA
:10267C00FFF7F2FF20460C21FDF70DFD204610BDA3
:10268C002DE9F041DDF81880064690450F461546B9
:10269C001C460BD0B0682A460368CDF818801E6A19
:1026AC0039462346B446BDE8F0416047194600F070
:1026BC0057F80028EED00620BDE8F0812DE9F14F47
:1026CC000D46DDE90A4BDDE90CA619468146174695
:1026DC00984600F045F890B1002D3460377109DB55
:1026EC002C44A2450CBF06240124B471002001B077
:1026FC00BDE8F08F0235F9D10123B371F6E75445EB
:10270C0006D15946484600F02BF808B17771EDE731
:10271C00D9F808003A460368CDE90CA6CDE90A4B76
:10272C00DC6929464346A44601B0BDE8F04F60473A
:10273C002DE9F04107460C4615461E46FFF76BFF88
:10274C0048B9B8682A46036821469F693346BC4697
:10275C00BDE8F0416047BDE8F0817047002070474C
:10276C00814208B50ED0406803782A2B0CD04968FA
:10277C000B782A2B08BF013100F096FAB0FA80F0E2
:10278C00400908BD0120FCE70020FAE781F0004178
:10279C0002E000BF83F0004330B54FEA41044FEA3A
:1027AC00430594EA050F08BF90EA020F1FBF54EAD5
:1027BC00000C55EA020C7FEA645C7FEA655C00F071
:1027CC00E2804FEA5454D4EB5555B8BF6D420CDD42
:1027DC002C4480EA020281EA030382EA000083EAC5
:1027EC00010180EA020281EA0303362D88BF30BD65
:1027FC0011F0004F4FEA01314FF4801C4CEA1131BB
:10280C0002D0404261EB410113F0004F4FEA033319
:10281C004CEA133302D0524263EB430394EA050FA4
:10282C0000F0A780A4F10104D5F1200E0DDB02FA13
:10283C000EFC22FA05F2801841F1000103FA0EF2A7
:10284C00801843FA05F359410EE0A5F120050EF16D
:10285C00200E012A03FA0EFC28BF4CF0020C43FA9E
:10286C0005F3C01851EBE37101F0004507D54FF0AB
:10287C00000EDCF1000C7EEB00006EEB0101B1F5FB
:10288C00801F1BD3B1F5001F0CD349085FEA300041
:10289C004FEA3C0C04F101044FEA445212F5800F4C
:1028AC0080F09A80BCF1004F08BF5FEA500C50F1E9
:1028BC00000041EB045141EA050130BD5FEA4C0CCC
:1028CC00404141EB0101013C28BFB1F5801FE9D229
:1028DC0091F0000F04BF01460020B1FA81F308BF4C
:1028EC002033A3F10B03B3F120020CDA0C3208DD18
:1028FC0002F1140CC2F10C0201FA0CF021FA02F1F3
:10290C000CE002F11402D8BFC2F1200C01FA02F162
:10291C0020FA0CFCDCBF41EA0C019040E41AA2BF87
:10292C0001EB0451294330BD6FEA04041F3C1CDA4F
:10293C000C340EDC04F11404C4F1200220FA04F06F
:10294C0001FA02F340EA030021FA04F345EA030119
:10295C0030BDC4F10C04C4F1200220FA02F001FADB
:10296C0004F340EA0300294630BD21FA04F029465D
:10297C0030BD94F0000F83F4801306BF81F48011F6
:10298C000134013D4EE77FEA645C18BF7FEA655C69
:10299C0029D094EA050F08BF90EA020F05D054EA3B
:1029AC00000C04BF1946104630BD91EA030F1EBF40
:1029BC000021002030BD5FEA545C05D14000494144
:1029CC0028BF41F0004130BD14F580043CBF01F537
:1029DC00801130BD01F0004545F0FE4141F470011D
:1029EC004FF0000030BD7FEA645C1ABF19461046F8
:1029FC007FEA655C1CBF0B46024650EA013406BFF9
:102A0C0052EA033591EA030F41F4002130BD00BFB7
:102A1C0090F0000F04BF0021704730B54FF4806474
:102A2C0004F132044FF000054FF0000150E700BFF5
:102A3C0090F0000F04BF0021704730B54FF4806454
:102A4C0004F1320410F0004548BF40424FF0000141
:102A5C003EE700BF42004FEAE2014FEA31014FEA84
:102A6C0002701FBF12F07F4393F07F4F81F06051D3
:102A7C00704732F07F4208BF704793F07F4F04BF1E
:102A8C0041F40021704730B54FF4607401F00045FB
:102A9C0021F000411CE700BF50EA010208BF70475B
:102AAC0030B54FF000050AE050EA010208BF70474C
:102ABC0030B511F0004502D5404261EB41014FF4B5
:102ACC00806404F132045FEA915C3FF4D8AE4FF0BD
:102ADC0003025FEADC0C18BF03325FEADC0C18BFA0
:102AEC00033202EBDC02C2F1200300FA03FC20FAF1
:102AFC0002F001FA03FE40EA0E0021FA02F114443E
:102B0C00BDE600BF4FF0FF3C06E000BF4FF0010CEC
:102B1C0002E000BF4FF0010C4DF804CD4FEA410C20
:102B2C007FEA6C5C4FEA430C18BF7FEA6C5C1BD0ED
:102B3C0001B050EA410C0CBF52EA430C91EA030F6E
:102B4C0002BF90EA020F0020704710F1000F91EACB
:102B5C00030F58BF994208BF90422CBFD8176FEA99
:102B6C00E37040F0010070474FEA410C7FEA6C5C67
:102B7C0002D150EA013C07D14FEA430C7FEA6C5C6E
:102B8C00D6D152EA033CD3D05DF8040B704700BF9A
:102B9C008446104662468C461946634600E000BFE8
:102BAC0001B5FFF7B7FF002848BF10F1000F01BDBA
:102BBC004DF808EDFFF7F4FF0CBF012000205DF885
:102BCC0008FB00BF4DF808EDFFF7EAFF34BF01200A
:102BDC0000205DF808FB00BF4DF808EDFFF7E0FFA3
:102BEC0094BF012000205DF808FB00BF4DF808EDF4
:102BFC00FFF7CEFF94BF012000205DF808FB00BF5B
:102C0C004DF808EDFFF7C4FF34BF012000205DF83C
:102C1C0008FB00BF002301461A46184600F07AB89C
:102C2C000A44914200F1FF3300D1704710B511F8FE
:102C3C00014B914203F8014FF9D110BD03460244F8
:102C4C00934200D1704703F8011BF9E738B5104BDC
:102C5C0004461D68AB6BB3B91820FEF709F90246A0
:102C6C00A86320B942210B4B0B48FEF729F90B49FD
:102C7C000B4BC0E900130B4B002183600B238381AA
:102C8C000120C2E904010022AB6B1C615A6138BD02
:102C9C00540000209D310A08B4310A080E33CDAB24
:102CAC0034126DE6ECDE050010F8012B11F8013B37
:102CBC00012A28BF9A42F7D0D01A7047034611F860
:102CCC00012B03F8012B002AF9D17047024B014666
:102CDC00186800F003B800BF5400002070B504461B
:102CEC0008460D4600F00DF8461C31462046FEF70E
:102CFC00DFF8044618B132462946FFF791FF20460B
:102D0C0070BD034613F8012B002AFBD1181A0138A9
:102D1C00704700002DE9F843DFF8AC800646D8F880
:102D2C0000001F460D46914600F058F8274B1C68D2
:102D3C0034B9274C1C60274B13B11B68C4F888307E
:102D4C0063681F2B07DDD8F8000000F049F84FF03E
:102D5C00FF30BDE8F8835EB3D4F8880088B91E4B09
:102D6C0023B9D8F8000000F03AF8F0E74FF484707B
:102D7C00FEF77EF80028F4D00023C0E94033C4F8F5
:102D8C00880001226368022E40F8239002FA03F2B5
:102D9C0000EB8301D0F8003143EA0203C0F80031A4
:102DAC00C1F8807002BFD0F804311343C0F804316D
:102DBC006368D8F800005A1C0233626044F8235050
:102DCC0000F00EF80020C4E7B8000020D805002061
:102DDC004C050020000000007D0E0A08704770476B
:102DEC00704700001D000A085D000A0885000A08EB
:102DFC0089000A08000000006D71747420726574FB
:102E0C0075726E20636F6465203D2000436F6E6E9B
:102E1C00656374696F6E2064726F707065640044D2
:102E2C0069616C656420005374617274206D652057
:102E3C0075702E2E2E006462756700436F6E6E6582
:102E4C006374656420746F204841004D51545400E4
:102E5C004661696C656420636F6E6E6563742048AF
:102E6C0041202D20636865636B2073656372657404
:102E7C00732E680068612F726F746172792F6E7592
:102E8C006D6265720068612F726F746172792F6464
:102E9C0069676974004449414C45520055573231B9
:102EAC006D717474007574696C736D717474000059
:102EBC00044D5154540400064D5149736470030081
:102ECC0000000000000000001B0F0A08210F0A0878
:102EDC00710F0A082F0F0A081D0F0A0800000000C6
:102EEC000000000085140A08CF140A08A7140A0869
:102EFC0087140A08AF140A08B7140A08BF140A0882
:102F0C00C7140A08000000000000000003150A089E
:102F1C0001150A0835150A086170700000000000E0
:102F2C0000000000F9150A0803160A080D160A0815
:102F3C0017160A0821160A082D160A0839160A0847
:102F4C0041160A0849160A0855160A085D160A0899
:102F5C0067160A0871160A08776972696E67005459
:102F6C004350436C69656E7420736F636B65743D7D
:102F7C00257800000000000000000000C5190A08B8
:102F8C00ED190A08DB1D0A08FB190A08C9190A08F9
:102F9C000000000000000000000000000000000025
:102FAC00011A0A08351A0A084D190A0867190A087D
:102FBC00DD1B0A088F190A08691A0A08C3190A08BE
:102FCC00FD1A0A08E11D0A08971A0A08511C0A087A
:102FDC00FF1C0A08B71C0A0877190A08C51C0A083E
:102FEC00491A0A0825592D256D2D25645425483A72
:102FFC00254D3A2553257A0061736374696D65001C
:10300C000000000000000000611E0A08C91E0A082A
:10301C00A51E0A08ED160A08751E0A08911E0A0854
:10302C00831E0A089F1E0A08631E0A08671E0A08E8
:10303C000000000000000000071F0A086D1F0A08AE
:10304C00451F0A08ED160A08371F0A08091F0A0847
:10305C00191F0A08671F0A08291F0A08011F0A08F6
:10306C0000000000000000002F210A0825210A089A
:10307C001B210A088D200A080F210A0803210A08BF
:10308C0039160A0841160A08F7200A08EF200A0820
:10309C00E5200A08DB200A0897200A08005374313F
:1030AC00395F53705F6D616B655F736861726564E6
:1030BC005F7461670000000004310A08A9300A0837
:1030CC0064310A08D8300A0888310A084E31305F5A
:1030DC005F637878616269763131375F5F636C6109
:1030EC0073735F747970655F696E666F450000007D
:1030FC0000000000CC300A08BD250A08D1250A08BA
:10310C0069270A0869270A083B260A087D250A0848
:10311C0023260A08E5250A08AF250A0864310A089F
:10312C0034310A08CC300A084E31305F5F6378784E
:10313C00616269763132305F5F73695F636C6173B2
:10314C00735F747970655F696E666F45000000008F
:10315C000000000028310A0865260A0879260A08AA
:10316C0069270A0869270A083B260A087D250A08E8
:10317C003D270A08C9260A088D260A0804310A08C0
:10318C0090310A08537439747970655F696E666F93
:10319C00005245454E54206D616C6C6F6320737505
:1031AC0063636565646564002F746D702F6A656E6A
:1031BC006B696E732D4743432D31302D70697065EB
:1031CC006C696E652D34385F3230323031313234C7
:1031DC005F313630363138303633392F7372632FD6
:1031EC006E65776C69622F6E65776C69622F6C699E
:1031FC0062632F7374646C69622F72616E642E63E8
:10320C000000000075040A08E9150A08D9160A0816
:10321C0079170A0829190A084D1E0A0839210A08C3
:04322C00C9240A089F
:04323000000000009A
:10323400A12E0A08A82E0A08B12E0A086861737321
:10324400696F2E64656570626C756562657272790A
:103254002E636F6D00000000802E0A08000000003D
:1032640000000000000059400200000001000000BE
:103274000100000000000000000000000070A740F2
:1032840004300A085800002000000000000000007C
:10329400000000000000000000000000000000002A
:1032A400000000000000000000000000000000001A
:1032B400000000000000000000000000000000000A
:1032C40000000000000000000000000000000000FA
:1032D40000000000000000000000000000000000EA
:0C32E4000000000000000000DC050020DD
:1032F000FFFFFFFF00000102030405060708090A9B
:103300000B0C0D0E0F101112131415161718191A95
:083310001B1C1D1E1F202800DC
:04331800785634129D
:04000005080A001CC9
:00000001FF
