:02000002B0004C
:1040000000400B008C740B00000006000C00050241
:084010000401A30F00000000F1
:04401800F86E0B0033
:10401C0009480A49884208B505D0094A824202D0AB
:10402C00121A02F081FE0748074A0021121A02F008
:10403C0089FE014808BD00BF40E50320A8730B00B2
:10404C00FCE5032000E60320F1E7032070B5074EE2
:10405C00074C02F0DFF9A41BA4080025AC4200D1E8
:10406C0070BD56F8043B98470135F7E750730B00C9
:10407C0074730B0000F0AAB908B500F0D9F8BDE8CC
:10408C00084002F07FB900F0FDBE00F0FBBE00F06E
:10409C0001BF00F0FFBE0078B0FA80F04009704715
:1040AC00012303707047000013B5054B1B788DF886
:1040BC0000303C23044601F08BF8204602B010BDC2
:1040CC0000E603202DE9F041DFF8348007460C466A
:1040DC0016460025BD4211DA0121B8F8000002F0A5
:1040EC001AFA204600F00EFFB8F80000002102F08A
:1040FC0012FA301B00F006FF0135EBE7BDE8F0814A
:10410C0088E6032038B5046805467CB16368013B3A
:10411C0063605BB9236820469B689847A368013BA2
:10412C00A3601BB923682046DB689847284638BD36
:10413C00B0B502F1080384B023F0070302AFADEB76
:10414C00030D02AD1446284602F0EEFD00232B555C
:10415C00084B09491B788DF800302A464FF46163EF
:10416C00384601F035F8381DFFF7CCFF0837BD464F
:10417C00B0BD00BF01E60320B46F0B0030B50446A0
:10418C0087B064200D4600F0BDFE224800F0CDFA49
:10419C0008B321462A681F4800F043FC0446002857
:1041AC0036D14FF47A7000F0ADFE21460A2202A8F7
:1041BC0001F023FC029A18496846FFF775FF01A825
:1041CC00FFF7A0FF02A801F08DFB124807B0BDE875
:1041DC00304000F071BA4FF47A7000F093FE0F4A41
:1041EC000F4902A8FFF760FF03A8FFF78BFF0D4BE9
:1041FC000D4A0E491B6812680968064800F086FBD8
:10420C002A680448214607B0BDE8304000F009BCDC
:10421C0007B030BD08E603200C6F0B00206F0B00BD
:10422C00B46F0B0044E5032048E5032040E5032070
:10423C002DE9F04F192087B000F064FE524B534C1F
:10424C001888534D02F080F9206000F027FC02F032
:10425C0063FCD5E9002302F021FB4E4BD3E900238C
:10426C0002F052FD00283CD0DFF8589199F800304C
:10427C00002B36D048494948DFF83C81484EDFF8DE
:10428C001CB101F0A8FBC24600273368BB4206DD17
:10429C005AF8041B584601F0DAFB0137F5E7414B9D
:1042AC003E491F6802A801F08BFB384602A9FFF7B4
:1042BC0065FF02A801F016FB00273368BB420CDD3A
:1042CC0058F8040B4FF4FA72FA21FFF7FBFE4FF487
:1042DC002F7000F017FE0137EFE7002389F800304C
:1042EC00336000F0DBFB02F017FCD5E9002302F091
:1042FC00D5FA2D4BD3E9002302F006FD20B32B4F4A
:10430C003B780BB32A4E33680A2202A893FBF2F1D6
:10431C0002FB113101F071FB029A26496846FFF746
:10432C00C3FE01A8FFF7EEFE02A801F0DBFA1C4A5F
:10433C0021491368306841F82300013313601F4A88
:10434C0000233B70336013601D4E226833689A4221
:10435C0017D000F0A3FB02F0DFFB1A4B01221A70FE
:10436C00194A2368C5E9000111688B4208D0012B5A
:10437C00136005D10E490A6801320A600B4A1370AA
:10438C00336007B0BDE8F08F78E50320B8E6032072
:10439C0080E6032088E503201F6F0B006CE60320EA
:1043AC00B4E6032068E5032070E503207DE60320D6
:1043BC0068E60320336F0B008CE6032004E6032031
:1043CC007CE503207CE6032080E503201FB5194B18
:1043DC000221188802F08EF8174B0121188802F080
:1043EC0089F8164B164A1B7816498DF8003002A82E
:1043FC004FF4616300F0ECFE03A8FFF783FE124B51
:10440C00124A13491B6812680968124800F07EFAB8
:10441C00104800F08AF950B10F4A104902A8FFF772
:10442C0043FE03A8FFF76EFE05B05DF804FB0C4AD3
:10443C00F3E700BF78E5032088E6032001E60320BC
:10444C003B6F0B004A6F0B0044E5032048E503204B
:10445C0040E5032008E603204F6F0B005F6F0B0055
:10446C00646F0B000B4B13B500241C700A4B0B49EB
:10447C000B4801221A7001F080FA0A4B00930A498A
:10448C0001944FF4E16340F25B72084800F054F879
:10449C0002B010BD00E6032001E603201F6F0B00E5
:1044AC006CE603203D410B004CE5032008E603209D
:1044BC0091F85C3010B50446016013B1886D00F0C2
:1044CC00CDFA204610BD10B5036893F85C20044665
:1044DC0012B1986D00F0CAFA204610BDF8B51F460F
:1044EC009DF8243004460D4616462BB1012380F866
:1044FC005C30583000F0AAFA089B236300236363F6
:10450C0006B1A66425B1294604F1380001F063FA1E
:10451C00069B2365079BE069A4F84C70FF2BB8BF82
:10452C00FF23A4F8543008B1FFF7B1FDB4F85400E0
:10453C00FFF7ABFDE061F8BD2DE9FF410446002516
:10454C00174698460E4601F081FD0D49E56104F1D0
:10455C00380001F012FA9DF82C3003930A9BA564E5
:10456C00CDE901830F230093204684F85C503B4631
:10457C002A463146FFF7B2FF204604B0BDE8F08171
:10458C001F6F0B0010B50446204601F0BBFC002841
:10459C00FAD0204601F0A0FAC0B210BD2DE9F047C8
:1045AC0005468846FFF7EEFFEB691870EB6993F848
:1045BC0000A04FF001090AF0F00A00274C462846EB
:1045CC00FFF7E0FF2646EB69985500F07F0313FBDD
:1045DC0009F31F4401340306A4B2BFB24FEAC91950
:1045EC00EDD4631EBAF1300F88F800301ED1284686
:1045FC00FFF7C8FFEB6918552846FFF7C3FFF41CFB
:10460C000236B6B2EB69A4B298550226B6B2BE42D7
:10461C000ED22846FFF7B6FFB5F85430A34284BF3C
:10462C00EB6918550134A4B20136EFE70026EDE72B
:10463C00B5F85430A3422CBF20460020BDE8F087CB
:10464C002DE9F34115461E461A46074600239646A9
:10465C0002A802F07F0CBEF17F0F03F101040344AA
:10466C0088BF4CF0800CBEF17F0F4FEAD212E4B23F
:10467C0003F804CC1ED8C4F10403C4F10500E954BA
:10468C00224601A9284405EB030802F04DFB721CDD
:10469C0022444146384601F00AFA054600F0FEF97C
:1046AC00621C78623244A8B2131A5842584102B0C4
:1046BC00BDE8F0812346CAE713B50446014601A8BC
:1046CC00FFF7F6FEE369E0221A70E36900225A70E4
:1046DC00E1690222204601F0EAF9204601F06CFC67
:1046EC0000F0DCF9C4E9090001A8FFF7ECFE02B008
:1046FC0010BD0233F0B5054698B20023CE5C9CB2D7
:10470C0056B1B5F854C0844503F1010704D9441CD3
:10471C0016543B46A0B2F1E799B2411A0A44210A59
:10472C0002F8021C02F8013CF0BD38B5044601F059
:10473C000BFB002814BF0125002502D1204601F0F7
:10474C003BFC284638BD00002DE9F04788B00446F4
:10475C00DDF840809DF850A0894617461E46FFF7AD
:10476C00E4FF0546002840F0CD80214601A8FFF764
:10477C009FFEA16C002940F08880B4F84C20A16BFE
:10478C002B46204601F062FA00287AD001232384BC
:10479C009DF85430E269042B5B4B40F08180186823
:1047AC0099889B79ADF80C108DF80E300290C2F8F8
:1047BC0005009DF80E30BDF80C10A2F80910D3724C
:1047CC000C23B8F1000F00F081809DF848009DF893
:1047DC004420400140EAC20040F00600C0B2BAF1E9
:1047EC00000F01D100F0FD001FB1002E70D140F080
:1047FC008000E269D054226DE169581C12120A54EF
:10480C009A1CE169206D88540333E26949462046BD
:10481C00FFF76FFF0346B8F1000F0BD0E26941467A
:10482C002046FFF766FFE269139903462046FFF71F
:10483C0060FF034667B1E26939462046FFF759FF2E
:10484C0003462EB1E26931462046FFF752FF03467C
:10485C00053BE2699BB210212046FFF7F1FE00F008
:10486C001DF9C4E909004FF47A76204601F04AFBA1
:10487C0088BB00F013F9A36AC01A236D73439842E6
:10488C00F3D9204601F098FB35E002A800F006FFB2
:10489C00B4F84C202B4602A9204601F0B7FA73E776
:1048AC00D3F80700D3F80B10DB7B0DF1080CACE848
:1048BC0003008CF8003002AB03CBC2F80500C2F841
:1048CC0009109CF8003053730E237AE7022086E718
:1048DC0040F0C0008DE702A92046FFF75FFE0428D8
:1048EC00CFD1E369DE78002ECBD100F0D7F80125CB
:1048FC00A06284F82C6001A8FFF7E5FD284608B0FB
:10490C00BDE8F0870025F9E7C36F0B0010B54FF039
:10491C00040C86B00124CDE9044C0024CDE90244FA
:10492C00CDE90044FFF710FF06B010BD2DE9F74F9D
:10493C00DDF83C809DF834509DF8389004468B4649
:10494C0016461F46FFF7F1FE8246002851D021463D
:10495C0001A8FFF7ADFDB4F85420E069002102F086
:10496C00F1F90523E26959462046FFF7C2FE6B1E9A
:10497C00012B15D8218CE369013189B22184090AF4
:10498C001954421CE369218C92B20230995480B2C2
:10499C00B8F1000F04D0238C5A1C2284A8F80030E4
:1049AC0000210B188F42E2699BB20AD9B4F854C0AB
:1049BC009C4506D916F801C002F803C0013189B232
:1049CC00EFE79DF8301000290CBF30213121B9F1EF
:1049DC00000F01D041F00801022D0ED141F004016D
:1049EC00053B9BB22046FFF72BFE824601A8FFF742
:1049FC006AFD504603B0BDE8F08F012D08BF41F0B1
:104A0C000201EDE71FB5089C0394002402949DF865
:104A1C001C4001949DF818400094FFF787FF04B0E8
:104A2C0010BD30B587B0044610460591049202F0D3
:104A3C00EEF900250346CDE90155DDE90421009589
:104A4C002046FFF7DFFF07B030BD000008B5024B72
:104A5C001B681B6B019308BD4802030008B5024B91
:104A6C001B689B6B019308BD4802030008B5024B01
:104A7C001B681B6C019308BD4802030008B5024B70
:104A8C001B685B6C019308BD4802030008B5024B20
:104A9C001B685B68019308BD1802030008B5024B44
:104AAC001B685B69019308BD1802030008B5024B33
:104ABC001B689B68019308BD2C02030008B5024BD0
:104ACC001B68DB68019308BD2C02030008B5024B80
:104ADC001B681B69019308BD2C02030008B5024B2F
:104AEC001B685B69019308BD2C02030008B5024BDF
:104AFC001B681B6A019308BD2802030008B5024B12
:104B0C001B685B6A019308BD2802030008B5024BC1
:104B1C001B689B6A019308BD2802030008B5024B71
:104B2C001B68DB6A019308BD2802030008B5024B21
:104B3C001B681B6B019308BD2802030008B5024BD0
:104B4C001B685B6B019308BD2802030008B5024B80
:104B5C001B681B6C019308BD2802030008B5024BAF
:104B6C001B685B69019308BD6C02030008B5024B1E
:104B7C001B685B69019308BD6402030008B5024B16
:104B8C001B681B6A019308BD6402030008B5024B45
:104B9C001B689B6A019308BD6402030008B5024BB5
:104BAC001B689B68019308BD6802030008B5024BA3
:104BBC001B68DB68019308BD6802030008B5024B53
:104BCC001B689B69019308BD3802030008B5024BB2
:104BDC001B68DB69019308BD3802030008B5024B62
:104BEC001B681B6A019308BD3802030008B5024B11
:104BFC001B689B6A019308BD3802030008B5024B81
:104C0C001B681B6B019308BD3802030008B5024BEF
:104C1C001B689B6B019308BD3802030008B5024B5F
:104C2C001B68DB69019308BD3002030008B5024B19
:104C3C001B681B6A019308BD3002030008B5024BC8
:104C4C001B68DB68019308BD3C02030008B5024BEE
:104C5C001B681B69019308BD3C02030008B5024B9D
:104C6C001B685B69019308BD3C02030008B5024B4D
:104C7C001B689B69019308BD3C02030008B5024BFD
:104C8C001B68DB69019308BD3C02030008B5024BAD
:104C9C001B681B6A019308BD3C02030008B5024B5C
:104CAC001B689B6A019308BD3C02030008B5024BCC
:104CBC001B681B6C019308BD3C02030008B5024B3A
:104CCC001B681B68019308BD4C02030008B5024B1E
:104CDC001B681B69019308BD4C02030008B5024B0D
:104CEC001B685B69019308BD4C02030008B5024BBD
:104CFC001B689B69019308BD4C02030008B5024B6D
:104D0C001B68DB69019308BD4C02030008B5024B1C
:104D1C001B681B6A019308BD4C02030008B5024BCB
:104D2C001B681B6D019308BD6002030008B5024BA4
:104D3C001B685B68019308BD2002030008B5024B99
:104D4C001B685B69019308BD2002030008B5024B88
:104D5C001B68DB6C019308BD2002030008B5024BF5
:104D6C001B685B6D019308BD2002030008B5034B63
:104D7C001B68D3F88830019308BD000020020300A3
:104D8C0008B5034B1B68D3F89430019308BD0000A1
:104D9C002002030008B5024B1B685B69019308BD38
:104DAC004402030008B5024B1B681B6A019308BD43
:104DBC004402030008B5024B1B68DB6B019308BD72
:104DCC004402030008B5024B1B685B68019308BDE5
:104DDC004002030008B5024B1B689B68019308BD99
:104DEC004002030008B5024B1B68DB68019308BD49
:104DFC004002030008B5024B1B681B69019308BDF8
:104E0C004002030008B5024B1B685B69019308BDA7
:104E1C004002030008B5024B1B689B69019308BD57
:104E2C004002030008B5024B1B68DB69019308BD07
:104E3C004002030008B5024B1B681B6A019308BDB6
:104E4C004002030008B5024B1B681B6B019308BDA5
:104E5C004002030008B5024B1B685B6B019308BD55
:104E6C004002030008B5024B1B681B6C019308BD84
:104E7C004002030008B5024B1B685B6C019308BD34
:104E8C004002030008B5024B1B681B68019308BD68
:104E9C001C02030008B5024B1B685B68019308BD3C
:104EAC001C02030008B5024B1B689B68019308BDEC
:104EBC001C02030008B5024B1B68DB6A019308BD9A
:104ECC001C02030008B5024B1B681B6B019308BD49
:104EDC001C02030008B5024B1B68DB6B019308BD79
:104EEC001C02030008B5024B1B681B6C019308BD28
:104EFC001C02030008B5024B1B685B6C019308BDD8
:104F0C001C0203000021FFF719BF10B5836804468B
:104F1C000BB901F0A9FBC3689847A3681BB1032226
:104F2C0021462046984720461021BDE81040FFF747
:104F3C00B0B810B58368044613B1032201469847F4
:104F4C00204610BD13B50B460246D0E900016C4655
:104F5C0084E8030093E8030082E8030094E803006C
:104F6C0083E8030002B010BD024800230360FFF782
:104F7C0085BD00BFBCE6032070470020704710B50C
:104F8C0010210446FFF785F8204610BD08B5FFF741
:104F9C00F6FF08BD30B500224FF69C740260848089
:104FAC008D888C800C68858004600A6030BD10B5DB
:104FBC0004460068FFF76EFF204610BD38B5C46884
:104FCC00F4B12378022B03D104F10C00FFF7EFFFAF
:104FDC00656835B12846FFF7ACFF10212846FFF76E
:104FEC0058F8A56835B12846FFF7A3FF10212846CD
:104FFC00FFF74FF820461421BDE83840FFF749B8B9
:10500C0038BD0B6803604B68436013B15A680132BA
:10501C005A60704737B5044668460D46FFF7F1FFF6
:10502C00009B019A23606260002301A80193009306
:10503C00FFF768F835B1281DFFF764F808212846FA
:10504C00FFF727F8204603B030BD826810B50AB9C7
:10505C0001F00AFBBDE81040C368184708B50068AA
:10506C0000F11001FFF7F1FF08BD826810B50AB915
:10507C0001F0FAFABDE81040C368184708B500689B
:10508C0000F11001FFF7F1FF08BD000038B5002357
:10509C000446036010200D46FEF7F5FF28B10123EE
:1050AC00C0E90133024B0360C5602060204638BD67
:1050BC00E46F0B0038B5002383608B6804460D4603
:1050CC002BB102229847EB68E360AB68A3602046E3
:1050DC0038BD0000F0B589B004686846FFF75AFF88
:1050EC004FF00203D4E84F2F002A03D1C4E8413F0C
:1050FC000029F7D125D104F10C0569462846FFF7A4
:10510C0049FFBFF35B8F01236370002004F1080398
:10511C00BFF35B8F53E8006F43E80002002AF9D11C
:10512C00BFF35B8F6EB1FFF711FE78B129463046A5
:10513C00FFF78BFF3046FFF7FCFE10213046FEF7E1
:10514C00A8FF6846FFF733FF09B0F0BD314602A84F
:10515C00FFF7B0FFE068B4F9105008B101F03AFE67
:10516C0006901020ADF81C50FEF78DFF0546E8B1F7
:10517C00002787601820FEF786FF044688B1014699
:10518C00876002A8FFF7DEFE049BA268A360059B64
:10519C00049206A9E268E36004F110000592FFF79F
:1051AC00F9FE084BEB60084B2C60AB6006A8FFF7D0
:1051BC00FEFE02A8FFF7BDFE002229460348FFF7BA
:1051CC00CDFDB7E769500B00ED520B00174F0B00EC
:1051DC002DE9F04F8BB005469DF850A00F46904638
:1051EC009946FFF7D7FD07AE834638BB4FF62E73B3
:1051FC00059005A93046ADF81830FFF7CBFE14200A
:10520C00FEF741FF044648B1022303700123C0E9B5
:10521C0001BB437031460C30FFF7BCFE28462146DB
:10522C0040F8044BFFF732FF3046FFF7C0FE05A8ED
:10523C00FFF7BDFE28460BB0BDE8F08F0C23002411
:10524C001420CDE908440793FEF71DFF014618B161
:10525C00C0E901440470447004A80391FFF716FFE1
:10526C001E4B08930820FEF70EFF044610B103A94D
:10527C00FFF7C7FE00965FFA8AF34A464146384666
:10528C000994FFF78FFDB8B9039B5B7803F0FF021D
:10529C0093B94FF69C7305A903A80592ADF8183085
:1052AC00FFF718FF05A8FFF782FE05A80999FFF77D
:1052BC00B1FE06A8FEF726FF03A905A8FFF7A1FE7D
:1052CC00059B069A2B606A60002306A8069305933B
:1052DC00FEF718FF04A8FEF715FFABE769530B00A8
:1052EC00012AF8B5054603D10B6803600020F8BD10
:1052FC00022A10D0032AF9D10468002CF6D004F14C
:10530C001000FFF754FE2046FFF713FE182120462D
:10531C00FEF7BFFEEAE718200E68FEF7B4FE04465F
:10532C0050B13146FFF7C6FE3069B6F9147008B1BA
:10533C0001F050FD2061A7822C60D7E738B500231F
:10534C0083608B6804460D462BB102229847EB68AC
:10535C00E360AB68A360204638BD0000F0B589B0AF
:10536C0004460D4601A81146FFF754FEA4B124B221
:10537C001DB1284601F02EFD054601A803A9039591
:10538C00ADF81040FFF7A6FE03A8FFF710FE02A829
:10539C00FEF7B8FE09B0F0BD019D0123D5E84F2FF3
:1053AC00002A03D1C5E8413F0029F7D1EFD12B7377
:1053BC00BFF35B8F6B702B1DBFF35B8F53E8006FDC
:1053CC0043E80042002AF9D1BFF35B8F002EDED0F8
:1053DC002046FFF7BBFC074660B105F10C013046D7
:1053EC00FFF743FE3046FFF7A4FD10213046FEF7D1
:1053FC0050FECCE7314603A8FFF7A0FF2B7B8DF8BE
:10540C001C301020FEF73FFE0546D0B187601420FB
:10541C00FEF739FE044678B18760014603A8FFF712
:10542C0091FD059BA268A360069B0592E268E36070
:10543C009DF81C3006922374064BEB60064B2C60D7
:10544C00AB6003A8FFF775FD002229460348FFF760
:10545C0085FCC7E789500B006D540B00174F0B00F0
:10546C00012A70B5044603D10B680360002070BD9F
:10547C00022A0CD0032AF9D10468002CF6D020465D
:10548C00FFF757FD14212046FEF703FEEEE714202C
:10549C000E68FEF7F8FD054620B13146FFF74EFFCA
:1054AC00337C2B742560E1E7002240681146FFF73E
:1054BC00C1BC002240681146FFF7CCBC40680022FA
:1054CC00FFF7C0BC4068002281F00101FFF7AABCC5
:1054DC00002340681A461946FFF79CBC002340681D
:1054EC001A461946FFF78EBC002240681146FFF79A
:1054FC0081BC002240681146FFF76CBC406800225A
:10550C000221FFF76FBC002340681A46FFF75ABC14
:10551C00024B03225A60024A1A607047C0E603200D
:10552C0000700B007047F8B5064615460C468F18F0
:10553C00BC4206D0336814F8011B9B683046984770
:10554C00F6E72846F8BD007C0022FFF7CFBA007CB6
:10555C000021FFF7D3BA007C0021FFF7D7BA007CFB
:10556C000021FFF7DBBA007C0021FFF7DFBA10B592
:10557C0014210446FEF78DFD204610BD10B54FF4E6
:10558C007A73044608460021C4E90113034B2360D7
:10559C0020741146FFF7DAFA204610BD3C700B0060
:1055AC00704710B518210446FEF773FD204610BD58
:1055BC00F0B5037D062B8DB00E4600F104074FF0BD
:1055CC00000412D000F1080515F8011D0A2230461E
:1055DC0000F059F9AF42044419D0002CF4D02E211C
:1055EC00304600F04DF90444EEE72F236A46394665
:1055FC000A208DF80040FFF7B9FA684601F007FC65
:10560C0033680246DB6869463046984704462046B4
:10561C000DB0F0BD10B5054B0446112240F8043B0B
:10562C00002101F08FFB204610BD00BF64700B0001
:10563C000346074A10B543F8042B01F1100251F848
:10564C00044B43F8044B9142F9D10A781A7010BDFF
:10565C0064700B00037D042B04D14068003818BF24
:10566C0001207047062B07D143683BB983682BB9DF
:10567C00C3681BB90069F1E700207047012070472F
:10568C0010B59DF8084044EA032343EA024242EA7B
:10569C00016104234160037510BD000007B5064B82
:1056AC000360CB7800938B784A780978FFF7E8FF92
:1056BC0003B05DF804FB00BF64700B00014B024AA1
:1056CC001A607047C8E6032070700B000023406816
:1056DC001A46FFF777BB406800220221FFF782BB16
:1056EC00002240681146FFF775BB00224068114646
:1056FC00FFF780BB002340681A461946FFF782BBB0
:10570C00002340681A461946FFF784BB4068002105
:10571C00FFF7A8BB40680021FFF7ACBB4068002234
:10572C0081F00101FFF77EBB40680022FFF78ABBC6
:10573C00002240681146FFF78DBB002240681146DD
:10574C00FFF778BB2DE9F04395B014460D4607469C
:10575C00FFF760FF00211C220DA8009101F0F2FA66
:10576C0040230C9320466B460CAA0021FFF71EFA2F
:10577C00044600284BD1024601216868FFF73AFB2A
:10578C000221804622466868FFF734FB009E814662
:10579C002146002E3BD0002939D17368022B03D04F
:1057AC000A2B11D0F669F4E7B8F1000FFAD0716941
:1057BC0006A8043107ADFFF771FF0FCD3C1D0FC4D8
:1057CC002B6823704146EDE7B9F1000FEAD07469FC
:1057DC00102201A801F0B6FA06238DF8143001ADA1
:1057EC0004F108031834186859682A4603C20833B0
:1057FC00A3421546F7D101A906A807ADFFF718FF7C
:10580C000FCD3C1D0FC42B6823704946CAE7009886
:10581C00FFF7C4F9384615B0BDE8F083024B034AD4
:10582C001A6000225A607047CCE603207C700B0093
:10583C00F8B506460D468F180024BD420CD03368CF
:10584C0015F8011B9B6830469847031E01DB1C446E
:10585C00F3E7002C08BF1C462046F8BD13B50446E0
:10586C00084659B1019101F0D2FA23680199DB681D
:10587C000246204602B0BDE81040184702B010BDE9
:10588C0003689B68184730B58BB00023012A8DF84C
:10589C00243098BF0A2209AC0D46B1FBF2F101FB92
:1058AC00125303F0FF03092B94BF30333733DBB2B1
:1058BC00AA4204F8013DEFD92146FFF7CFFF0BB008
:1058CC0030BD0000014B00229A607047D4E60320E3
:1058DC0010B5044608462170FFF7A0F90023636059
:1058EC00204610BD10B504460068FFF7D3FA2046D9
:1058FC0010BD10B50446006808B1FFF7CBFA0023C1
:10590C00C4E90133236010BD38B504460D46006868
:10591C000131FFF7C7FA10B1C4E90005012038BD09
:10592C0010B50368044623B143688B4201D30120B0
:10593C0010BD2046FFF7E8FF0028F9D0A368002B24
:10594C00F5D122681370F2E737B50D461146019276
:10595C000446FFF7E5FF019A28B92046FFF7C9FF77
:10596C00204603B030BDA2602946206801F0DCF966
:10597C002268A3680021D154F2E7002313B5C0E9D3
:10598C00003304468360037341B10846019101F072
:10599C003EFA019902462046FFF7D6FF204602B098
:1059AC0010BD884210B5044605D00B682BB18A682F
:1059BC001946FFF7C9FF204610BDFFF79AFFFAE71B
:1059CC0010B500230446C0E9003383600373FFF76E
:1059DC00E8FF204610BD13B5044659B108460191A5
:1059EC0001F015FA019902462046FFF7ADFF20465B
:1059FC0002B010BDFFF77DFFF9E710B504468AB081
:105A0C000023C4E90033A3602373084601A900F006
:105A1C0081FC01A92046FFF7DEFF20460AB010BD2D
:105A2C0070B505460E4609B9002070BD6AB1846890
:105A3C0014442146FFF774FF0028F5D02868AB68A2
:105A4C003146184401F0BEF9AC600120EDE713B506
:105A5C000A2204460846694600F05CFC684601F0E0
:105A6C00D6F9694602462046FFF7DAFF02B010BDB0
:105A7C00054B02221A60054B054A9A600020C3E9C7
:105A8C000000FFF753B900BFF0E60320E4E6032063
:105A9C000000FFFF13B503688DF80710DC6B0122C3
:105AAC004FF0FF330DF10701A04702B010BD10B449
:105ABC000368DC6B4FF0FF33A4465DF8044B604782
:105ACC0013B5134602688DF80710D46B0DF107015E
:105ADC000122A04702B010BD10B54369B3F886206F
:105AEC00B3F884309A42044608D06369B3F8842032
:105AFC00511CA3F884101344187910BD03681B695A
:105B0C0098470028F1D14FF0FF30F6E77047436912
:105B1C001868C043C00F704770470000064B99428D
:105B2C0010B500F10C0405D0084600F0A1FD0028CA
:105B3C0008BF0024204610BDD46F0B0010B5AC215B
:105B4C000446FEF7A6FA204610BDAC21FEF7A1BA1A
:105B5C002DE9F0414FF0000886B01C46C0F80480D7
:105B6C0005460E4617464146102202A801F0EAF8F7
:105B7C00631C09D04FF47A73B4FBF3F203FB1244A9
:105B8C00CDE902285C4304946869102300930068F3
:105B9C0002AB41F2050240F6FF71FFF70FF8002847
:105BAC0007DAFFF797F903686B60002006B0BDE8D1
:105BBC00F0816869002300683A463146FFF71EF809
:105BCC00031EEEDB1846F1E738B584690A4B036017
:105BDC0005467CB16368013B63605BB92368204672
:105BEC009B689847A368013BA3601BB923682046B8
:105BFC00DB689847284638BDEC700B0010B504469E
:105C0C00FFF7E2FF20461C21FEF743FA204610BDA9
:105C1C0030B587B0044601AD6846FFF73FFD0FCDA8
:105C2C0004340FC42B68237007B030BD70B54D69B8
:105C3C00054B04468C3544F8043B06460FCD0FC487
:105C4C002B682370304670BD64700B002DE9F04357
:105C5C009846036893B00D460024DB6A0646174647
:105C6C00984728466B46224621460094FEF79EFF35
:105C7C000546002863D1009B002B4BD05B69002BA1
:105C8C0048D006A8FFF7C6FC009B5C696378022B22
:105C9C0004D1211D06A8FFF7BBFF26E00A2B24D157
:105CAC001122294601A801F04DF8A368002B38D029
:105CBC0004F108030DF1040C183418685968624695
:105CCC0003C20833A3429446F7D1062301A90CA8BA
:105CDC008DF81430FFF7ACFC0DF1340CBCE80F0060
:105CEC0007AC0FC4DCF80030237006A8FFF7B2FC39
:105CFC0080B1336807ADD3F82090124B0C930FCDC5
:105D0C000DAC0FC42B6823703A4643460CA93046A1
:105D1C00C84705460098FEF741FF284613B0BDE87A
:105D2C00F083E368002BC3D14FF6FF70D4F81090CA
:105D3C00FEF724FF8145BBD104F11401AAE72546E7
:105D4C00E8E700BF64700B0038B543691A68002A95
:105D5C00054610DAB3F88620B3F884309A420AD19B
:105D6C0003681B699847044628B92B682846DB6AE8
:105D7C009847204638BD0120FCE710B54369B3F8BD
:105D8C008620B3F884309A42044605D06369B3F890
:105D9C0084201344187910BD03681B6998470028A8
:105DAC00F4D14FF0FF30F6E7F8B543691746B3F876
:105DBC008620B3F884309A4205460E4616D069699F
:105DCC00B1F88430B1F88640E41ABC4228BF3C4696
:105DDC00043322461944304600F0A6FF6A69B2F833
:105DEC0084302344A2F884302046F8BD03681B6934
:105DFC0098470028E3D14FF0FF34F5E742690023C0
:105E0C00A2F884304269A2F8863070472DE9F0413F
:105E1C001F4603680C46DB6A8AB00546164698474F
:105E2C00237DD5F81480042B0CBF02200A200622F7
:105E3C000121FEF7EBFEC8F800006B691B68002B14
:105E4C0008DA2B682846DB6A0024984720460AB0FB
:105E5C00BDE8F0812846FFF7D1FFB7B1002303A9B5
:105E6C00F8B20393ADF81030FEF778FE0028E8D1B5
:105E7C00686906230093006803AB41F20B0240F6FD
:105E8C00FF71FEF79BFE0028DBD11C22002103A82A
:105E9C0000F058FF237D042B1DD14FF407733046BF
:105EAC00ADF80C30FEF772FEADF80E006068FEF730
:105EBC0065FE04906B691C22186803A9FEF78EFE20
:105ECC000028BED104340FCC6D698C350FC5236806
:105EDC002B700124BAE740F61C233046ADF80C3089
:105EEC00FEF754FE05AEADF80E00231D04F11407A9
:105EFC0018685968324603C20833BB421646F7D1BC
:105F0C00D8E7000030B54269B2F886308BB0044651
:105F1C002BB1B2F884209A4201D1FFF76FFF61696F
:105F2C000868002818DBB1F886507F2D14D804318E
:105F3C000823C5F180022944FEF758FE002813DD22
:105F4C006369B3F886200AB9A3F884206369B3F8AF
:105F5C0086201044A3F886006369B3F88600B3F872
:105F6C008430C01A0BB030BDFEF7B4FF03680B2BA6
:105F7C00F2D0FEF7AFFF03680B2BEDD020230025EA
:105F8C00CDE90235FEF7A6FF03680193084B0949DA
:105F9C00009302AA2B463220FEF7C0FE63691868F4
:105FAC00FEF714FE63694FF0FF321A60D4E700BFAE
:105FBC00B7700B00B0700B0010B54369044618683D
:105FCC00002801DBFEF702FE63694FF0FF321A6016
:105FDC006069112200218C3000F0B4FE2046BDE82F
:105FEC001040FFF70BBF10B5002304460160C0F84A
:105FFC0084308830FFF70EFB204610BD73B50023AC
:10600C004FF47A72C0E901320E4A036102604361B7
:10601C000446AC200191FEF736F8051E05F10C067E
:10602C0008D00123C5E90133074B01992B60304699
:10603C00FFF7D9FF2046C4E90565FFF7DFFE02B084
:10604C0070BD00BFEC700B00D0700B0010B54FF0A2
:10605C00FF310446FFF7D2FF204610BD10B50446B1
:10606C000068002801DBFEF7B1FD204610BD0C30A6
:10607C00FFF7F4BF024B1A68024B1A60704700BF5F
:10608C0090E50320F4E6032070474174704708B58F
:10609C00007CFEF703FE20EAE07008BD08B5007C2A
:1060AC00FEF7D4FD20EAE07008BD08B5007CFEF7D1
:1060BC00DDFD40EAE07008BD08B5007CFEF7CEFDC2
:1060CC0040EAE07008BD007CFEF7D8BD37B5457CD2
:1060DC0004462DB1207C03B0BDE83040FEF7AEBDC8
:1060EC00007C0191FEF7DAFD00280199F2DC2846CC
:1060FC0003B030BD10B514210446FDF7CAFF20468D
:10610C0010BD000010B54FF47A73044608461146D2
:10611C000022C4E90123044B23600123207463741F
:10612C00FEF7C4FD204610BD54710B00417470473E
:10613C007047704708B50021007CFEF7D7FD40EA98
:10614C00E07008BD08B50121007CFEF7CFFD40EAE8
:10615C00E07008BD08B5007CFEF7C0FD20EAE070D9
:10616C0008BD08B5007CFEF7B1FD20EAE07008BD63
:10617C0013B50446007C0191FEF7B0FD002801998F
:10618C0001DC607C20B1207CFEF7B8FD20EAE070D9
:10619C0002B010BD007CFEF7B9BD10B51421044649
:1061AC00FDF777FF204610BD10B54FF47A73044607
:1061BC0008460021C4E90113044B23600123207419
:1061CC0063741146FEF77AFD204610BD84710B00F6
:1061DC0010B514220446002100F0B4FD204610BD79
:1061EC0010B50F4C88B003A8FFF7F2FF2178BFF36E
:1061FC005B8F11F001010FD120460191FDF74BFF90
:10620C00019948B103AA0748FFF7CEFF2046FDF7D6
:10621C0047FF054800F082FD024808B010BD00BFE2
:10622C00F8E60320FCE603203D610B0000224068E9
:10623C001146FEF7DFBD002240681146FEF7FABD9D
:10624C00002240681146FEF705BE40680022FEF7AA
:10625C00F9BD4068002281F00101FEF7E3BD002387
:10626C0040681A461946FEF7D5BD002340681A4609
:10627C001946FEF7C7BD002240681146FEF7AABDBD
:10628C00406800220221FEF7ADBD002340681A468B
:10629C00FEF798BD024B04225A60024A1A607047FE
:1062AC0010E70320B4710B0010B5044600F0AFFDED
:1062BC00013823182046834206D90278197800F851
:1062CC00011B03F80129F6E710BD70B50C46911EB1
:1062DC0022291DD8254630B9234430229D4210D2A4
:1062EC0005F8012BFAE7B0FBF2F602FB1600C1B27F
:1062FC00092894BF30315731C9B205F8011B30461B
:10630C00E9E7002320462B70FFF7CEFF204670BD37
:10631C000020FCE738B5031E0C4615460EDAB3F127
:10632C00004F4FF02D0214BF5842184601230A703B
:10633C002A461944FFF7C9FF204638BD0123F9E767
:10634C00014B1860704700BF94E5032008B50B4B58
:10635C0043B1FFF745FF03681B699847002801DD2F
:10636C00AFF30080064B43B100F058F903681B698A
:10637C009847002801DDAFF3008008BD0000000045
:10638C000000000008B5FFF7E1FFFEF787FB014BAB
:10639C00186008BD2CE703200548064A064908B5D5
:1063AC00121A00F0C1FC054B054A1A6008BD00BF6B
:1063BC0000F4032004F40320A4730B0000F4032066
:1063CC001E1C279A07B5002300931A466FF077011D
:1063DC00FEF7D6FC03B05DF804FB000007B543885C
:1063EC000A2B08D0502B0BD1094B1B684BB103B0B7
:1063FC005DF804EB1847FFF7E5FF03B05DF804FB0D
:10640C00002300931A466FF07701FEF7B9FCF4E70E
:10641C001CE7032010B512480021FEF76BFD114B51
:10642C001A68114B9A42114B0CBF012200221A70B0
:10643C0001D0FFF7B1FFFEF729FB044600F08AFC00
:10644C000B4B13B12046AFF3008000210848FEF738
:10645C00B1FCBDE8104007480021FEF787BC00BF27
:10646C004D630B0000F403201E1C279A18E7032031
:10647C0000000000E9630B00232813B502D90020AB
:10648C0002B010BDA0F10B03022B1AD8174C2178C7
:10649C00BFF35B8F11F001010BD120460191FDF789
:1064AC00FAFD019928B11248FFF712FA2046FDF7C0
:1064BC00F7FD0F4B1878FEF7B9FB0028DFD1012050
:1064CC00DEE7012809D800F069F80021007CFEF70E
:1064DC0035FB80F00100C0B2D2E709380128EED8B4
:1064EC0000F09CF8007CFEF7D1FBF2E720E70320DC
:1064FC0024E70320232838B504460D460AD8FF2983
:10650C0008D0FFF7B9FF28B129462046BDE838402E
:10651C00FEF7CCBA38BD38B504460D46FEF7CEFAB8
:10652C00FF2810D0062804D84D2323FA00F0C30707
:10653C0009D42046FFF7A0FF28B129462046BDE824
:10654C003840FEF7C3BA38BD10B50446FEF7B6FAAC
:10655C00031FDBB2012B08D92046FFF78DFF20B1BA
:10656C002046BDE81040FEF7B9BA002010BD7047B8
:10657C0038B520251423044603608560056106495F
:10658C00284600F06FF804496060284600F06AF86D
:10659C00E060204638BD00BFE8710B0030B50E4DF1
:1065AC002978BFF35B8F11F0010487B011D1284615
:1065BC00FDF771FD68B101A8FFF7DAFF01AA2146CA
:1065CC000648FEF7DBFF2846FDF76AFD044800F09D
:1065DC00A5FB024807B030BD30E7032034E70320A9
:1065EC007B650B007047000038B5044614252A461D
:1065FC00002100F0A7FB258040250749258128466E
:10660C00258200F02FF804496060284600F02AF833
:10661C00E060204638BD00BFE8710B0030B50E4D70
:10662C002978BFF35B8F11F0010487B011D1284694
:10663C00FDF731FD68B101A8FFF7D6FF01AA21468D
:10664C000648FFF75FFD2846FDF72AFD044800F0D9
:10665C0065FB024807B030BD48E703204CE7032038
:10666C00F1650B00FDF711BD08B5FEF723FC00002A
:10667C00014900F0F9B800BF04720B007FB500248B
:10668C001023CDE90234036815469E6912686B46E7
:10669C00CDE90044B0479DF8043003F00603062B07
:1066AC0003BF009B2B600120204604B070BD0098F6
:1066BC00904214BF012006207047000010B5034B18
:1066CC000360044600F0CDF8204610BD44720B0068
:1066DC0010B50446FFF7F2FF20460821FDF7D9FC60
:1066EC00204610BD2DE9F0411F46DDE90834DDF8E8
:1066FC00188098450646154607D1079900F0B4F85E
:10670C0018B165710020BDE8F0813946304600F0C3
:10671C00ABF80028F6D00123C4F800802571A371D2
:10672C00F0E738B515461C4600F09EF820B108235A
:10673C00E36006232560237138BD73B505460C460E
:10674C0001921E4600F090F850B9032E08D8236829
:10675C00019A5B692946204602B0BDE87040184793
:10676C0002B070BD10B5034B03600446FFF7A6FFE3
:10677C00204610BDA4720B0010B50446FFF7F2FFC3
:10678C0020460C21FDF785FC204610BDF7B5089F6F
:10679C00974205460E4614460AD0A8680268089728
:1067AC00156A31462246AC4603B0BDE8F04060475E
:1067BC001946019300F058F8019B0028EDD00620F3
:1067CC0003B0F0BD2DE9F14F0D461946DDE90A4B3A
:1067DC00DDE90CA681461746984600F045F890B1C5
:1067EC00002D3460377109DB61198A450CBF062115
:1067FC000121B171002001B0BDE8F08F0235F9D153
:10680C000123B371F6E7544506D15946484600F0CA
:10681C002BF808B17771EDE7D9F808000368CDE9DA
:10682C000CA6CDE90A4BDC693A4643462946A446F8
:10683C0001B0BDE8F04F60472DE9F04107460C462A
:10684C0015461E46FFF76DFF48B9B86803689F6987
:10685C002A4633462146BC46BDE8F0416047BDE8B8
:10686C00F081704700207047814208B50ED0406817
:10687C0003782A2B0CD049680B782A2B08BF0131DE
:10688C0000F096FAB0FA80F0400908BD0120FCE750
:10689C000020FAE781F0004102E000BF83F00043E2
:1068AC0030B54FEA41044FEA430594EA050F08BF9F
:1068BC0090EA020F1FBF54EA000C55EA020C7FEA63
:1068CC00645C7FEA655C00F0E2804FEA5454D4EBE0
:1068DC005555B8BF6D420CDD2C4480EA020281EAAA
:1068EC00030382EA000083EA010180EA020281EAE2
:1068FC000303362D88BF30BD11F0004F4FEA013134
:10690C004FF4801C4CEA113102D0404261EB410142
:10691C0013F0004F4FEA03334CEA133302D05242C8
:10692C0063EB430394EA050F00F0A780A4F1010484
:10693C00D5F1200E0DDB02FA0EFC22FA05F28018BE
:10694C0041F1000103FA0EF2801843FA05F35941A4
:10695C000EE0A5F120050EF1200E012A03FA0EFC23
:10696C0028BF4CF0020C43FA05F3C01851EBE3714D
:10697C0001F0004507D54FF0000EDCF1000C7EEB6A
:10698C0000006EEB0101B1F5801F1BD3B1F5001FA8
:10699C000CD349085FEA30004FEA3C0C04F10104C7
:1069AC004FEA445212F5800F80F09A80BCF1004FF0
:1069BC0008BF5FEA500C50F1000041EB045141EA72
:1069CC00050130BD5FEA4C0C404141EB0101013C3B
:1069DC0028BFB1F5801FE9D291F0000F04BF01462A
:1069EC000020B1FA81F308BF2033A3F10B03B3F1FC
:1069FC0020020CDA0C3208DD02F1140CC2F10C028C
:106A0C0001FA0CF021FA02F10CE002F11402D8BFE9
:106A1C00C2F1200C01FA02F120FA0CFCDCBF41EAB5
:106A2C000C019040E41AA2BF01EB0451294330BD84
:106A3C006FEA04041F3C1CDA0C340EDC04F1140461
:106A4C00C4F1200220FA04F001FA02F340EA030038
:106A5C0021FA04F345EA030130BDC4F10C04C4F17E
:106A6C00200220FA02F001FA04F340EA030029465E
:106A7C0030BD21FA04F0294630BD94F0000F83F4A8
:106A8C00801306BF81F480110134013D4EE77FEA8B
:106A9C00645C18BF7FEA655C29D094EA050F08BFD7
:106AAC0090EA020F05D054EA000C04BF19461046B8
:106ABC0030BD91EA030F1EBF0021002030BD5FEAFC
:106ACC00545C05D14000494128BF41F0004130BD24
:106ADC0014F580043CBF01F5801130BD01F0004578
:106AEC0045F0FE4141F470014FF0000030BD7FEAEB
:106AFC00645C1ABF194610467FEA655C1CBF0B46E6
:106B0C00024650EA013406BF52EA033591EA030FFC
:106B1C0041F4002130BD00BF90F0000F04BF0021F4
:106B2C00704730B54FF4806404F132044FF0000527
:106B3C004FF0000150E700BF90F0000F04BF0021A0
:106B4C00704730B54FF4806404F1320410F0004506
:106B5C0048BF40424FF000013EE700BF42004FEA01
:106B6C00E2014FEA31014FEA02701FBF12F07F437E
:106B7C0093F07F4F81F06051704732F07F4208BF35
:106B8C00704793F07F4F04BF41F40021704730B53C
:106B9C004FF4607401F0004521F000411CE700BF88
:106BAC0050EA010208BF704730B54FF000050AE00B
:106BBC0050EA010208BF704730B511F0004502D50C
:106BCC00404261EB41014FF4806404F132045FEA0E
:106BDC00915C3FF4D8AE4FF003025FEADC0C18BFB7
:106BEC0003325FEADC0C18BF033202EBDC02C2F1A9
:106BFC00200300FA03FC20FA02F001FA03FE40EA3B
:106C0C000E0021FA02F11444BDE600BF4FF0FF3C28
:106C1C0006E000BF4FF0010C02E000BF4FF0010C8A
:106C2C004DF804CD4FEA410C7FEA6C5C4FEA430C03
:106C3C0018BF7FEA6C5C1BD001B050EA410C0CBF52
:106C4C0052EA430C91EA030F02BF90EA020F0020B4
:106C5C00704710F1000F91EA030F58BF994208BF1B
:106C6C0090422CBFD8176FEAE37040F001007047D8
:106C7C004FEA410C7FEA6C5C02D150EA013C07D12F
:106C8C004FEA430C7FEA6C5CD6D152EA033CD3D07A
:106C9C005DF8040B704700BF8446104662468C4674
:106CAC001946634600E000BF01B5FFF7B7FF0028A7
:106CBC0048BF10F1000F01BD4DF808EDFFF7F4FFD0
:106CCC000CBF012000205DF808FB00BF4DF808ED5B
:106CDC00FFF7EAFF34BF012000205DF808FB00BF7E
:106CEC004DF808EDFFF7E0FF94BF012000205DF8A0
:106CFC0008FB00BF4DF808EDFFF7CEFF94BF012055
:106D0C0000205DF808FB00BF4DF808EDFFF7C4FF4D
:106D1C0034BF012000205DF808FB00BF00230146B2
:106D2C001A46184600F07CB80A44914200F1FF3331
:106D3C0000D1704710B511F8014B03F8014F914287
:106D4C00F9D110BD02440346934200D1704703F8B9
:106D5C00011BF9E738B5104B1D68AB6B0446B3B992
:106D6C001820FEF78FF80246A86320B90B4B0C488D
:106D7C004221FEF7B7F80B490B4BC0E900130B4B44
:106D8C0083600B23838100210120C2E90401AB6BDA
:106D9C0000221C615A6138BD94E50320DD720B00A2
:106DAC00F4720B000E33CDAB34126DE6ECDE050045
:106DBC0010F8012B11F8013B012A28BF9A42F7D099
:106DCC00D01A7047034611F8012B03F8012B002A47
:106DDC00F9D17047024B0146186800F003B800BFA8
:106DEC0094E5032037B5044608460D4600F00FF82D
:106DFC00421C114620460192FEF764F8044618B175
:106E0C00019A2946FFF790FF204603B030BD034698
:106E1C0013F8012B002AFBD1181A01387047000017
:106E2C002DE9F843DFF8B8800646D8F800001F4675
:106E3C000D46914600F056F8254B1C6834B9254C8C
:106E4C001C60254B13B11B68C4F8883063681F2B7A
:106E5C0007DDD8F8000000F047F84FF0FF30BDE830
:106E6C00F8834EB3D4F8880088B91C4B23B9D8F8F2
:106E7C00000000F038F8F0E74FF48470FEF702F8E9
:106E8C000028F4D00023C0E94033C4F888006368BC
:106E9C0040F8239001229A4000EB8301D0F8003196
:106EAC001343C0F80031022EC1F8807002BFD0F835
:106EBC0004311343C0F804316368D8F800005A1C3D
:106ECC000233626044F8235000F00EF80020C6E74D
:106EDC00ECE7032060E7032000000000914E0B005C
:106EEC00F8E5032070477047704700001D400B0009
:106EFC0059400B0081400B0085400B000000000046
:106F0C006D7174742072657475726E20636F646534
:106F1C00203D2000436F6E6E656374696F6E206454
:106F2C00726F70706564004469616C656420005315
:106F3C0074617274206D652075702E2E2E00646243
:106F4C00756700436F6E6E656374656420746F20A3
:106F5C004841004D515454004661696C656420638E
:106F6C006F6E6E656374204841202D2063686563E5
:106F7C006B20736563726574732E680068612F7281
:106F8C006F746172792F6E756D6265720068612F16
:106F9C00726F746172792F64696769740044494136
:106FAC004C455200555732316D71747400757469CB
:106FBC006C736D7174740000044D515454040006CC
:106FCC004D51497364700300000000000000000084
:106FDC000000000000000000854F0B008B4F0B00E1
:106FEC00C94F0B00994F0B00874F0B00000000009E
:106FFC000000000013550B0009550B00FF540B004B
:10700C00F5540B00E9540B00DD540B0019570B0021
:10701C0021570B00D1540B00C9540B00BF540B006B
:10702C00B5540B0051570B0000000000000000008D
:10703C0031550B007B550B0053550B0033550B0092
:10704C005B550B0063550B006B550B0073550B0018
:10705C000000000000000000BD550B00AD550B00FA
:10706C00AF550B00617070000000000000000000C4
:10707C00D9560B00E3560B00ED560B00F7560B00E0
:10708C0001570B000D570B0019570B0021570B0024
:10709C0029570B0035570B003D570B0047570B007A
:1070AC0051570B00776972696E67007265637620C1
:1070BC006572726F72203D20256400000000000094
:1070CC0000000000255B0B00495B0B007B600B0094
:1070DC00575B0B00295B0B00000000000000000058
:1070EC00D55B0B00095C0B00A15A0B00BB5A0B00C3
:1070FC00115F0B00E55A0B00875D0B00195B0B0051
:10710C00195E0B00595C0B00B55D0B00C55F0B00E5
:10711C00555D0B001B5B0B00CD5A0B005D5B0B0030
:10712C00395C0B0025592D256D2D25645425483AC5
:10713C00254D3A2553257A0061736374696D65009A
:10714C00000000000000000095600B0001610B00C6
:10715C00D9600B003D580B00A9600B00C5600B00FB
:10716C00B7600B00D3600B0097600B009B600B00AB
:10717C0000000000000000003F610B00A7610B0045
:10718C007D610B003D580B006F610B0041610B00E2
:10719C0051610B00A1610B0061610B0039610B00A7
:1071AC00000000000000000097620B008D620B00D5
:1071BC0083620B0039620B0077620B006B620B0071
:1071CC0019570B0021570B005F620B0057620B0025
:1071DC004D620B0043620B0051570B00005374318E
:1071EC00395F53705F6D616B655F73686172656465
:1071FC005F7461670000000044720B00E9710B00C2
:10720C00A4720B0018720B00C8720B004E31305F69
:10721C005F637878616269763131375F5F636C6187
:10722C0073735F747970655F696E666F45000000FB
:10723C00000000000C720B00C9660B00DD660B0031
:10724C0071680B0071680B0047670B0089660B00B7
:10725C002F670B00F1660B00BB660B00A4720B00D2
:10726C0074720B000C720B004E31305F5F637878D8
:10727C00616269763132305F5F73695F636C617331
:10728C00735F747970655F696E666F45000000000E
:10729C000000000068720B0071670B0085670B0023
:1072AC0071680B0071680B0047670B0089660B0057
:1072BC0045680B00D1670B0099670B0044720B00FB
:1072CC00D0720B00537439747970655F696E666F98
:1072DC00005245454E54206D616C6C6F6320737584
:1072EC0063636565646564002F746D702F6A656EE9
:1072FC006B696E732D4743432D31302D706970656A
:10730C006C696E652D34385F323032303131323445
:10731C005F313630363138303633392F7372632F54
:10732C006E65776C69622F6E65776C69622F6C691C
:10733C0062632F7374646C69622F72616E642E6366
:10734C000000000071440B00754F0B001D550B0025
:10735C00C9560B0029580B00D1580B007D5A0B0055
:10736C0081600B00A1620B00000000000000000017
:04737C00000000000D
:10738000040000001400000003000000474E5500F8
:1073900096ABB4D264925C83D2991E2A126D552C9E
:0473A0003045DE286E
:0473A40000000000E5
:1073A800A96F0B00B06F0B00B96F0B0068617373A6
:1073B800696F2E64656570626C7565626572727955
:1073C8002E636F6D00000000886F0B000000000046
:1073D8000000000000005940020000000100000009
:1073E8000100000000000000000000000070A7403D
:1073F80044710B0098E50320000000000000000025
:107408000000000000000000000000000000000074
:107418000000000000000000000000000000000064
:107428000000000000000000000000000000000054
:107438000000000000000000000000000000000044
:107448000000000000000000000000000000000034
:0C7458000000000000000000F0E703202E
:10746400FFFFFFFF00000102030405060708090AE5
:107474000B0C0D0E0F101112131415161718191AE0
:087484001B1C1D1E1F20280027
:04748C0078563412E8
:04000003B000401CED
:00000001FF
