:02000002B0004C
:1040000000400B00C4730B00000006000C0005020A
:084010000401A30F00000000F1
:04401800506E0B00DB
:10401C0009480A49884208B505D0094A824202D0AB
:10402C00121A02F02DFE0748074A0021121A02F05C
:10403C0035FE014808BD00BF58E50320F8720B009F
:10404C00FCE5032000E60320F1E7032070B5074EE2
:10405C00074C02F0A3F9A41BA4080025AC4200D124
:10406C0070BD56F8043B98470135F7E7A8720B0072
:10407C00CC720B0000F076B908B500F0B9F8BDE8C9
:10408C00084002F043B900F0C1BE00F0BFBE00F022
:10409C00C5BE00F0C3BE0078B0FA80F0400970478E
:1040AC00012303707047000013B5054B1B788DF886
:1040BC0000303C23044601F04FF8204602B010BDFE
:1040CC0000E6032038B5046805467CB16368013B03
:1040DC0063605BB9236820469B689847A368013BE3
:1040EC00A3601BB923682046DB689847284638BD77
:1040FC00B0B502F1080384B023F0070302AFADEBB7
:10410C00030D02AD1446284602F0BAFD00232B55D0
:10411C00084B09491B788DF800302A464FF461632F
:10412C00384601F019F8381DFFF7CCFF0837BD46AB
:10413C00B0BD00BF01E603200C6F0B0030B5044688
:10414C0087B064200D4600F0A1FE224800F0B9FAB9
:10415C0008B321462A681F4800F02FFC04460028AB
:10416C0036D14FF47A7000F091FE21460A2202A853
:10417C0001F007FC029A18496846FFF795FF01A861
:10418C00FFF7A0FF02A801F071FB124807B0BDE8D1
:10419C00304000F05DBA4FF47A7000F077FE0F4AB1
:1041AC000F4902A8FFF780FF03A8FFF78BFF0D4B09
:1041BC000D4A0E491B6812680968064800F072FB2C
:1041CC002A680448214607B0BDE8304000F0F5BB32
:1041DC0007B030BD08E60320646E0B00786E0B0050
:1041EC000C6F0B005CE5032060E5032058E5032011
:1041FC002DE9F047192086B000F048FE484B494C99
:10420C001888494D02F04BF9206000F013FC02F0C5
:10421C002FFCD5E9002302F0EDFA444BD3E900233F
:10422C0002F01EFD48B3DFF8348198F8003023B358
:10423C003F494048DFF818913F4FDFF8F8A001F0F4
:10424C008EFB00263B68B34206DD59F8041B504632
:10425C0001F0C1FB0136F5E7384B36491E6802A860
:10426C0001F072FB02A93046FFF768FF02A801F0CB
:10427C00FDFA002388F800303B6000F0DBFB02F015
:10428C00F7FBD5E9002302F0B5FA2D4BD3E9002357
:10429C0002F0E6FC20B32B4F3B780BB32A4E33686D
:1042AC000A2202A893FBF2F102FB113101F069FB27
:1042BC00029A26496846FFF7F7FE01A8FFF702FFAE
:1042CC0002A801F0D3FA1C4A21491368306841F85E
:1042DC002300013313601F4A00233B7033601360CB
:1042EC001D4E226833689A4217D000F0A3FB02F0EF
:1042FC00BFFB1A4B01221A70194A2368C5E9000149
:10430C0011688B4208D0012B136005D10E490A6845
:10431C0001320A600B4A1370336006B0BDE8F087B7
:10432C0078E50320B8E6032080E6032088E5032027
:10433C00776E0B006CE60320B4E6032068E50320DF
:10434C0070E503207DE6032068E603208B6E0B00EE
:10435C008CE6032004E603207CE503207CE60320A6
:10436C0080E503201FB5194B0221188802F086F84E
:10437C00174B0121188802F081F8164B164A1B784E
:10438C0016498DF8003002A84FF4616300F0E4FE8A
:10439C0003A8FFF797FE124B124A13491B681268C9
:1043AC000968124800F07EFA104800F08AF950B102
:1043BC000F4A104902A8FFF777FE03A8FFF782FE09
:1043CC0005B05DF804FB0C4AF3E700BF78E5032069
:1043DC0088E6032001E60320936E0B00A26E0B000F
:1043EC005CE5032060E5032058E5032008E6032084
:1043FC00A76E0B00B76E0B00BC6E0B000B4B13B50E
:10440C0000241C700A4B0B490B4801221A7001F056
:10441C0078FA0A4B00930A4901944FF4E16340F295
:10442C005B72084800F054F802B010BD00E603209F
:10443C0001E60320776E0B006CE60320FD400B00B9
:10444C0064E5032008E6032091F85C3010B50446BF
:10445C00016013B1886D00F0CDFA204610BD10B587
:10446C00036893F85C20044612B1986D00F0CAFA08
:10447C00204610BDF8B51F469DF8243004460D4665
:10448C0016462BB1012380F85C30583000F0AAFAA4
:10449C00089B23630023636306B1A66425B12946F8
:1044AC0004F1380001F05BFA069B2365079BE06979
:1044BC00A4F84C70FF2BB8BFFF23A4F8543008B1FC
:1044CC00FFF7E5FDB4F85400FFF7DFFDE061F8BD40
:1044DC002DE9FF4104460025174698460E4601F08B
:1044EC0079FD0D49E56104F1380001F00AFA9DF8F7
:1044FC002C3003930A9BA564CDE901830F23009311
:10450C00204684F85C503B4632462946FFF7B2FF02
:10451C00204604B0BDE8F081776E0B0010B5044660
:10452C00204601F0B3FC0028FAD0204601F098FA9E
:10453C00C0B210BD2DE9F04705468846FFF7EEFFE7
:10454C00EB691870EB6993F800A04FF001090AF0C1
:10455C00F00A00274C462846FFF7E0FF2646EB6999
:10456C00985500F07F0313FB09F31F440134030635
:10457C00A4B2BFB24FEAC919EDD4631EBAF1300F21
:10458C0088F800301ED12846FFF7C8FFEB69185594
:10459C002846FFF7C3FFF41C0236B6B2EB69A4B28F
:1045AC0098550226B6B2BE420ED22846FFF7B6FF89
:1045BC00B5F85430A34284BFEB6918550134A4B24A
:1045CC000136EFE70026EDE7B5F85430A3422CBFD7
:1045DC0020460020BDE8F0872DE9F34115461E4624
:1045EC001A4607460023964602A802F07F0CBEF13D
:1045FC007F0F03F10104034488BF4CF0800CBEF123
:10460C007F0F4FEAD212E4B203F804CC1ED8C4F1E7
:10461C000403C4F10500E954224601A9284405EB22
:10462C00030802F02DFB721C22444146384601F06F
:10463C0002FA054600F0FEF9621C78623244A8B218
:10464C00131A5842584102B0BDE8F0812346CAE71C
:10465C0013B50446014601A8FFF7F6FEE369E02214
:10466C001A70E36900225A70E1690222204601F0B7
:10467C00E2F9204601F064FC00F0DCF9C4E9090021
:10468C0001A8FFF7ECFE02B010BD0233F0B50546F1
:10469C0098B20023CE5C9CB256B1B5F854C0844598
:1046AC0003F1010704D9441C16543B46A0B2F1E7B0
:1046BC0099B2411A0A44210A02F8021C02F8013C80
:1046CC00F0BD38B5044601F003FB002814BF0125EA
:1046DC00002502D1204601F033FC284638BD0000ED
:1046EC002DE9F04788B00446DDF840809DF850A0D5
:1046FC00894617461E46FFF7E4FF0546002840F0A2
:10470C00CD80214601A8FFF79FFEA16C002940F047
:10471C008880B4F84C20A16B2B46204601F05AFA45
:10472C0000287AD0012323849DF85430E269042BAD
:10473C005B4B40F08180186899889B79ADF80C1020
:10474C008DF80E300290C2F805009DF80E30BDF8C1
:10475C000C10A2F80910D3720C23B8F1000F00F062
:10476C0081809DF848009DF84420400140EAC20039
:10477C0040F00600C0B2BAF1000F01D100F0FD000C
:10478C001FB1002E70D140F08000E269D054226D30
:10479C00E169581C12120A549A1CE169206D885464
:1047AC000333E26949462046FFF76FFF0346B8F131
:1047BC00000F0BD0E26941462046FFF766FFE26925
:1047CC00139903462046FFF760FF034667B1E26981
:1047DC0039462046FFF759FF03462EB1E2693146B0
:1047EC002046FFF752FF0346053BE2699BB21021BE
:1047FC002046FFF7F1FE00F01DF9C4E909004FF463
:10480C007A76204601F042FB88BB00F013F9A36ACC
:10481C00C01A236D73439842F3D9204601F090FBE4
:10482C0035E002A800F0FEFEB4F84C202B4602A99D
:10483C00204601F0AFFA73E7D3F80700D3F80B105A
:10484C00DB7B0DF1080CACE803008CF8003002ABFC
:10485C0003CBC2F80500C2F809109CF80030537362
:10486C000E237AE7022086E740F0C0008DE702A90C
:10487C002046FFF75FFE0428CFD1E369DE78002ED7
:10488C00CBD100F0D7F80125A06284F82C6001A8E8
:10489C00FFF7E5FD284608B0BDE8F0870025F9E7ED
:1048AC001B6F0B0010B54FF0040C86B00124CDE942
:1048BC00044C0024CDE90244CDE90044FFF710FF7D
:1048CC0006B010BD2DE9F74FDDF83C809DF8345053
:1048DC009DF8389004468B4616461F46FFF7F1FEAE
:1048EC008246002851D0214601A8FFF7ADFDB4F84F
:1048FC005420E069002102F0D1F90523E269594600
:10490C002046FFF7C2FE6B1E012B15D8218CE369E4
:10491C00013189B22184090A1954421CE369218CA2
:10492C0092B20230995480B2B8F1000F04D0238CAB
:10493C005A1C2284A8F8003000210B188F42E2691F
:10494C009BB20AD9B4F854C09C4506D916F801C0DC
:10495C0002F803C0013189B2EFE79DF8301000294D
:10496C000CBF30213121B9F1000F01D041F0080109
:10497C00022D0ED141F00401053B9BB22046FFF7FE
:10498C002BFE824601A8FFF76AFD504603B0BDE836
:10499C00F08F012D08BF41F00201EDE71FB5089C17
:1049AC000394002402949DF81C4001949DF8184037
:1049BC000094FFF787FF04B010BD30B587B00446F4
:1049CC0010460591049202F0CEF900250346CDE97C
:1049DC000155DDE9042100952046FFF7DFFF07B004
:1049EC0030BD000008B5024B1B681B6B019308BD62
:1049FC004802030008B5024B1B689B6B019308BD72
:104A0C004802030008B5024B1B681B6C019308BDE0
:104A1C004802030008B5024B1B685B6C019308BD90
:104A2C004802030008B5024B1B685B68019308BD84
:104A3C001802030008B5024B1B685B69019308BDA3
:104A4C001802030008B5024B1B689B68019308BD54
:104A5C002C02030008B5024B1B68DB68019308BDF0
:104A6C002C02030008B5024B1B685B69019308BD5F
:104A7C002C02030008B5024B1B681B6A019308BD8E
:104A8C002802030008B5024B1B685B6A019308BD42
:104A9C002802030008B5024B1B689B6A019308BDF2
:104AAC002802030008B5024B1B68DB6A019308BDA2
:104ABC002802030008B5024B1B681B6B019308BD51
:104ACC002802030008B5024B1B685B6B019308BD01
:104ADC002802030008B5024B1B681B6C019308BD30
:104AEC002802030008B5024B1B685B69019308BDE3
:104AFC006C02030008B5024B1B685B69019308BD8F
:104B0C006402030008B5024B1B681B6A019308BDC5
:104B1C006402030008B5024B1B689B6A019308BD35
:104B2C006402030008B5024B1B689B68019308BD27
:104B3C006802030008B5024B1B68DB68019308BDD3
:104B4C006802030008B5024B1B689B69019308BD02
:104B5C003802030008B5024B1B68DB69019308BDE2
:104B6C003802030008B5024B1B681B6A019308BD91
:104B7C003802030008B5024B1B689B6A019308BD01
:104B8C003802030008B5024B1B681B6B019308BD70
:104B9C003802030008B5024B1B689B6B019308BDE0
:104BAC003802030008B5024B1B68DB69019308BD92
:104BBC003002030008B5024B1B681B6A019308BD49
:104BCC003002030008B5024B1B68DB68019308BD7B
:104BDC003C02030008B5024B1B681B69019308BD1E
:104BEC003C02030008B5024B1B685B69019308BDCE
:104BFC003C02030008B5024B1B689B69019308BD7E
:104C0C003C02030008B5024B1B68DB69019308BD2D
:104C1C003C02030008B5024B1B681B6A019308BDDC
:104C2C003C02030008B5024B1B689B6A019308BD4C
:104C3C003C02030008B5024B1B681B6C019308BDBA
:104C4C003C02030008B5024B1B681B68019308BDAE
:104C5C004C02030008B5024B1B681B69019308BD8D
:104C6C004C02030008B5024B1B685B69019308BD3D
:104C7C004C02030008B5024B1B689B69019308BDED
:104C8C004C02030008B5024B1B68DB69019308BD9D
:104C9C004C02030008B5024B1B681B6A019308BD4C
:104CAC004C02030008B5024B1B681B6D019308BD39
:104CBC006002030008B5024B1B685B68019308BDDA
:104CCC002002030008B5024B1B685B69019308BD09
:104CDC002002030008B5024B1B68DB6C019308BD76
:104CEC002002030008B5024B1B685B6D019308BDE5
:104CFC002002030008B5034B1B68D3F888300193DE
:104D0C0008BD00002002030008B5034B1B68D3F854
:104D1C009430019308BD00002002030008B5024B3B
:104D2C001B685B69019308BD4402030008B5024B84
:104D3C001B681B6A019308BD4402030008B5024BB3
:104D4C001B68DB6B019308BD4402030008B5024BE2
:104D5C001B685B68019308BD4002030008B5024B59
:104D6C001B689B68019308BD4002030008B5024B09
:104D7C001B68DB68019308BD4002030008B5024BB9
:104D8C001B681B69019308BD4002030008B5024B68
:104D9C001B685B69019308BD4002030008B5024B18
:104DAC001B689B69019308BD4002030008B5024BC8
:104DBC001B68DB69019308BD4002030008B5024B78
:104DCC001B681B6A019308BD4002030008B5024B27
:104DDC001B681B6B019308BD4002030008B5024B16
:104DEC001B685B6B019308BD4002030008B5024BC6
:104DFC001B681B6C019308BD4002030008B5024BF5
:104E0C001B685B6C019308BD4002030008B5024BA4
:104E1C001B681B68019308BD1C02030008B5024BFC
:104E2C001B685B68019308BD1C02030008B5024BAC
:104E3C001B689B68019308BD1C02030008B5024B5C
:104E4C001B68DB6A019308BD1C02030008B5024B0A
:104E5C001B681B6B019308BD1C02030008B5024BB9
:104E6C001B68DB6B019308BD1C02030008B5024BE9
:104E7C001B681B6C019308BD1C02030008B5024B98
:104E8C001B685B6C019308BD1C0203000021FFF73B
:104E9C0019BF10B5836804460BB901F091FBC368C8
:104EAC009847A3681BB10322214620469847204609
:104EBC001021BDE81040FFF7ECB810B5836804462C
:104ECC0013B1032201469847204610BD13B50B467B
:104EDC000246D0E900016C4684E8030093E8030025
:104EEC0082E8030094E8030083E8030002B010BDDD
:104EFC00024800230360FFF78DBD00BFBCE6032012
:104F0C0070470020704710B510210446FFF7C1F818
:104F1C00204610BD08B5FFF7F6FF08BD30B50022DE
:104F2C004FF69C74026084808D888C800C68858020
:104F3C0004600A6030BD10B504460068FFF76EFFD0
:104F4C00204610BD38B5C468F4B12378022B03D1C8
:104F5C0004F10C00FFF7EFFF656835B12846FFF749
:104F6C00ACFF10212846FFF794F8A56835B1284608
:104F7C00FFF7A3FF10212846FFF78BF820461421DA
:104F8C00BDE83840FFF785B838BD0B6803604B6847
:104F9C00436013B15A6801325A60704737B5044602
:104FAC0068460D46FFF7F1FF009B019A2360626093
:104FBC00002301A801930093FFF784F835B1281D55
:104FCC00FFF780F808212846FFF763F8204603B066
:104FDC0030BD826810B50AB901F0F2FABDE8104094
:104FEC00C368184708B5006800F11001FFF7F1FF1E
:104FFC0008BD826810B50AB901F0E2FABDE81040AC
:10500C00C368184708B5006800F11001FFF7F1FFFD
:10501C0008BD000038B500230446036010200D467F
:10502C00FFF731F828B10123C0E90133024B0360CB
:10503C00C5602060204638BD3C6F0B0038B500239E
:10504C0083608B6804460D462BB102229847EB68AF
:10505C00E360AB68A360204638BD0000F0B589B0B2
:10506C0004686846FFF75AFF4FF00203D4E84F2F4D
:10507C00002A03D1C4E8413F0029F7D125D104F11E
:10508C000C0569462846FFF749FFBFF35B8F0123E8
:10509C006370002004F10803BFF35B8F53E8006FCB
:1050AC0043E80002002AF9D1BFF35B8F6EB1FFF722
:1050BC0011FE78B129463046FFF78BFF3046FFF7DB
:1050CC00FCFE10213046FEF7E4FF6846FFF733FF85
:1050DC0009B0F0BD314602A8FFF7B0FFE068B4F9A3
:1050EC00105008B101F022FE06901020ADF81C50B3
:1050FC00FEF7C9FF0546E8B1002787601820FEF7C8
:10510C00C2FF044688B10146876002A8FFF7DEFEA5
:10511C00049BA268A360059B049206A9E268E36065
:10512C0004F110000592FFF7F9FE084BEB60084BF9
:10513C002C60AB6006A8FFF7FEFE02A8FFF7BDFED1
:10514C00002229460348FFF7CDFDB7E7F14F0B00CE
:10515C0075520B009F4E0B002DE9F04F8BB005469E
:10516C009DF850A00F4690469946FFF7D7FD07AE25
:10517C00834638BB4FF62E73059005A93046ADF823
:10518C001830FFF7CBFE1420FEF77DFF044648B124
:10519C00022303700123C0E901BB437031460C307C
:1051AC00FFF7BCFE2846214640F8044BFFF732FFC0
:1051BC003046FFF7C0FE05A8FFF7BDFE28460BB032
:1051CC00BDE8F08F0C2300241420CDE9084407938C
:1051DC00FEF759FF014618B1C0E901440470447050
:1051EC0004A80391FFF716FF1E4B08930820FEF747
:1051FC004AFF044610B103A9FFF7C7FE00965FFAF9
:10520C008AF34A46414638460994FFF78FFDB8B9F0
:10521C00039B5B7803F0FF0293B94FF69C7305A9CF
:10522C0003A80592ADF81830FFF718FF05A8FFF793
:10523C0082FE05A80999FFF7B1FE06A8FEF742FF0A
:10524C0003A905A8FFF7A1FE059B069A2B606A60CF
:10525C00002306A806930593FEF734FF04A8FEF777
:10526C0031FFABE7F1520B00012AF8B5054603D12B
:10527C000B6803600020F8BD022A10D0032AF9D174
:10528C000468002CF6D004F11000FFF754FE204601
:10529C00FFF713FE18212046FEF7FBFEEAE7182065
:1052AC000E68FEF7F0FE044650B13146FFF7C6FE1D
:1052BC003069B6F9147008B101F038FD2061A7828D
:1052CC002C60D7E738B5002383608B6804460D4605
:1052DC002BB102229847EB68E360AB68A3602046D1
:1052EC0038BD0000F0B589B004460D4601A8114642
:1052FC00FFF754FEA4B124B21DB1284601F016FDEF
:10530C00054601A803A90395ADF81040FFF7A6FECA
:10531C0003A8FFF710FE02A8FEF7D4FE09B0F0BDFB
:10532C00019D0123D5E84F2F002A03D1C5E8413F49
:10533C000029F7D1EFD12B73BFF35B8F6B702B1D53
:10534C00BFF35B8F53E8006F43E80042002AF9D1AA
:10535C00BFF35B8F002EDED02046FFF7BBFC074669
:10536C0060B105F10C013046FFF743FE3046FFF704
:10537C00A4FD10213046FEF78CFECCE7314603A885
:10538C00FFF7A0FF2B7B8DF81C301020FEF77BFE67
:10539C000546D0B187601420FEF775FE044678B13F
:1053AC008760014603A8FFF791FD059BA268A360E7
:1053BC00069B0592E268E3609DF81C30069223740C
:1053CC00064BEB60064B2C60AB6003A8FFF775FD3A
:1053DC00002229460348FFF785FCC7E711500B0054
:1053EC00F5530B009F4E0B00012A70B5044603D1F8
:1053FC000B680360002070BD022A0CD0032AF9D17F
:10540C000468002CF6D02046FFF757FD14212046E7
:10541C00FEF73FFEEEE714200E68FEF734FE05465D
:10542C0020B13146FFF74EFF337C2B742560E1E74A
:10543C00002240681146FFF7C1BC002240681146AB
:10544C00FFF7CCBC40680022FFF7C0BC40680022CC
:10545C0081F00101FFF7AABC002340681A461946E7
:10546C00FFF79CBC002340681A461946FFF78EBC18
:10547C00002240681146FFF781BC002240681146AB
:10548C00FFF76CBC406800220221FFF76FBC0023C1
:10549C0040681A46FFF75ABC024B03225A60024A74
:1054AC001A607047C0E60320586F0B007047F8B5C0
:1054BC00064615460C468F18BC4206D0336814F8C5
:1054CC00011B9B6830469847F6E72846F8BD007CE0
:1054DC000022FFF7CFBA007C0021FFF7D3BA007C83
:1054EC000021FFF7D7BA007C0021FFF7DBBA007C64
:1054FC000021FFF7DFBA10B514210446FEF7C9FDF1
:10550C00204610BD10B54FF47A73044608460021AE
:10551C00C4E90113034B236020741146FFF7DAFA38
:10552C00204610BD946F0B00704710B5182104462F
:10553C00FEF7AFFD204610BDF0B5037D062B8DB0F8
:10554C000E4600F104074FF0000412D000F10805DC
:10555C0015F8011D0A22304600F059F9AF420444F7
:10556C0019D0002CF4D02E21304600F04DF9044413
:10557C00EEE72F236A4639460A208DF80040FFF7E4
:10558C00B9FA684601F0EFFB33680246DB686946FE
:10559C0030469847044620460DB0F0BD10B5054B7B
:1055AC000446112240F8043B002101F077FB204611
:1055BC0010BD00BFBC6F0B000346074A10B543F883
:1055CC00042B01F1100251F8044B43F8044B9142A7
:1055DC00F9D10A781A7010BDBC6F0B00037D042B37
:1055EC0004D14068003818BF01207047062B07D142
:1055FC0043683BB983682BB9C3681BB90069F1E7F1
:10560C00002070470120704710B59DF8084044EA0F
:10561C00032343EA024242EA016104234160037519
:10562C0010BD000007B5064B0360CB7800938B7858
:10563C004A780978FFF7E8FF03B05DF804FB00BF78
:10564C00BC6F0B00014B024A1A607047C8E603207E
:10565C00C86F0B00002340681A46FFF777BB406801
:10566C0000220221FFF782BB002240681146FFF79F
:10567C0075BB002240681146FFF780BB00234068D1
:10568C001A461946FFF782BB002340681A46194692
:10569C00FFF784BB40680021FFF7A8BB40680021DE
:1056AC00FFF7ACBB4068002281F00101FFF77EBB25
:1056BC0040680022FFF78ABB002240681146FFF7C2
:1056CC008DBB002240681146FFF778BB2DE9F043F3
:1056DC0095B014460D460746FFF760FF00211C22CB
:1056EC000DA8009101F0DAFA40230C9320466B468A
:1056FC000CAA0021FFF71EFA044600284BD10246E3
:10570C0001216868FFF73AFB02218046224668684F
:10571C00FFF734FB009E81462146002E3BD000292A
:10572C0039D17368022B03D00A2B11D0F669F4E738
:10573C00B8F1000FFAD0716906A8043107ADFFF774
:10574C0071FF0FCD3C1D0FC42B6823704146EDE754
:10575C00B9F1000FEAD07469102201A801F09EFA89
:10576C0006238DF8143001AD04F1080318341868C1
:10577C0059682A4603C20833A3421546F7D101A93A
:10578C0006A807ADFFF718FF0FCD3C1D0FC42B6803
:10579C0023704946CAE70098FFF7C4F9384615B09C
:1057AC00BDE8F083024B034A1A6000225A6070472E
:1057BC00CCE60320D46F0B00F8B506460D468F18C7
:1057CC000024BD420CD0336815F8011B9B68304691
:1057DC009847031E01DB1C44F3E7002C08BF1C4652
:1057EC002046F8BD13B50446084659B1019101F0A5
:1057FC00BAFA23680199DB680246204602B0BDE87C
:10580C001040184702B010BD03689B68184730B5AC
:10581C008BB00023012A8DF8243098BF0A2209ACE2
:10582C000D46B1FBF2F101FB125303F0FF03092B00
:10583C0094BF30333733DBB2AA4204F8013DEFD9C1
:10584C002146FFF7CFFF0BB030BD0000014B00220B
:10585C009A607047D4E6032010B5044608462170C0
:10586C00FFF7A0F900236360204610BD10B5044675
:10587C000068FFF7D3FA204610BD10B50446006847
:10588C0008B1FFF7CBFA0023C4E90133236010BD44
:10589C0038B504460D4600680131FFF7C7FA10B160
:1058AC00C4E90005012038BD10B50368044623B1D6
:1058BC0043688B4201D3012010BD2046FFF7E8FF5F
:1058CC000028F9D0A368002BF5D122681370F2E7F9
:1058DC0037B50D46114601920446FFF7E5FF019AD4
:1058EC0028B92046FFF7C9FF204603B030BDA2609F
:1058FC002946206801F0C4F92268A3680021D1541C
:10590C00F2E7002313B5C0E9003304468360037348
:10591C0041B10846019101F026FA01990246204650
:10592C00FFF7D6FF204602B010BD884210B50446E2
:10593C0005D00B682BB18A681946FFF7C9FF2046C2
:10594C0010BDFFF79AFFFAE710B500230446C0E933
:10595C00003383600373FFF7E8FF204610BD13B5D7
:10596C00044659B10846019101F0FDF9019902462E
:10597C002046FFF7ADFF204602B010BDFFF77DFFBC
:10598C00F9E710B504468AB00023C4E90033A360DC
:10599C002373084601A900F081FC01A92046FFF7FA
:1059AC00DEFF20460AB010BD70B505460E4609B99B
:1059BC00002070BD6AB1846814442146FFF774FF5F
:1059CC000028F5D02868AB683146184401F0A6F9D8
:1059DC00AC600120EDE713B50A220446084669467F
:1059EC0000F05CFC684601F0BEF9694602462046B0
:1059FC00FFF7DAFF02B010BD054B02221A60054B0F
:105A0C00054A9A600020C3E90000FFF753B900BFB4
:105A1C00F0E60320E4E603200000FFFF13B5036863
:105A2C008DF80710DC6B01224FF0FF330DF10701ED
:105A3C00A04702B010BD10B40368DC6B4FF0FF330D
:105A4C00A4465DF8044B604713B5134602688DF805
:105A5C000710D46B0DF107010122A04702B010BD55
:105A6C0010B54369B3F88620B3F884309A420446E3
:105A7C0008D06369B3F88420511CA3F88410134434
:105A8C00187910BD03681B6998470028F1D14FF0B5
:105A9C00FF30F6E7704743691868C043C00F704782
:105AAC0070470000064B994210B500F10C0405D06C
:105ABC00084600F089FD002808BF0024204610BDD0
:105ACC002C6F0B0010B5AC210446FEF7E2FA204611
:105ADC0010BDAC21FEF7DDBA2DE9F0414FF0000806
:105AEC0086B01C46C0F8048005460E461746414653
:105AFC00102202A801F0D2F8631C09D04FF47A737B
:105B0C00B4FBF3F203FB1244CDE902285C4304948A
:105B1C00686910230093006802AB41F2050240F65D
:105B2C00FF71FFF70FF8002807DAFFF797F9036802
:105B3C006B60002006B0BDE8F08168690023006846
:105B4C003A463146FFF71EF8031EEEDB1846F1E726
:105B5C0038B584690A4B036005467CB16368013B28
:105B6C0063605BB9236820469B689847A368013B38
:105B7C00A3601BB923682046DB689847284638BDCC
:105B8C0044700B0010B50446FFF7E2FF20461C21C1
:105B9C00FEF77FFA204610BD30B587B0044601AD44
:105BAC006846FFF73FFD0FCD04340FC42B682370FC
:105BBC0007B030BD70B54D69054B04468C3544F8C3
:105BCC00043B06460FCD0FC42B682370304670BDC6
:105BDC00BC6F0B002DE9F0439846036893B00D465B
:105BEC000024DB6A06461746984728466B46224631
:105BFC0021460094FEF79EFF0546002863D1009BCA
:105C0C00002B4BD05B69002B48D006A8FFF7C6FCD5
:105C1C00009B5C696378022B04D1211D06A8FFF759
:105C2C00BBFF26E00A2B24D11122294601A801F042
:105C3C0035F8A368002B38D004F108030DF1040CDF
:105C4C00183418685968624603C20833A342944654
:105C5C00F7D1062301A90CA88DF81430FFF7ACFC82
:105C6C000DF1340CBCE80F0007AC0FC4DCF80030AD
:105C7C00237006A8FFF7B2FC80B1336807ADD3F8E8
:105C8C002090124B0C930FCD0DAC0FC42B682370CE
:105C9C003A4643460CA93046C84705460098FEF7DD
:105CAC0041FF284613B0BDE8F083E368002BC3D155
:105CBC004FF6FF70D4F81090FEF724FF8145BBD14E
:105CCC0004F11401AAE72546E8E700BFBC6F0B00FE
:105CDC0038B543691A68002A054610DAB3F88620ED
:105CEC00B3F884309A420AD103681B69984704467A
:105CFC0028B92B682846DB6A9847204638BD012016
:105D0C00FCE710B54369B3F88620B3F884309A42A7
:105D1C00044605D06369B3F884201344187910BD88
:105D2C0003681B6998470028F4D14FF0FF30F6E761
:105D3C00F8B543691746B3F88620B3F884309A4215
:105D4C0005460E4616D06969B1F88430B1F8864024
:105D5C00E41ABC4228BF3C46043322461944304660
:105D6C0000F08EFF6A69B2F884302344A2F88430C4
:105D7C002046F8BD03681B6998470028E3D14FF013
:105D8C00FF34F5E742690023A2F884304269A2F897
:105D9C00863070472DE9F0411F4603680C46DB6ADC
:105DAC008AB0054616469847237DD5F81480042BF7
:105DBC000CBF02200A2006220121FEF7EBFEC8F8D8
:105DCC0000006B691B68002B08DA2B682846DB6A1D
:105DDC000024984720460AB0BDE8F0812846FFF71A
:105DEC00D1FFB7B1002303A9F8B20393ADF810307B
:105DFC00FEF778FE0028E8D1686906230093006856
:105E0C0003AB41F20B0240F6FF71FEF79BFE00283C
:105E1C00DBD11C22002103A800F040FF237D042BC2
:105E2C001DD14FF407733046ADF80C30FEF772FEFF
:105E3C00ADF80E006068FEF765FE04906B691C22DD
:105E4C00186803A9FEF78EFE0028BED104340FCCCF
:105E5C006D698C350FC523682B700124BAE740F6A9
:105E6C001C233046ADF80C30FEF754FE05AEADF8F1
:105E7C000E00231D04F1140718685968324603C23A
:105E8C000833BB421646F7D1D8E7000030B542695B
:105E9C00B2F886308BB004462BB1B2F884209A420B
:105EAC0001D1FFF76FFF61690868002818DBB1F8B2
:105EBC0086507F2D14D804310823C5F18002294463
:105ECC00FEF758FE002813DD6369B3F886200AB983
:105EDC00A3F884206369B3F886201044A3F88600E5
:105EEC006369B3F88600B3F88430C01A0BB030BDC8
:105EFC00FEF7B4FF03680B2BF2D0FEF7AFFF03687D
:105F0C000B2BEDD020230025CDE90235FEF7A6FFA3
:105F1C0003680193084B0949009302AA2B463220CF
:105F2C00FEF7C0FE63691868FEF714FE63694FF054
:105F3C00FF321A60D4E700BF0F700B0008700B0023
:105F4C0010B5436904461868002801DBFEF702FE11
:105F5C0063694FF0FF321A606069112200218C30A6
:105F6C0000F09CFE2046BDE81040FFF70BBF10B5BB
:105F7C00002304460160C0F884308830FFF70EFB24
:105F8C00204610BD73B500234FF47A72C0E901327C
:105F9C000E4A0361026043610446AC200191FEF796
:105FAC0072F8051E05F10C0608D00123C5E9013372
:105FBC00074B01992B603046FFF7D9FF2046C4E907
:105FCC000565FFF7DFFE02B070BD00BF44700B002B
:105FDC0028700B0010B54FF0FF310446FFF7D2FFCD
:105FEC00204610BD10B504460068002801DBFEF702
:105FFC00B1FD204610BD0C30FFF7F4BF024B1A6800
:10600C00024B1A60704700BF90E50320F4E60320B2
:10601C0070474174704708B5007CFEF703FE20EA18
:10602C00E07008BD08B5007CFEF7D4FD20EAE070F6
:10603C0008BD08B5007CFEF7DDFD40EAE07008BD48
:10604C0008B5007CFEF7CEFD40EAE07008BD007C90
:10605C00FEF7D8BD37B5457C04462DB1207C03B086
:10606C00BDE83040FEF7AEBD007C0191FEF7DAFDD5
:10607C0000280199F2DC284603B030BD10B514217C
:10608C000446FEF706F8204610BD000010B54FF48C
:10609C007A730446084611460022C4E90123044BD6
:1060AC002360012320746374FEF7C4FD204610BDE9
:1060BC00AC700B00417470477047704708B50021F5
:1060CC00007CFEF7D7FD40EAE07008BD08B5012161
:1060DC00007CFEF7CFFD40EAE07008BD08B5007CFF
:1060EC00FEF7C0FD20EAE07008BD08B5007CFEF7A5
:1060FC00B1FD20EAE07008BD13B50446007C0191A7
:10610C00FEF7B0FD0028019901DC607C20B1207CF9
:10611C00FEF7B8FD20EAE07002B010BD007CFEF77F
:10612C00B9BD10B514210446FDF7B3FF204610BDD0
:10613C0010B54FF47A73044608460021C4E90113E4
:10614C00044B23600123207463741146FEF77AFD1F
:10615C00204610BDDC700B0010B514220446002143
:10616C0000F09CFD204610BD10B50F4C88B003A864
:10617C00FFF7F2FF2178BFF35B8F11F001010FD114
:10618C0020460191FDF787FF019948B103AA074802
:10619C00FFF7CEFF2046FDF783FF054800F06AFDB0
:1061AC00024808B010BD00BFF8E60320FCE603204F
:1061BC00C5600B00002240681146FEF7DFBD0022CF
:1061CC0040681146FEF7FABD002240681146FEF702
:1061DC0005BE40680022FEF7F9BD4068002281F040
:1061EC000101FEF7E3BD002340681A461946FEF78D
:1061FC00D5BD002340681A461946FEF7C7BD0022DC
:10620C0040681146FEF7AABD406800220221FEF745
:10621C00ADBD002340681A46FEF798BD024B042220
:10622C005A60024A1A60704710E703200C710B0089
:10623C0010B5044600F097FD013823182046834220
:10624C0006D90278197800F8011B03F80129F6E742
:10625C0010BD70B50C46911E22291DD8254630B9AB
:10626C00234430229D4210D205F8012BFAE7B0FBF3
:10627C00F2F602FB1600C1B2092894BF3031573137
:10628C00C9B205F8011B3046E9E7002320462B7004
:10629C00FFF7CEFF204670BD0020FCE738B5031E8B
:1062AC000C4615460EDAB3F1004F4FF02D0214BF19
:1062BC005842184601230A702A461944FFF7C9FFB1
:1062CC00204638BD0123F9E7014B1860704700BF29
:1062DC0094E5032008B50B4B43B1FFF745FF03686A
:1062EC001B699847002801DDAFF30080064B43B1D2
:1062FC0000F040F903681B699847002801DDAFF3F3
:10630C00008008BD000000000000000008B5FFF789
:10631C00E1FFFEF78FFB014B186008BD2CE7032053
:10632C000548064A064908B5121A00F0A9FC054BA7
:10633C00054A1A6008BD00BF00F4032004F40320D2
:10634C00F4720B0000F403201E1C279A07B50023DF
:10635C0000931A466FF07701FEF7D6FC03B05DF898
:10636C0004FB000007B543880A2B08D0502B0BD137
:10637C00094B1B684BB103B05DF804EB1847FFF7F2
:10638C00E5FF03B05DF804FB002300931A466FF0A1
:10639C007701FEF7B9FCF4E71CE7032010B51248AF
:1063AC000021FEF76BFD114B1A68114B9A42114BF1
:1063BC000CBF012200221A7001D0FFF7B1FFFEF7CB
:1063CC0031FB044600F072FC0B4B13B12046AFF3CB
:1063DC00008000210848FEF7B1FCBDE810400748DA
:1063EC000021FEF787BC00BFD5620B0000F4032030
:1063FC001E1C279A18E703200000000071630B0095
:10640C00232813B502D9002002B010BDA0F10B0354
:10641C00022B1AD8174C2178BFF35B8F11F00101B6
:10642C000BD120460191FDF736FE019928B1124897
:10643C00FFF712FA2046FDF733FE0F4B1878FEF7E4
:10644C00B9FB0028DFD10120DEE7012809D800F0D4
:10645C0051F80021007CFEF735FB80F00100C0B242
:10646C00D2E709380128EED800F084F8007CFEF75A
:10647C00D1FBF2E720E7032024E70320232838B5DB
:10648C0004460D460AD8FF2908D0FFF7B9FF28B1FA
:10649C0029462046BDE83840FEF7D4BA38BD10B5C1
:1064AC000446FEF7D7FA031FDBB2012B08D92046AE
:1064BC00FFF7A6FF20B12046BDE81040FEF7D2BA88
:1064CC00002010BD7047000038B520251423044669
:1064DC000360856005610649284600F06FF80449A1
:1064EC006060284600F06AF8E060204638BD00BFC6
:1064FC0040710B0030B50E4D2978BFF35B8F11F056
:10650C00010487B011D12846FDF7C5FD68B101A87B
:10651C00FFF7DAFF01AA21460648FEF7F3FF2846EB
:10652C00FDF7BEFD044800F0A5FB024807B030BDE6
:10653C0030E7032034E70320D1640B0070470000E0
:10654C0038B5044614252A46002100F0A7FB258007
:10655C004025074925812846258200F02FF804495B
:10656C006060284600F02AF8E060204638BD00BF85
:10657C0040710B0030B50E4D2978BFF35B8F11F0D5
:10658C00010487B011D12846FDF785FD68B101A83B
:10659C00FFF7D6FF01AA21460648FFF777FD2846EC
:1065AC00FDF77EFD044800F065FB024807B030BDE6
:1065BC0048E703204CE7032049650B00FDF765BD58
:1065CC0008B5FEF73BFC0000014900F0F9B800BF2C
:1065DC005C710B007FB500241023CDE902340368F5
:1065EC0015469E6912686B46CDE90044B0479DF88C
:1065FC00043003F00603062B03BF009B2B60012025
:10660C00204604B070BD0098904214BF01200620B3
:10661C007047000010B5034B0360044600F0CDF842
:10662C00204610BD9C710B0010B50446FFF7F2FF1D
:10663C0020460821FDF72DFD204610BD2DE9F04127
:10664C001F46DDE90834DDF81880984506461546E6
:10665C0007D1079900F0B4F818B165710020BDE8B6
:10666C00F0813946304600F0ABF80028F6D0012313
:10667C00C4F800802571A371F0E738B515461C46A7
:10668C0000F09EF820B10823E360062325602371F7
:10669C0038BD73B505460C4601921E4600F090F8C5
:1066AC0050B9032E08D82368019A5B692946204605
:1066BC0002B0BDE87040184702B070BD10B5034B76
:1066CC0003600446FFF7A6FF204610BDFC710B00CB
:1066DC0010B50446FFF7F2FF20460C21FDF7D9FC5C
:1066EC00204610BDF7B5089F974205460E46144646
:1066FC000AD0A86802680897156A31462246AC464B
:10670C0003B0BDE8F04060471946019300F058F81B
:10671C00019B0028EDD0062003B0F0BD2DE9F14F10
:10672C000D461946DDE90A4BDDE90CA681461746F4
:10673C00984600F045F890B1002D3460377109DBB4
:10674C0061198A450CBF06210121B171002001B0ED
:10675C00BDE8F08F0235F9D10123B371F6E754454A
:10676C0006D15946484600F02BF808B17771EDE791
:10677C00D9F808000368CDE90CA6CDE90A4BDC6911
:10678C003A4643462946A44601B0BDE8F04F60475F
:10679C002DE9F04107460C4615461E46FFF76DFFE6
:1067AC0048B9B86803689F692A4633462146BC46F7
:1067BC00BDE8F0416047BDE8F081704700207047AC
:1067CC00814208B50ED0406803782A2B0CD049685A
:1067DC000B782A2B08BF013100F096FAB0FA80F042
:1067EC00400908BD0120FCE70020FAE781F00041D8
:1067FC0002E000BF83F0004330B54FEA41044FEA9A
:10680C00430594EA050F08BF90EA020F1FBF54EA34
:10681C00000C55EA020C7FEA645C7FEA655C00F0D0
:10682C00E2804FEA5454D4EB5555B8BF6D420CDDA1
:10683C002C4480EA020281EA030382EA000083EA24
:10684C00010180EA020281EA0303362D88BF30BDC4
:10685C0011F0004F4FEA01314FF4801C4CEA11311A
:10686C0002D0404261EB410113F0004F4FEA033379
:10687C004CEA133302D0524263EB430394EA050F04
:10688C0000F0A780A4F10104D5F1200E0DDB02FA73
:10689C000EFC22FA05F2801841F1000103FA0EF207
:1068AC00801843FA05F359410EE0A5F120050EF1CD
:1068BC00200E012A03FA0EFC28BF4CF0020C43FAFE
:1068CC0005F3C01851EBE37101F0004507D54FF00B
:1068DC00000EDCF1000C7EEB00006EEB0101B1F55B
:1068EC00801F1BD3B1F5001F0CD349085FEA3000A1
:1068FC004FEA3C0C04F101044FEA445212F5800FAC
:10690C0080F09A80BCF1004F08BF5FEA500C50F148
:10691C00000041EB045141EA050130BD5FEA4C0C2B
:10692C00404141EB0101013C28BFB1F5801FE9D288
:10693C0091F0000F04BF01460020B1FA81F308BFAB
:10694C002033A3F10B03B3F120020CDA0C3208DD77
:10695C0002F1140CC2F10C0201FA0CF021FA02F152
:10696C000CE002F11402D8BFC2F1200C01FA02F1C2
:10697C0020FA0CFCDCBF41EA0C019040E41AA2BFE7
:10698C0001EB0451294330BD6FEA04041F3C1CDAAF
:10699C000C340EDC04F11404C4F1200220FA04F0CF
:1069AC0001FA02F340EA030021FA04F345EA030179
:1069BC0030BDC4F10C04C4F1200220FA02F001FA3B
:1069CC0004F340EA0300294630BD21FA04F02946BD
:1069DC0030BD94F0000F83F4801306BF81F4801156
:1069EC000134013D4EE77FEA645C18BF7FEA655CC9
:1069FC0029D094EA050F08BF90EA020F05D054EA9B
:106A0C00000C04BF1946104630BD91EA030F1EBF9F
:106A1C000021002030BD5FEA545C05D140004941A3
:106A2C0028BF41F0004130BD14F580043CBF01F596
:106A3C00801130BD01F0004545F0FE4141F470017C
:106A4C004FF0000030BD7FEA645C1ABF1946104657
:106A5C007FEA655C1CBF0B46024650EA013406BF58
:106A6C0052EA033591EA030F41F4002130BD00BF17
:106A7C0090F0000F04BF0021704730B54FF48064D4
:106A8C0004F132044FF000054FF0000150E700BF55
:106A9C0090F0000F04BF0021704730B54FF48064B4
:106AAC0004F1320410F0004548BF40424FF00001A1
:106ABC003EE700BF42004FEAE2014FEA31014FEAE4
:106ACC0002701FBF12F07F4393F07F4F81F0605133
:106ADC00704732F07F4208BF704793F07F4F04BF7E
:106AEC0041F40021704730B54FF4607401F000455B
:106AFC0021F000411CE700BF50EA010208BF7047BB
:106B0C0030B54FF000050AE050EA010208BF7047AB
:106B1C0030B511F0004502D5404261EB41014FF414
:106B2C00806404F132045FEA915C3FF4D8AE4FF01C
:106B3C0003025FEADC0C18BF03325FEADC0C18BFFF
:106B4C00033202EBDC02C2F1200300FA03FC20FA50
:106B5C0002F001FA03FE40EA0E0021FA02F114449D
:106B6C00BDE600BF4FF0FF3C06E000BF4FF0010C4C
:106B7C0002E000BF4FF0010C4DF804CD4FEA410C80
:106B8C007FEA6C5C4FEA430C18BF7FEA6C5C1BD04D
:106B9C0001B050EA410C0CBF52EA430C91EA030FCE
:106BAC0002BF90EA020F0020704710F1000F91EA2B
:106BBC00030F58BF994208BF90422CBFD8176FEAF9
:106BCC00E37040F0010070474FEA410C7FEA6C5CC7
:106BDC0002D150EA013C07D14FEA430C7FEA6C5CCE
:106BEC00D6D152EA033CD3D05DF8040B704700BFFA
:106BFC008446104662468C461946634600E000BF48
:106C0C0001B5FFF7B7FF002848BF10F1000F01BD19
:106C1C004DF808EDFFF7F4FF0CBF012000205DF8E4
:106C2C0008FB00BF4DF808EDFFF7EAFF34BF012069
:106C3C0000205DF808FB00BF4DF808EDFFF7E0FF02
:106C4C0094BF012000205DF808FB00BF4DF808ED53
:106C5C00FFF7CEFF94BF012000205DF808FB00BFBA
:106C6C004DF808EDFFF7C4FF34BF012000205DF89C
:106C7C0008FB00BF002301461A46184600F07CB8FA
:106C8C000A44914200F1FF3300D1704710B511F85E
:106C9C00014B03F8014F9142F9D110BD0244034658
:106CAC00934200D1704703F8011BF9E738B5104B3C
:106CBC001D68AB6B0446B3B91820FEF7A7F8024663
:106CCC00A86320B90B4B0C484221FEF7CFF80B49B7
:106CDC000B4BC0E900130B4B83600B23838100210A
:106CEC000120C2E90401AB6B00221C615A6138BD62
:106CFC0094E5032035720B004C720B000E33CDABB8
:106D0C0034126DE6ECDE050010F8012B11F8013B96
:106D1C00012A28BF9A42F7D0D01A7047034611F8BF
:106D2C00012B03F8012B002AF9D17047024B0146C5
:106D3C00186800F003B800BF94E5032037B504468B
:106D4C0008460D4600F00FF8421C114620460192F1
:106D5C00FEF77CF8044618B1019A2946FFF790FF1C
:106D6C00204603B030BD034613F8012B002AFBD19B
:106D7C00181A0138704700002DE9F843DFF8B88085
:106D8C000646D8F800001F460D46914600F056F80E
:106D9C00254B1C6834B9254C1C60254B13B11B6862
:106DAC00C4F8883063681F2B07DDD8F8000000F0AA
:106DBC0047F84FF0FF30BDE8F8834EB3D4F88800A5
:106DCC0088B91C4B23B9D8F8000000F038F8F0E76C
:106DDC004FF48470FEF71AF80028F4D00023C0E9B1
:106DEC004033C4F88800636840F8239001229A402D
:106DFC0000EB8301D0F800311343C0F80031022EB0
:106E0C00C1F8807002BFD0F804311343C0F80431CC
:106E1C006368D8F800005A1C0233626044F82350AF
:106E2C0000F00EF80020C6E7ECE7032060E7032033
:106E3C0000000000194E0B00F8E503207047704766
:106E4C00704700001D400B0059400B0081400B00A7
:106E5C0085400B00000000006D7174742072657425
:106E6C0075726E20636F6465203D2000436F6E6EFB
:106E7C00656374696F6E2064726F70706564004432
:106E8C0069616C656420005374617274206D6520B7
:106E9C0075702E2E2E006462756700436F6E6E65E2
:106EAC006374656420746F204841004D5154540044
:106EBC004661696C656420636F6E6E65637420480F
:106ECC0041202D20636865636B2073656372657464
:106EDC00732E680068612F726F746172792F6E75F2
:106EEC006D6265720068612F726F746172792F64C4
:106EFC0069676974004449414C4552005557323119
:106F0C006D717474007574696C736D7174740000B8
:106F1C00044D5154540400064D51497364700300E0
:106F2C000000000000000000000000000000000055
:106F3C000D4F0B00134F0B00514F0B00214F0B004B
:106F4C000F4F0B0000000000000000009B540B00D2
:106F5C0091540B0087540B007D540B0071540B00A3
:106F6C0065540B00A1560B00A9560B0059540B008D
:106F7C0051540B0047540B003D540B00D9560B00D9
:106F8C000000000000000000B9540B0003550B007A
:106F9C00DB540B00BB540B00E3540B00EB540B0005
:106FAC00F3540B00FB540B00000000000000000029
:106FBC0045550B0035550B0037550B0061707000B3
:106FCC00000000000000000061560B006B560B0027
:106FDC0075560B007F560B0089560B0095560B000F
:106FEC00A1560B00A9560B00B1560B00BD560B0059
:106FFC00C5560B00CF560B00D9560B00776972693A
:10700C006E670072656376206572726F72203D2028
:10701C00256400000000000000000000AD5A0B00C9
:10702C00D15A0B0003600B00DF5A0B00B15A0B0056
:10703C0000000000000000005D5B0B00915B0B008A
:10704C00295A0B00435A0B00995E0B006D5A0B002A
:10705C000F5D0B00A15A0B00A15D0B00E15B0B0057
:10706C003D5D0B004D5F0B00DD5C0B00A35A0B006C
:10707C00555A0B00E55A0B00C15B0B0025592D2509
:10708C006D2D25645425483A254D3A2553257A0013
:10709C0061736374696D65000000000000000000FE
:1070AC001D600B0089600B0061600B00C5570B0065
:1070BC0031600B004D600B003F600B005B600B0000
:1070CC001F600B0023600B0000000000000000009C
:1070DC00C7600B002F610B0005610B00C5570B003F
:1070EC00F7600B00C9600B00D9600B0029610B0025
:1070FC00E9600B00C1600B00000000000000000004
:10710C001F620B0015620B000B620B00C1610B00C0
:10711C00FF610B00F3610B00A1560B00A9560B008D
:10712C00E7610B00DF610B00D5610B00CB610B003D
:10713C00D9560B0000537431395F53705F6D616B1E
:10714C00655F7368617265645F746167000000005D
:10715C009C710B0041710B00FC710B0070710B00EA
:10716C0020720B004E31305F5F6378786162697614
:10717C003131375F5F636C6173735F747970655F16
:10718C00696E666F450000000000000064710B0022
:10719C0021660B0035660B00C9670B00C9670B0035
:1071AC009F660B00E1650B0087660B0049660B00C0
:1071BC0013660B00FC710B00CC710B0064710B009F
:1071CC004E31305F5F637878616269763132305F5F
:1071DC005F73695F636C6173735F747970655F690A
:1071EC006E666F450000000000000000C0710B00CF
:1071FC00C9660B00DD660B00C9670B00C9670B0085
:10720C009F660B00E1650B009D670B0029670B0067
:10721C00F1660B009C710B0028720B0053743974CF
:10722C007970655F696E666F005245454E54206DEE
:10723C00616C6C6F63207375636365656465640072
:10724C002F746D702F6A656E6B696E732D47434397
:10725C002D31302D706970656C696E652D34385F19
:10726C0032303230313132345F31363036313830C1
:10727C003633392F7372632F6E65776C69622F6E9C
:10728C0065776C69622F6C6962632F7374646C69C7
:10729C00622F72616E642E630000000009440B00C3
:1072AC00FD4E0B00A5540B0051560B00B1570B00B3
:1072BC0059580B00055A0B0009600B0029620B0092
:0472CC0000000000BE
:1072D000040000001400000003000000474E5500A9
:1072E0008C3BDBB3580C07EAFD27D65D1037E96FFE
:0472F000A3137A0961
:0472F4000000000096
:1072F800016F0B00086F0B00116F0B00C0A807B9D6
:10730800E06E0B0000000000000000000000594083
:107318000200000001000000010000000000000061
:10732800000000000070A7409C700B0098E5032047
:107338000000000000000000000000000000000045
:107348000000000000000000000000000000000035
:107358000000000000000000000000000000000025
:107368000000000000000000000000000000000015
:107378000000000000000000000000000000000005
:1073880000000000000000000000000000000000F5
:04739800F0E70320F7
:10739C00FFFFFFFF00000102030405060708090AAE
:1073AC000B0C0D0E0F101112131415161718191AA9
:0873BC001B1C1D1E1F202800F0
:0473C40078563412B1
:04000003B000401CED
:00000001FF
